{
  "contracts/perp-dex-minimal/ClearingHouseV2.sol": {
    "ClearingHouseV2": {
      "abi": [
        {
          "inputs": [
            {
              "internalType": "address",
              "name": "_oracleAddress",
              "type": "address"
            },
            {
              "internalType": "address",
              "name": "_collateralTokenAddress",
              "type": "address"
            }
          ],
          "stateMutability": "nonpayable",
          "type": "constructor"
        },
        {
          "inputs": [],
          "name": "InsufficientFreeCollateral",
          "type": "error"
        },
        {
          "inputs": [],
          "name": "InvalidAmount",
          "type": "error"
        },
        {
          "inputs": [],
          "name": "InvalidLeverage",
          "type": "error"
        },
        {
          "inputs": [],
          "name": "NotPositionOwner",
          "type": "error"
        },
        {
          "inputs": [],
          "name": "PositionExists",
          "type": "error"
        },
        {
          "inputs": [],
          "name": "PositionNotFound",
          "type": "error"
        },
        {
          "inputs": [],
          "name": "PositionNotLiquidatable",
          "type": "error"
        },
        {
          "inputs": [],
          "name": "PositionUndercollateralized",
          "type": "error"
        },
        {
          "inputs": [],
          "name": "ReentrancyGuardReentrantCall",
          "type": "error"
        },
        {
          "inputs": [],
          "name": "ZeroAddress",
          "type": "error"
        },
        {
          "anonymous": false,
          "inputs": [
            {
              "indexed": true,
              "internalType": "address",
              "name": "user",
              "type": "address"
            },
            {
              "indexed": false,
              "internalType": "uint256",
              "name": "amount",
              "type": "uint256"
            }
          ],
          "name": "CollateralDeposited",
          "type": "event"
        },
        {
          "anonymous": false,
          "inputs": [
            {
              "indexed": true,
              "internalType": "address",
              "name": "user",
              "type": "address"
            },
            {
              "indexed": false,
              "internalType": "uint256",
              "name": "amount",
              "type": "uint256"
            }
          ],
          "name": "CollateralWithdrawn",
          "type": "event"
        },
        {
          "anonymous": false,
          "inputs": [
            {
              "indexed": true,
              "internalType": "address",
              "name": "user",
              "type": "address"
            },
            {
              "indexed": true,
              "internalType": "bytes32",
              "name": "positionId",
              "type": "bytes32"
            },
            {
              "indexed": false,
              "internalType": "uint256",
              "name": "amount",
              "type": "uint256"
            }
          ],
          "name": "MarginAdded",
          "type": "event"
        },
        {
          "anonymous": false,
          "inputs": [
            {
              "indexed": true,
              "internalType": "address",
              "name": "user",
              "type": "address"
            },
            {
              "indexed": true,
              "internalType": "bytes32",
              "name": "positionId",
              "type": "bytes32"
            },
            {
              "indexed": false,
              "internalType": "uint256",
              "name": "amount",
              "type": "uint256"
            }
          ],
          "name": "MarginRemoved",
          "type": "event"
        },
        {
          "anonymous": false,
          "inputs": [
            {
              "indexed": true,
              "internalType": "address",
              "name": "user",
              "type": "address"
            },
            {
              "indexed": true,
              "internalType": "bytes32",
              "name": "positionId",
              "type": "bytes32"
            },
            {
              "indexed": false,
              "internalType": "int256",
              "name": "pnl",
              "type": "int256"
            },
            {
              "indexed": false,
              "internalType": "uint256",
              "name": "fee",
              "type": "uint256"
            }
          ],
          "name": "PositionClosed",
          "type": "event"
        },
        {
          "anonymous": false,
          "inputs": [
            {
              "indexed": true,
              "internalType": "address",
              "name": "user",
              "type": "address"
            },
            {
              "indexed": true,
              "internalType": "bytes32",
              "name": "positionId",
              "type": "bytes32"
            },
            {
              "indexed": false,
              "internalType": "address",
              "name": "liquidator",
              "type": "address"
            },
            {
              "indexed": false,
              "internalType": "uint256",
              "name": "liquidationFee",
              "type": "uint256"
            }
          ],
          "name": "PositionLiquidated",
          "type": "event"
        },
        {
          "anonymous": false,
          "inputs": [
            {
              "indexed": true,
              "internalType": "address",
              "name": "user",
              "type": "address"
            },
            {
              "indexed": true,
              "internalType": "bytes32",
              "name": "positionId",
              "type": "bytes32"
            },
            {
              "indexed": false,
              "internalType": "uint256",
              "name": "size",
              "type": "uint256"
            },
            {
              "indexed": false,
              "internalType": "uint256",
              "name": "margin",
              "type": "uint256"
            },
            {
              "indexed": false,
              "internalType": "bool",
              "name": "isLong",
              "type": "bool"
            },
            {
              "indexed": false,
              "internalType": "uint256",
              "name": "entryPrice",
              "type": "uint256"
            }
          ],
          "name": "PositionOpened",
          "type": "event"
        },
        {
          "inputs": [],
          "name": "BPS_DIVISOR",
          "outputs": [
            {
              "internalType": "uint256",
              "name": "",
              "type": "uint256"
            }
          ],
          "stateMutability": "view",
          "type": "function"
        },
        {
          "inputs": [],
          "name": "LEVERAGE_PRECISION",
          "outputs": [
            {
              "internalType": "uint256",
              "name": "",
              "type": "uint256"
            }
          ],
          "stateMutability": "view",
          "type": "function"
        },
        {
          "inputs": [],
          "name": "LIQUIDATION_FEE_BPS",
          "outputs": [
            {
              "internalType": "uint256",
              "name": "",
              "type": "uint256"
            }
          ],
          "stateMutability": "view",
          "type": "function"
        },
        {
          "inputs": [],
          "name": "MAINTENANCE_MARGIN_RATIO_BPS",
          "outputs": [
            {
              "internalType": "uint256",
              "name": "",
              "type": "uint256"
            }
          ],
          "stateMutability": "view",
          "type": "function"
        },
        {
          "inputs": [],
          "name": "MAX_LEVERAGE",
          "outputs": [
            {
              "internalType": "uint256",
              "name": "",
              "type": "uint256"
            }
          ],
          "stateMutability": "view",
          "type": "function"
        },
        {
          "inputs": [],
          "name": "MIN_LEVERAGE",
          "outputs": [
            {
              "internalType": "uint256",
              "name": "",
              "type": "uint256"
            }
          ],
          "stateMutability": "view",
          "type": "function"
        },
        {
          "inputs": [],
          "name": "PRICE_PRECISION",
          "outputs": [
            {
              "internalType": "uint256",
              "name": "",
              "type": "uint256"
            }
          ],
          "stateMutability": "view",
          "type": "function"
        },
        {
          "inputs": [],
          "name": "TAKER_FEE_BPS",
          "outputs": [
            {
              "internalType": "uint256",
              "name": "",
              "type": "uint256"
            }
          ],
          "stateMutability": "view",
          "type": "function"
        },
        {
          "inputs": [
            {
              "internalType": "bytes32",
              "name": "_positionId",
              "type": "bytes32"
            },
            {
              "internalType": "uint256",
              "name": "_amount",
              "type": "uint256"
            }
          ],
          "name": "addMargin",
          "outputs": [],
          "stateMutability": "nonpayable",
          "type": "function"
        },
        {
          "inputs": [
            {
              "internalType": "bytes32",
              "name": "_positionId",
              "type": "bytes32"
            }
          ],
          "name": "calculatePnl",
          "outputs": [
            {
              "internalType": "int256",
              "name": "pnl",
              "type": "int256"
            },
            {
              "internalType": "bool",
              "name": "isSolvent",
              "type": "bool"
            }
          ],
          "stateMutability": "view",
          "type": "function"
        },
        {
          "inputs": [
            {
              "internalType": "bytes32",
              "name": "_positionId",
              "type": "bytes32"
            }
          ],
          "name": "closePosition",
          "outputs": [],
          "stateMutability": "nonpayable",
          "type": "function"
        },
        {
          "inputs": [],
          "name": "collateralToken",
          "outputs": [
            {
              "internalType": "contract MockERC20",
              "name": "",
              "type": "address"
            }
          ],
          "stateMutability": "view",
          "type": "function"
        },
        {
          "inputs": [
            {
              "internalType": "uint256",
              "name": "_amount",
              "type": "uint256"
            }
          ],
          "name": "depositCollateral",
          "outputs": [],
          "stateMutability": "nonpayable",
          "type": "function"
        },
        {
          "inputs": [
            {
              "internalType": "address",
              "name": "",
              "type": "address"
            }
          ],
          "name": "freeCollateral",
          "outputs": [
            {
              "internalType": "uint256",
              "name": "",
              "type": "uint256"
            }
          ],
          "stateMutability": "view",
          "type": "function"
        },
        {
          "inputs": [
            {
              "internalType": "bytes32",
              "name": "_positionId",
              "type": "bytes32"
            }
          ],
          "name": "liquidate",
          "outputs": [],
          "stateMutability": "nonpayable",
          "type": "function"
        },
        {
          "inputs": [
            {
              "internalType": "bytes32",
              "name": "_positionId",
              "type": "bytes32"
            },
            {
              "internalType": "uint256",
              "name": "_margin",
              "type": "uint256"
            },
            {
              "internalType": "uint256",
              "name": "_leverage",
              "type": "uint256"
            },
            {
              "internalType": "bool",
              "name": "_isLong",
              "type": "bool"
            }
          ],
          "name": "openPosition",
          "outputs": [],
          "stateMutability": "nonpayable",
          "type": "function"
        },
        {
          "inputs": [],
          "name": "oracle",
          "outputs": [
            {
              "internalType": "contract Oracle",
              "name": "",
              "type": "address"
            }
          ],
          "stateMutability": "view",
          "type": "function"
        },
        {
          "inputs": [
            {
              "internalType": "bytes32",
              "name": "",
              "type": "bytes32"
            }
          ],
          "name": "positions",
          "outputs": [
            {
              "internalType": "address",
              "name": "owner",
              "type": "address"
            },
            {
              "internalType": "uint256",
              "name": "size",
              "type": "uint256"
            },
            {
              "internalType": "uint256",
              "name": "margin",
              "type": "uint256"
            },
            {
              "internalType": "uint256",
              "name": "entryPrice",
              "type": "uint256"
            },
            {
              "internalType": "bool",
              "name": "isLong",
              "type": "bool"
            }
          ],
          "stateMutability": "view",
          "type": "function"
        },
        {
          "inputs": [
            {
              "internalType": "bytes32",
              "name": "_positionId",
              "type": "bytes32"
            },
            {
              "internalType": "uint256",
              "name": "_amount",
              "type": "uint256"
            }
          ],
          "name": "removeMargin",
          "outputs": [],
          "stateMutability": "nonpayable",
          "type": "function"
        },
        {
          "inputs": [
            {
              "internalType": "uint256",
              "name": "_amount",
              "type": "uint256"
            }
          ],
          "name": "withdrawCollateral",
          "outputs": [],
          "stateMutability": "nonpayable",
          "type": "function"
        }
      ],
      "devdoc": {
        "errors": {
          "ReentrancyGuardReentrantCall()": [
            {
              "details": "Unauthorized reentrant call."
            }
          ]
        },
        "kind": "dev",
        "methods": {},
        "version": 1
      },
      "evm": {
        "bytecode": {
          "linkReferences": {},
          "object": "60c060405234801561001057600080fd5b506040516116cd3803806116cd83398101604081905261002f916100a2565b60016000556001600160a01b038216158061005157506001600160a01b038116155b1561006f5760405163d92e233d60e01b815260040160405180910390fd5b6001600160a01b039182166080521660a0526100d5565b80516001600160a01b038116811461009d57600080fd5b919050565b600080604083850312156100b557600080fd5b6100be83610086565b91506100cc60208401610086565b90509250929050565b60805160a05161159b610132600039600081816102be015281816104e50152818161068701528181610d92015261102c01526000818161023a015281816103f001528181610b5801528181610f2001526111e2015261159b6000f3fe608060405234801561001057600080fd5b506004361061012c5760003560e01c80638da793b2116100ad578063b2016bd411610071578063b2016bd4146102b9578063b4d20d04146102e0578063bad4a01f146102f3578063e1f75ec414610306578063e54a2ad51461032e57600080fd5b80638da793b21461027457806395082d251461027c57806397709b5d1461028b5780639b45ec971461029e5780639e0a7378146102a657600080fd5b806334c1557d116100f457806334c1557d14610192578063514ea4bf1461019a578063518e8dfc146102195780636112fe2e146102225780637dc0d1d01461023557600080fd5b80630a71096e14610131578063191fe1ed146101465780632057bfa01461016257806324aee8411461016a57806329fd974714610172575b600080fd5b61014461013f366004611345565b610341565b005b61014f61271081565b6040519081526020015b60405180910390f35b61014f600a81565b61014f60f581565b61014f61018036600461135e565b60026020526000908152604090205481565b61014f6105df565b6101e56101a8366004611345565b6001602081905260009182526040909120805491810154600282015460038301546004909301546001600160a01b03909416939192909160ff1685565b604080516001600160a01b03909616865260208601949094529284019190915260608301521515608082015260a001610159565b61014f6101f481565b610144610230366004611345565b6105ee565b61025c7f000000000000000000000000000000000000000000000000000000000000000081565b6040516001600160a01b039091168152602001610159565b61014f606481565b61014f670de0b6b3a764000081565b61014461029936600461138e565b61078d565b61014f6108df565b6101446102b436600461138e565b6108ea565b61025c7f000000000000000000000000000000000000000000000000000000000000000081565b6101446102ee3660046113be565b6109fc565b610144610301366004611345565b610d23565b610319610314366004611345565b610e85565b60408051928352901515602083015201610159565b61014461033c366004611345565b610ece565b61034961114b565b600081815260016020818152604092839020835160a08101855281546001600160a01b031680825293820154928101929092526002810154938201939093526003830154606082015260049092015460ff16151560808301526103bf57604051636ec9be1160e01b815260040160405180910390fd5b60006103ca83611175565b91505080156103ec57604051636415f95960e01b815260040160405180910390fd5b60007f00000000000000000000000000000000000000000000000000000000000000006001600160a01b03166398d5fdca6040518163ffffffff1660e01b8152600401602060405180830381865afa15801561044c573d6000803e3d6000fd5b505050506040513d601f19601f8201168201806040525081019061047091906113ff565b90506000670de0b6b3a764000082856020015161048d919061142e565b6104979190611461565b905060006127106104aa6101f48461142e565b6104b49190611461565b905084604001518111156104c9575060408401515b6040516340c10f1960e01b8152336004820152602481018290527f00000000000000000000000000000000000000000000000000000000000000006001600160a01b0316906340c10f1990604401600060405180830381600087803b15801561053157600080fd5b505af1158015610545573d6000803e3d6000fd5b5050865160408051338152602081018690528a94506001600160a01b0390921692507f68762642199118230172033ae8be4a7146720b6f48baf220112a8b767c5071ab910160405180910390a35050506000838152600160208190526040822080546001600160a01b03191681558082018390556002810183905560038101839055600401805460ff191690559055506105dc9050565b50565b6105eb6064600161142e565b81565b6105f661114b565b806000036106175760405163162908e360e11b815260040160405180910390fd5b33600090815260026020526040902054811115610647576040516319a3029160e01b815260040160405180910390fd5b3360009081526002602052604081208054839290610666908490611475565b909155505060405163a9059cbb60e01b8152336004820152602481018290527f00000000000000000000000000000000000000000000000000000000000000006001600160a01b03169063a9059cbb906044016020604051808303816000875af11580156106d8573d6000803e3d6000fd5b505050506040513d601f19601f820116820180604052508101906106fc9190611488565b61074d5760405162461bcd60e51b815260206004820152601a60248201527f436f6c6c61746572616c207472616e73666572206661696c656400000000000060448201526064015b60405180910390fd5b60405181815233907fc30fcfbcaac9e0deffa719714eaa82396ff506a0d0d0eebe170830177288715d906020015b60405180910390a26105dc6001600055565b61079561114b565b806000036107b65760405163162908e360e11b815260040160405180910390fd5b600082815260016020526040902080546001600160a01b031633146107ee576040516370d645e360e01b815260040160405180910390fd5b80600201548211156108135760405163162908e360e11b815260040160405180910390fd5b818160020160008282546108279190611475565b909155506000905061083884611175565b91505080610874578282600201600082825461085491906114a5565b92505081905550604051634c56808560e11b815260040160405180910390fd5b33600090815260026020526040812080548592906108939084906114a5565b9091555050604051838152849033907f4c88d632ed7d743d1ae51add8d5c8da1cde21c1ef7af661e8c6813cb434ff1189060200160405180910390a350506108db6001600055565b5050565b6105eb60648061142e565b6108f261114b565b806000036109135760405163162908e360e11b815260040160405180910390fd5b600082815260016020526040902080546001600160a01b0316331461094b576040516370d645e360e01b815260040160405180910390fd5b3360009081526002602052604090205482111561097b576040516319a3029160e01b815260040160405180910390fd5b336000908152600260205260408120805484929061099a908490611475565b92505081905550818160020160008282546109b591906114a5565b9091555050604051828152839033907f57ab4c4d40a32ad167254ad966d3295c6b75a4b4be6f5b76b6ac9df41c29839e9060200160405180910390a3506108db6001600055565b610a0461114b565b6000848152600160205260409020546001600160a01b031615610a3a5760405163384e583f60e11b815260040160405180910390fd5b82600003610a5b5760405163162908e360e11b815260040160405180910390fd5b610a676064600161142e565b821080610a7d5750610a7a60648061142e565b82115b15610a9b57604051633fe89cb960e11b815260040160405180910390fd5b33600090815260026020526040902054831115610acb576040516319a3029160e01b815260040160405180910390fd5b3360009081526002602052604081208054859290610aea908490611475565b90915550600090506064610afe848661142e565b610b089190611461565b90506000612710610b1a600a8461142e565b610b249190611461565b9050848110610b46576040516319a3029160e01b815260040160405180910390fd5b6000610b528287611475565b905060007f00000000000000000000000000000000000000000000000000000000000000006001600160a01b03166398d5fdca6040518163ffffffff1660e01b8152600401602060405180830381865afa158015610bb4573d6000803e3d6000fd5b505050506040513d601f19601f82011682018060405250810190610bd891906113ff565b9050600081610bef670de0b6b3a76400008761142e565b610bf99190611461565b90506040518060a00160405280336001600160a01b03168152602001828152602001848152602001838152602001871515815250600160008b815260200190815260200160002060008201518160000160006101000a8154816001600160a01b0302191690836001600160a01b0316021790555060208201518160010155604082015181600201556060820151816003015560808201518160040160006101000a81548160ff02191690831515021790555090505088336001600160a01b03167f324ef3166469cd2236e5b0f010d2405657f3529877f4ccfa1f9f79fb60ed461e83868a87604051610d069493929190938452602084019290925215156040830152606082015260800190565b60405180910390a35050505050610d1d6001600055565b50505050565b610d2b61114b565b80600003610d4c5760405163162908e360e11b815260040160405180910390fd5b3360009081526002602052604081208054839290610d6b9084906114a5565b90915550506040516323b872dd60e01b8152336004820152306024820152604481018290527f00000000000000000000000000000000000000000000000000000000000000006001600160a01b0316906323b872dd906064016020604051808303816000875af1158015610de3573d6000803e3d6000fd5b505050506040513d601f19601f82011682018060405250810190610e079190611488565b610e535760405162461bcd60e51b815260206004820152601a60248201527f436f6c6c61746572616c207472616e73666572206661696c65640000000000006044820152606401610744565b60405181815233907fd7243f6f8212d5188fd054141cf6ea89cfc0d91facb8c3afe2f88a13584801429060200161077b565b60008181526001602052604081205481906001600160a01b0316610ebc57604051636ec9be1160e01b815260040160405180910390fd5b610ec583611175565b91509150915091565b610ed661114b565b600081815260016020526040902080546001600160a01b03163314610f0e576040516370d645e360e01b815260040160405180910390fd5b6000610f1983611175565b50905060007f00000000000000000000000000000000000000000000000000000000000000006001600160a01b03166398d5fdca6040518163ffffffff1660e01b8152600401602060405180830381865afa158015610f7c573d6000803e3d6000fd5b505050506040513d601f19601f82011682018060405250810190610fa091906113ff565b90506000670de0b6b3a7640000828560010154610fbd919061142e565b610fc79190611461565b90506000612710610fd9600a8461142e565b610fe39190611461565b90506000610ff182866114b8565b9050600081876002015461100591906114df565b90506000821315611091576040516340c10f1960e01b8152306004820152602481018390527f00000000000000000000000000000000000000000000000000000000000000006001600160a01b0316906340c10f1990604401600060405180830381600087803b15801561107857600080fd5b505af115801561108c573d6000803e3d6000fd5b505050505b60008113156110bf5733600090815260026020526040812080548392906110b99084906114a5565b90915550505b6040805187815260208101859052899133917f1d9566953522dcf767c20a24ed70fba750e27e2edfebb58305732e318dd88077910160405180910390a35050506000858152600160208190526040822080546001600160a01b0319168155908101829055600281018290556003810191909155600401805460ff19169055506105dc925061133e915050565b60026000540361116e57604051633ee5aeb560e01b815260040160405180910390fd5b6002600055565b6000818152600160208181526040808420815160a08101835281546001600160a01b03168082529482015493810193909352600281015491830191909152600381015460608301526004015460ff161515608082015282916111de575060009360019350915050565b60007f00000000000000000000000000000000000000000000000000000000000000006001600160a01b03166398d5fdca6040518163ffffffff1660e01b8152600401602060405180830381865afa15801561123e573d6000803e3d6000fd5b505050506040513d601f19601f8201168201806040525081019061126291906113ff565b6060830151608084015191925090156112a9576020830151670de0b6b3a76400009061128e83856114b8565b6112989190611507565b6112a29190611537565b94506112d9565b6020830151670de0b6b3a7640000906112c284846114b8565b6112cc9190611507565b6112d69190611537565b94505b60008584604001516112eb91906114df565b90506000670de0b6b3a7640000848660200151611308919061142e565b6113129190611461565b9050600061271061132460f58461142e565b61132e9190611461565b9799979092139750505050505050565b6001600055565b60006020828403121561135757600080fd5b5035919050565b60006020828403121561137057600080fd5b81356001600160a01b038116811461138757600080fd5b9392505050565b600080604083850312156113a157600080fd5b50508035926020909101359150565b80151581146105dc57600080fd5b600080600080608085870312156113d457600080fd5b84359350602085013592506040850135915060608501356113f4816113b0565b939692955090935050565b60006020828403121561141157600080fd5b5051919050565b634e487b7160e01b600052601160045260246000fd5b808202811582820484141761144557611445611418565b92915050565b634e487b7160e01b600052601260045260246000fd5b6000826114705761147061144b565b500490565b8181038181111561144557611445611418565b60006020828403121561149a57600080fd5b8151611387816113b0565b8082018082111561144557611445611418565b81810360008312801583831316838312821617156114d8576114d8611418565b5092915050565b80820182811260008312801582168215821617156114ff576114ff611418565b505092915050565b80820260008212600160ff1b8414161561152357611523611418565b818105831482151761144557611445611418565b6000826115465761154661144b565b600160ff1b82146000198414161561156057611560611418565b50059056fea26469706673582212203270faf9edfb7543f22e4b98f4929e4de06fc9aa06abbae9af817ec1fbf217aa64736f6c634300081c0033",
          "opcodes": "PUSH1 0xC0 PUSH1 0x40 MSTORE CALLVALUE DUP1 ISZERO PUSH2 0x10 JUMPI PUSH1 0x0 DUP1 REVERT JUMPDEST POP PUSH1 0x40 MLOAD PUSH2 0x16CD CODESIZE SUB DUP1 PUSH2 0x16CD DUP4 CODECOPY DUP2 ADD PUSH1 0x40 DUP2 SWAP1 MSTORE PUSH2 0x2F SWAP2 PUSH2 0xA2 JUMP JUMPDEST PUSH1 0x1 PUSH1 0x0 SSTORE PUSH1 0x1 PUSH1 0x1 PUSH1 0xA0 SHL SUB DUP3 AND ISZERO DUP1 PUSH2 0x51 JUMPI POP PUSH1 0x1 PUSH1 0x1 PUSH1 0xA0 SHL SUB DUP2 AND ISZERO JUMPDEST ISZERO PUSH2 0x6F JUMPI PUSH1 0x40 MLOAD PUSH4 0xD92E233D PUSH1 0xE0 SHL DUP2 MSTORE PUSH1 0x4 ADD PUSH1 0x40 MLOAD DUP1 SWAP2 SUB SWAP1 REVERT JUMPDEST PUSH1 0x1 PUSH1 0x1 PUSH1 0xA0 SHL SUB SWAP2 DUP3 AND PUSH1 0x80 MSTORE AND PUSH1 0xA0 MSTORE PUSH2 0xD5 JUMP JUMPDEST DUP1 MLOAD PUSH1 0x1 PUSH1 0x1 PUSH1 0xA0 SHL SUB DUP2 AND DUP2 EQ PUSH2 0x9D JUMPI PUSH1 0x0 DUP1 REVERT JUMPDEST SWAP2 SWAP1 POP JUMP JUMPDEST PUSH1 0x0 DUP1 PUSH1 0x40 DUP4 DUP6 SUB SLT ISZERO PUSH2 0xB5 JUMPI PUSH1 0x0 DUP1 REVERT JUMPDEST PUSH2 0xBE DUP4 PUSH2 0x86 JUMP JUMPDEST SWAP2 POP PUSH2 0xCC PUSH1 0x20 DUP5 ADD PUSH2 0x86 JUMP JUMPDEST SWAP1 POP SWAP3 POP SWAP3 SWAP1 POP JUMP JUMPDEST PUSH1 0x80 MLOAD PUSH1 0xA0 MLOAD PUSH2 0x159B PUSH2 0x132 PUSH1 0x0 CODECOPY PUSH1 0x0 DUP2 DUP2 PUSH2 0x2BE ADD MSTORE DUP2 DUP2 PUSH2 0x4E5 ADD MSTORE DUP2 DUP2 PUSH2 0x687 ADD MSTORE DUP2 DUP2 PUSH2 0xD92 ADD MSTORE PUSH2 0x102C ADD MSTORE PUSH1 0x0 DUP2 DUP2 PUSH2 0x23A ADD MSTORE DUP2 DUP2 PUSH2 0x3F0 ADD MSTORE DUP2 DUP2 PUSH2 0xB58 ADD MSTORE DUP2 DUP2 PUSH2 0xF20 ADD MSTORE PUSH2 0x11E2 ADD MSTORE PUSH2 0x159B PUSH1 0x0 RETURN INVALID PUSH1 0x80 PUSH1 0x40 MSTORE CALLVALUE DUP1 ISZERO PUSH2 0x10 JUMPI PUSH1 0x0 DUP1 REVERT JUMPDEST POP PUSH1 0x4 CALLDATASIZE LT PUSH2 0x12C JUMPI PUSH1 0x0 CALLDATALOAD PUSH1 0xE0 SHR DUP1 PUSH4 0x8DA793B2 GT PUSH2 0xAD JUMPI DUP1 PUSH4 0xB2016BD4 GT PUSH2 0x71 JUMPI DUP1 PUSH4 0xB2016BD4 EQ PUSH2 0x2B9 JUMPI DUP1 PUSH4 0xB4D20D04 EQ PUSH2 0x2E0 JUMPI DUP1 PUSH4 0xBAD4A01F EQ PUSH2 0x2F3 JUMPI DUP1 PUSH4 0xE1F75EC4 EQ PUSH2 0x306 JUMPI DUP1 PUSH4 0xE54A2AD5 EQ PUSH2 0x32E JUMPI PUSH1 0x0 DUP1 REVERT JUMPDEST DUP1 PUSH4 0x8DA793B2 EQ PUSH2 0x274 JUMPI DUP1 PUSH4 0x95082D25 EQ PUSH2 0x27C JUMPI DUP1 PUSH4 0x97709B5D EQ PUSH2 0x28B JUMPI DUP1 PUSH4 0x9B45EC97 EQ PUSH2 0x29E JUMPI DUP1 PUSH4 0x9E0A7378 EQ PUSH2 0x2A6 JUMPI PUSH1 0x0 DUP1 REVERT JUMPDEST DUP1 PUSH4 0x34C1557D GT PUSH2 0xF4 JUMPI DUP1 PUSH4 0x34C1557D EQ PUSH2 0x192 JUMPI DUP1 PUSH4 0x514EA4BF EQ PUSH2 0x19A JUMPI DUP1 PUSH4 0x518E8DFC EQ PUSH2 0x219 JUMPI DUP1 PUSH4 0x6112FE2E EQ PUSH2 0x222 JUMPI DUP1 PUSH4 0x7DC0D1D0 EQ PUSH2 0x235 JUMPI PUSH1 0x0 DUP1 REVERT JUMPDEST DUP1 PUSH4 0xA71096E EQ PUSH2 0x131 JUMPI DUP1 PUSH4 0x191FE1ED EQ PUSH2 0x146 JUMPI DUP1 PUSH4 0x2057BFA0 EQ PUSH2 0x162 JUMPI DUP1 PUSH4 0x24AEE841 EQ PUSH2 0x16A JUMPI DUP1 PUSH4 0x29FD9747 EQ PUSH2 0x172 JUMPI JUMPDEST PUSH1 0x0 DUP1 REVERT JUMPDEST PUSH2 0x144 PUSH2 0x13F CALLDATASIZE PUSH1 0x4 PUSH2 0x1345 JUMP JUMPDEST PUSH2 0x341 JUMP JUMPDEST STOP JUMPDEST PUSH2 0x14F PUSH2 0x2710 DUP2 JUMP JUMPDEST PUSH1 0x40 MLOAD SWAP1 DUP2 MSTORE PUSH1 0x20 ADD JUMPDEST PUSH1 0x40 MLOAD DUP1 SWAP2 SUB SWAP1 RETURN JUMPDEST PUSH2 0x14F PUSH1 0xA DUP2 JUMP JUMPDEST PUSH2 0x14F PUSH1 0xF5 DUP2 JUMP JUMPDEST PUSH2 0x14F PUSH2 0x180 CALLDATASIZE PUSH1 0x4 PUSH2 0x135E JUMP JUMPDEST PUSH1 0x2 PUSH1 0x20 MSTORE PUSH1 0x0 SWAP1 DUP2 MSTORE PUSH1 0x40 SWAP1 KECCAK256 SLOAD DUP2 JUMP JUMPDEST PUSH2 0x14F PUSH2 0x5DF JUMP JUMPDEST PUSH2 0x1E5 PUSH2 0x1A8 CALLDATASIZE PUSH1 0x4 PUSH2 0x1345 JUMP JUMPDEST PUSH1 0x1 PUSH1 0x20 DUP2 SWAP1 MSTORE PUSH1 0x0 SWAP2 DUP3 MSTORE PUSH1 0x40 SWAP1 SWAP2 KECCAK256 DUP1 SLOAD SWAP2 DUP2 ADD SLOAD PUSH1 0x2 DUP3 ADD SLOAD PUSH1 0x3 DUP4 ADD SLOAD PUSH1 0x4 SWAP1 SWAP4 ADD SLOAD PUSH1 0x1 PUSH1 0x1 PUSH1 0xA0 SHL SUB SWAP1 SWAP5 AND SWAP4 SWAP2 SWAP3 SWAP1 SWAP2 PUSH1 0xFF AND DUP6 JUMP JUMPDEST PUSH1 0x40 DUP1 MLOAD PUSH1 0x1 PUSH1 0x1 PUSH1 0xA0 SHL SUB SWAP1 SWAP7 AND DUP7 MSTORE PUSH1 0x20 DUP7 ADD SWAP5 SWAP1 SWAP5 MSTORE SWAP3 DUP5 ADD SWAP2 SWAP1 SWAP2 MSTORE PUSH1 0x60 DUP4 ADD MSTORE ISZERO ISZERO PUSH1 0x80 DUP3 ADD MSTORE PUSH1 0xA0 ADD PUSH2 0x159 JUMP JUMPDEST PUSH2 0x14F PUSH2 0x1F4 DUP2 JUMP JUMPDEST PUSH2 0x144 PUSH2 0x230 CALLDATASIZE PUSH1 0x4 PUSH2 0x1345 JUMP JUMPDEST PUSH2 0x5EE JUMP JUMPDEST PUSH2 0x25C PUSH32 0x0 DUP2 JUMP JUMPDEST PUSH1 0x40 MLOAD PUSH1 0x1 PUSH1 0x1 PUSH1 0xA0 SHL SUB SWAP1 SWAP2 AND DUP2 MSTORE PUSH1 0x20 ADD PUSH2 0x159 JUMP JUMPDEST PUSH2 0x14F PUSH1 0x64 DUP2 JUMP JUMPDEST PUSH2 0x14F PUSH8 0xDE0B6B3A7640000 DUP2 JUMP JUMPDEST PUSH2 0x144 PUSH2 0x299 CALLDATASIZE PUSH1 0x4 PUSH2 0x138E JUMP JUMPDEST PUSH2 0x78D JUMP JUMPDEST PUSH2 0x14F PUSH2 0x8DF JUMP JUMPDEST PUSH2 0x144 PUSH2 0x2B4 CALLDATASIZE PUSH1 0x4 PUSH2 0x138E JUMP JUMPDEST PUSH2 0x8EA JUMP JUMPDEST PUSH2 0x25C PUSH32 0x0 DUP2 JUMP JUMPDEST PUSH2 0x144 PUSH2 0x2EE CALLDATASIZE PUSH1 0x4 PUSH2 0x13BE JUMP JUMPDEST PUSH2 0x9FC JUMP JUMPDEST PUSH2 0x144 PUSH2 0x301 CALLDATASIZE PUSH1 0x4 PUSH2 0x1345 JUMP JUMPDEST PUSH2 0xD23 JUMP JUMPDEST PUSH2 0x319 PUSH2 0x314 CALLDATASIZE PUSH1 0x4 PUSH2 0x1345 JUMP JUMPDEST PUSH2 0xE85 JUMP JUMPDEST PUSH1 0x40 DUP1 MLOAD SWAP3 DUP4 MSTORE SWAP1 ISZERO ISZERO PUSH1 0x20 DUP4 ADD MSTORE ADD PUSH2 0x159 JUMP JUMPDEST PUSH2 0x144 PUSH2 0x33C CALLDATASIZE PUSH1 0x4 PUSH2 0x1345 JUMP JUMPDEST PUSH2 0xECE JUMP JUMPDEST PUSH2 0x349 PUSH2 0x114B JUMP JUMPDEST PUSH1 0x0 DUP2 DUP2 MSTORE PUSH1 0x1 PUSH1 0x20 DUP2 DUP2 MSTORE PUSH1 0x40 SWAP3 DUP4 SWAP1 KECCAK256 DUP4 MLOAD PUSH1 0xA0 DUP2 ADD DUP6 MSTORE DUP2 SLOAD PUSH1 0x1 PUSH1 0x1 PUSH1 0xA0 SHL SUB AND DUP1 DUP3 MSTORE SWAP4 DUP3 ADD SLOAD SWAP3 DUP2 ADD SWAP3 SWAP1 SWAP3 MSTORE PUSH1 0x2 DUP2 ADD SLOAD SWAP4 DUP3 ADD SWAP4 SWAP1 SWAP4 MSTORE PUSH1 0x3 DUP4 ADD SLOAD PUSH1 0x60 DUP3 ADD MSTORE PUSH1 0x4 SWAP1 SWAP3 ADD SLOAD PUSH1 0xFF AND ISZERO ISZERO PUSH1 0x80 DUP4 ADD MSTORE PUSH2 0x3BF JUMPI PUSH1 0x40 MLOAD PUSH4 0x6EC9BE11 PUSH1 0xE0 SHL DUP2 MSTORE PUSH1 0x4 ADD PUSH1 0x40 MLOAD DUP1 SWAP2 SUB SWAP1 REVERT JUMPDEST PUSH1 0x0 PUSH2 0x3CA DUP4 PUSH2 0x1175 JUMP JUMPDEST SWAP2 POP POP DUP1 ISZERO PUSH2 0x3EC JUMPI PUSH1 0x40 MLOAD PUSH4 0x6415F959 PUSH1 0xE0 SHL DUP2 MSTORE PUSH1 0x4 ADD PUSH1 0x40 MLOAD DUP1 SWAP2 SUB SWAP1 REVERT JUMPDEST PUSH1 0x0 PUSH32 0x0 PUSH1 0x1 PUSH1 0x1 PUSH1 0xA0 SHL SUB AND PUSH4 0x98D5FDCA PUSH1 0x40 MLOAD DUP2 PUSH4 0xFFFFFFFF AND PUSH1 0xE0 SHL DUP2 MSTORE PUSH1 0x4 ADD PUSH1 0x20 PUSH1 0x40 MLOAD DUP1 DUP4 SUB DUP2 DUP7 GAS STATICCALL ISZERO DUP1 ISZERO PUSH2 0x44C JUMPI RETURNDATASIZE PUSH1 0x0 DUP1 RETURNDATACOPY RETURNDATASIZE PUSH1 0x0 REVERT JUMPDEST POP POP POP POP PUSH1 0x40 MLOAD RETURNDATASIZE PUSH1 0x1F NOT PUSH1 0x1F DUP3 ADD AND DUP3 ADD DUP1 PUSH1 0x40 MSTORE POP DUP2 ADD SWAP1 PUSH2 0x470 SWAP2 SWAP1 PUSH2 0x13FF JUMP JUMPDEST SWAP1 POP PUSH1 0x0 PUSH8 0xDE0B6B3A7640000 DUP3 DUP6 PUSH1 0x20 ADD MLOAD PUSH2 0x48D SWAP2 SWAP1 PUSH2 0x142E JUMP JUMPDEST PUSH2 0x497 SWAP2 SWAP1 PUSH2 0x1461 JUMP JUMPDEST SWAP1 POP PUSH1 0x0 PUSH2 0x2710 PUSH2 0x4AA PUSH2 0x1F4 DUP5 PUSH2 0x142E JUMP JUMPDEST PUSH2 0x4B4 SWAP2 SWAP1 PUSH2 0x1461 JUMP JUMPDEST SWAP1 POP DUP5 PUSH1 0x40 ADD MLOAD DUP2 GT ISZERO PUSH2 0x4C9 JUMPI POP PUSH1 0x40 DUP5 ADD MLOAD JUMPDEST PUSH1 0x40 MLOAD PUSH4 0x40C10F19 PUSH1 0xE0 SHL DUP2 MSTORE CALLER PUSH1 0x4 DUP3 ADD MSTORE PUSH1 0x24 DUP2 ADD DUP3 SWAP1 MSTORE PUSH32 0x0 PUSH1 0x1 PUSH1 0x1 PUSH1 0xA0 SHL SUB AND SWAP1 PUSH4 0x40C10F19 SWAP1 PUSH1 0x44 ADD PUSH1 0x0 PUSH1 0x40 MLOAD DUP1 DUP4 SUB DUP2 PUSH1 0x0 DUP8 DUP1 EXTCODESIZE ISZERO DUP1 ISZERO PUSH2 0x531 JUMPI PUSH1 0x0 DUP1 REVERT JUMPDEST POP GAS CALL ISZERO DUP1 ISZERO PUSH2 0x545 JUMPI RETURNDATASIZE PUSH1 0x0 DUP1 RETURNDATACOPY RETURNDATASIZE PUSH1 0x0 REVERT JUMPDEST POP POP DUP7 MLOAD PUSH1 0x40 DUP1 MLOAD CALLER DUP2 MSTORE PUSH1 0x20 DUP2 ADD DUP7 SWAP1 MSTORE DUP11 SWAP5 POP PUSH1 0x1 PUSH1 0x1 PUSH1 0xA0 SHL SUB SWAP1 SWAP3 AND SWAP3 POP PUSH32 0x68762642199118230172033AE8BE4A7146720B6F48BAF220112A8B767C5071AB SWAP2 ADD PUSH1 0x40 MLOAD DUP1 SWAP2 SUB SWAP1 LOG3 POP POP POP PUSH1 0x0 DUP4 DUP2 MSTORE PUSH1 0x1 PUSH1 0x20 DUP2 SWAP1 MSTORE PUSH1 0x40 DUP3 KECCAK256 DUP1 SLOAD PUSH1 0x1 PUSH1 0x1 PUSH1 0xA0 SHL SUB NOT AND DUP2 SSTORE DUP1 DUP3 ADD DUP4 SWAP1 SSTORE PUSH1 0x2 DUP2 ADD DUP4 SWAP1 SSTORE PUSH1 0x3 DUP2 ADD DUP4 SWAP1 SSTORE PUSH1 0x4 ADD DUP1 SLOAD PUSH1 0xFF NOT AND SWAP1 SSTORE SWAP1 SSTORE POP PUSH2 0x5DC SWAP1 POP JUMP JUMPDEST POP JUMP JUMPDEST PUSH2 0x5EB PUSH1 0x64 PUSH1 0x1 PUSH2 0x142E JUMP JUMPDEST DUP2 JUMP JUMPDEST PUSH2 0x5F6 PUSH2 0x114B JUMP JUMPDEST DUP1 PUSH1 0x0 SUB PUSH2 0x617 JUMPI PUSH1 0x40 MLOAD PUSH4 0x162908E3 PUSH1 0xE1 SHL DUP2 MSTORE PUSH1 0x4 ADD PUSH1 0x40 MLOAD DUP1 SWAP2 SUB SWAP1 REVERT JUMPDEST CALLER PUSH1 0x0 SWAP1 DUP2 MSTORE PUSH1 0x2 PUSH1 0x20 MSTORE PUSH1 0x40 SWAP1 KECCAK256 SLOAD DUP2 GT ISZERO PUSH2 0x647 JUMPI PUSH1 0x40 MLOAD PUSH4 0x19A30291 PUSH1 0xE0 SHL DUP2 MSTORE PUSH1 0x4 ADD PUSH1 0x40 MLOAD DUP1 SWAP2 SUB SWAP1 REVERT JUMPDEST CALLER PUSH1 0x0 SWAP1 DUP2 MSTORE PUSH1 0x2 PUSH1 0x20 MSTORE PUSH1 0x40 DUP2 KECCAK256 DUP1 SLOAD DUP4 SWAP3 SWAP1 PUSH2 0x666 SWAP1 DUP5 SWAP1 PUSH2 0x1475 JUMP JUMPDEST SWAP1 SWAP2 SSTORE POP POP PUSH1 0x40 MLOAD PUSH4 0xA9059CBB PUSH1 0xE0 SHL DUP2 MSTORE CALLER PUSH1 0x4 DUP3 ADD MSTORE PUSH1 0x24 DUP2 ADD DUP3 SWAP1 MSTORE PUSH32 0x0 PUSH1 0x1 PUSH1 0x1 PUSH1 0xA0 SHL SUB AND SWAP1 PUSH4 0xA9059CBB SWAP1 PUSH1 0x44 ADD PUSH1 0x20 PUSH1 0x40 MLOAD DUP1 DUP4 SUB DUP2 PUSH1 0x0 DUP8 GAS CALL ISZERO DUP1 ISZERO PUSH2 0x6D8 JUMPI RETURNDATASIZE PUSH1 0x0 DUP1 RETURNDATACOPY RETURNDATASIZE PUSH1 0x0 REVERT JUMPDEST POP POP POP POP PUSH1 0x40 MLOAD RETURNDATASIZE PUSH1 0x1F NOT PUSH1 0x1F DUP3 ADD AND DUP3 ADD DUP1 PUSH1 0x40 MSTORE POP DUP2 ADD SWAP1 PUSH2 0x6FC SWAP2 SWAP1 PUSH2 0x1488 JUMP JUMPDEST PUSH2 0x74D JUMPI PUSH1 0x40 MLOAD PUSH3 0x461BCD PUSH1 0xE5 SHL DUP2 MSTORE PUSH1 0x20 PUSH1 0x4 DUP3 ADD MSTORE PUSH1 0x1A PUSH1 0x24 DUP3 ADD MSTORE PUSH32 0x436F6C6C61746572616C207472616E73666572206661696C6564000000000000 PUSH1 0x44 DUP3 ADD MSTORE PUSH1 0x64 ADD JUMPDEST PUSH1 0x40 MLOAD DUP1 SWAP2 SUB SWAP1 REVERT JUMPDEST PUSH1 0x40 MLOAD DUP2 DUP2 MSTORE CALLER SWAP1 PUSH32 0xC30FCFBCAAC9E0DEFFA719714EAA82396FF506A0D0D0EEBE170830177288715D SWAP1 PUSH1 0x20 ADD JUMPDEST PUSH1 0x40 MLOAD DUP1 SWAP2 SUB SWAP1 LOG2 PUSH2 0x5DC PUSH1 0x1 PUSH1 0x0 SSTORE JUMP JUMPDEST PUSH2 0x795 PUSH2 0x114B JUMP JUMPDEST DUP1 PUSH1 0x0 SUB PUSH2 0x7B6 JUMPI PUSH1 0x40 MLOAD PUSH4 0x162908E3 PUSH1 0xE1 SHL DUP2 MSTORE PUSH1 0x4 ADD PUSH1 0x40 MLOAD DUP1 SWAP2 SUB SWAP1 REVERT JUMPDEST PUSH1 0x0 DUP3 DUP2 MSTORE PUSH1 0x1 PUSH1 0x20 MSTORE PUSH1 0x40 SWAP1 KECCAK256 DUP1 SLOAD PUSH1 0x1 PUSH1 0x1 PUSH1 0xA0 SHL SUB AND CALLER EQ PUSH2 0x7EE JUMPI PUSH1 0x40 MLOAD PUSH4 0x70D645E3 PUSH1 0xE0 SHL DUP2 MSTORE PUSH1 0x4 ADD PUSH1 0x40 MLOAD DUP1 SWAP2 SUB SWAP1 REVERT JUMPDEST DUP1 PUSH1 0x2 ADD SLOAD DUP3 GT ISZERO PUSH2 0x813 JUMPI PUSH1 0x40 MLOAD PUSH4 0x162908E3 PUSH1 0xE1 SHL DUP2 MSTORE PUSH1 0x4 ADD PUSH1 0x40 MLOAD DUP1 SWAP2 SUB SWAP1 REVERT JUMPDEST DUP2 DUP2 PUSH1 0x2 ADD PUSH1 0x0 DUP3 DUP3 SLOAD PUSH2 0x827 SWAP2 SWAP1 PUSH2 0x1475 JUMP JUMPDEST SWAP1 SWAP2 SSTORE POP PUSH1 0x0 SWAP1 POP PUSH2 0x838 DUP5 PUSH2 0x1175 JUMP JUMPDEST SWAP2 POP POP DUP1 PUSH2 0x874 JUMPI DUP3 DUP3 PUSH1 0x2 ADD PUSH1 0x0 DUP3 DUP3 SLOAD PUSH2 0x854 SWAP2 SWAP1 PUSH2 0x14A5 JUMP JUMPDEST SWAP3 POP POP DUP2 SWAP1 SSTORE POP PUSH1 0x40 MLOAD PUSH4 0x4C568085 PUSH1 0xE1 SHL DUP2 MSTORE PUSH1 0x4 ADD PUSH1 0x40 MLOAD DUP1 SWAP2 SUB SWAP1 REVERT JUMPDEST CALLER PUSH1 0x0 SWAP1 DUP2 MSTORE PUSH1 0x2 PUSH1 0x20 MSTORE PUSH1 0x40 DUP2 KECCAK256 DUP1 SLOAD DUP6 SWAP3 SWAP1 PUSH2 0x893 SWAP1 DUP5 SWAP1 PUSH2 0x14A5 JUMP JUMPDEST SWAP1 SWAP2 SSTORE POP POP PUSH1 0x40 MLOAD DUP4 DUP2 MSTORE DUP5 SWAP1 CALLER SWAP1 PUSH32 0x4C88D632ED7D743D1AE51ADD8D5C8DA1CDE21C1EF7AF661E8C6813CB434FF118 SWAP1 PUSH1 0x20 ADD PUSH1 0x40 MLOAD DUP1 SWAP2 SUB SWAP1 LOG3 POP POP PUSH2 0x8DB PUSH1 0x1 PUSH1 0x0 SSTORE JUMP JUMPDEST POP POP JUMP JUMPDEST PUSH2 0x5EB PUSH1 0x64 DUP1 PUSH2 0x142E JUMP JUMPDEST PUSH2 0x8F2 PUSH2 0x114B JUMP JUMPDEST DUP1 PUSH1 0x0 SUB PUSH2 0x913 JUMPI PUSH1 0x40 MLOAD PUSH4 0x162908E3 PUSH1 0xE1 SHL DUP2 MSTORE PUSH1 0x4 ADD PUSH1 0x40 MLOAD DUP1 SWAP2 SUB SWAP1 REVERT JUMPDEST PUSH1 0x0 DUP3 DUP2 MSTORE PUSH1 0x1 PUSH1 0x20 MSTORE PUSH1 0x40 SWAP1 KECCAK256 DUP1 SLOAD PUSH1 0x1 PUSH1 0x1 PUSH1 0xA0 SHL SUB AND CALLER EQ PUSH2 0x94B JUMPI PUSH1 0x40 MLOAD PUSH4 0x70D645E3 PUSH1 0xE0 SHL DUP2 MSTORE PUSH1 0x4 ADD PUSH1 0x40 MLOAD DUP1 SWAP2 SUB SWAP1 REVERT JUMPDEST CALLER PUSH1 0x0 SWAP1 DUP2 MSTORE PUSH1 0x2 PUSH1 0x20 MSTORE PUSH1 0x40 SWAP1 KECCAK256 SLOAD DUP3 GT ISZERO PUSH2 0x97B JUMPI PUSH1 0x40 MLOAD PUSH4 0x19A30291 PUSH1 0xE0 SHL DUP2 MSTORE PUSH1 0x4 ADD PUSH1 0x40 MLOAD DUP1 SWAP2 SUB SWAP1 REVERT JUMPDEST CALLER PUSH1 0x0 SWAP1 DUP2 MSTORE PUSH1 0x2 PUSH1 0x20 MSTORE PUSH1 0x40 DUP2 KECCAK256 DUP1 SLOAD DUP5 SWAP3 SWAP1 PUSH2 0x99A SWAP1 DUP5 SWAP1 PUSH2 0x1475 JUMP JUMPDEST SWAP3 POP POP DUP2 SWAP1 SSTORE POP DUP2 DUP2 PUSH1 0x2 ADD PUSH1 0x0 DUP3 DUP3 SLOAD PUSH2 0x9B5 SWAP2 SWAP1 PUSH2 0x14A5 JUMP JUMPDEST SWAP1 SWAP2 SSTORE POP POP PUSH1 0x40 MLOAD DUP3 DUP2 MSTORE DUP4 SWAP1 CALLER SWAP1 PUSH32 0x57AB4C4D40A32AD167254AD966D3295C6B75A4B4BE6F5B76B6AC9DF41C29839E SWAP1 PUSH1 0x20 ADD PUSH1 0x40 MLOAD DUP1 SWAP2 SUB SWAP1 LOG3 POP PUSH2 0x8DB PUSH1 0x1 PUSH1 0x0 SSTORE JUMP JUMPDEST PUSH2 0xA04 PUSH2 0x114B JUMP JUMPDEST PUSH1 0x0 DUP5 DUP2 MSTORE PUSH1 0x1 PUSH1 0x20 MSTORE PUSH1 0x40 SWAP1 KECCAK256 SLOAD PUSH1 0x1 PUSH1 0x1 PUSH1 0xA0 SHL SUB AND ISZERO PUSH2 0xA3A JUMPI PUSH1 0x40 MLOAD PUSH4 0x384E583F PUSH1 0xE1 SHL DUP2 MSTORE PUSH1 0x4 ADD PUSH1 0x40 MLOAD DUP1 SWAP2 SUB SWAP1 REVERT JUMPDEST DUP3 PUSH1 0x0 SUB PUSH2 0xA5B JUMPI PUSH1 0x40 MLOAD PUSH4 0x162908E3 PUSH1 0xE1 SHL DUP2 MSTORE PUSH1 0x4 ADD PUSH1 0x40 MLOAD DUP1 SWAP2 SUB SWAP1 REVERT JUMPDEST PUSH2 0xA67 PUSH1 0x64 PUSH1 0x1 PUSH2 0x142E JUMP JUMPDEST DUP3 LT DUP1 PUSH2 0xA7D JUMPI POP PUSH2 0xA7A PUSH1 0x64 DUP1 PUSH2 0x142E JUMP JUMPDEST DUP3 GT JUMPDEST ISZERO PUSH2 0xA9B JUMPI PUSH1 0x40 MLOAD PUSH4 0x3FE89CB9 PUSH1 0xE1 SHL DUP2 MSTORE PUSH1 0x4 ADD PUSH1 0x40 MLOAD DUP1 SWAP2 SUB SWAP1 REVERT JUMPDEST CALLER PUSH1 0x0 SWAP1 DUP2 MSTORE PUSH1 0x2 PUSH1 0x20 MSTORE PUSH1 0x40 SWAP1 KECCAK256 SLOAD DUP4 GT ISZERO PUSH2 0xACB JUMPI PUSH1 0x40 MLOAD PUSH4 0x19A30291 PUSH1 0xE0 SHL DUP2 MSTORE PUSH1 0x4 ADD PUSH1 0x40 MLOAD DUP1 SWAP2 SUB SWAP1 REVERT JUMPDEST CALLER PUSH1 0x0 SWAP1 DUP2 MSTORE PUSH1 0x2 PUSH1 0x20 MSTORE PUSH1 0x40 DUP2 KECCAK256 DUP1 SLOAD DUP6 SWAP3 SWAP1 PUSH2 0xAEA SWAP1 DUP5 SWAP1 PUSH2 0x1475 JUMP JUMPDEST SWAP1 SWAP2 SSTORE POP PUSH1 0x0 SWAP1 POP PUSH1 0x64 PUSH2 0xAFE DUP5 DUP7 PUSH2 0x142E JUMP JUMPDEST PUSH2 0xB08 SWAP2 SWAP1 PUSH2 0x1461 JUMP JUMPDEST SWAP1 POP PUSH1 0x0 PUSH2 0x2710 PUSH2 0xB1A PUSH1 0xA DUP5 PUSH2 0x142E JUMP JUMPDEST PUSH2 0xB24 SWAP2 SWAP1 PUSH2 0x1461 JUMP JUMPDEST SWAP1 POP DUP5 DUP2 LT PUSH2 0xB46 JUMPI PUSH1 0x40 MLOAD PUSH4 0x19A30291 PUSH1 0xE0 SHL DUP2 MSTORE PUSH1 0x4 ADD PUSH1 0x40 MLOAD DUP1 SWAP2 SUB SWAP1 REVERT JUMPDEST PUSH1 0x0 PUSH2 0xB52 DUP3 DUP8 PUSH2 0x1475 JUMP JUMPDEST SWAP1 POP PUSH1 0x0 PUSH32 0x0 PUSH1 0x1 PUSH1 0x1 PUSH1 0xA0 SHL SUB AND PUSH4 0x98D5FDCA PUSH1 0x40 MLOAD DUP2 PUSH4 0xFFFFFFFF AND PUSH1 0xE0 SHL DUP2 MSTORE PUSH1 0x4 ADD PUSH1 0x20 PUSH1 0x40 MLOAD DUP1 DUP4 SUB DUP2 DUP7 GAS STATICCALL ISZERO DUP1 ISZERO PUSH2 0xBB4 JUMPI RETURNDATASIZE PUSH1 0x0 DUP1 RETURNDATACOPY RETURNDATASIZE PUSH1 0x0 REVERT JUMPDEST POP POP POP POP PUSH1 0x40 MLOAD RETURNDATASIZE PUSH1 0x1F NOT PUSH1 0x1F DUP3 ADD AND DUP3 ADD DUP1 PUSH1 0x40 MSTORE POP DUP2 ADD SWAP1 PUSH2 0xBD8 SWAP2 SWAP1 PUSH2 0x13FF JUMP JUMPDEST SWAP1 POP PUSH1 0x0 DUP2 PUSH2 0xBEF PUSH8 0xDE0B6B3A7640000 DUP8 PUSH2 0x142E JUMP JUMPDEST PUSH2 0xBF9 SWAP2 SWAP1 PUSH2 0x1461 JUMP JUMPDEST SWAP1 POP PUSH1 0x40 MLOAD DUP1 PUSH1 0xA0 ADD PUSH1 0x40 MSTORE DUP1 CALLER PUSH1 0x1 PUSH1 0x1 PUSH1 0xA0 SHL SUB AND DUP2 MSTORE PUSH1 0x20 ADD DUP3 DUP2 MSTORE PUSH1 0x20 ADD DUP5 DUP2 MSTORE PUSH1 0x20 ADD DUP4 DUP2 MSTORE PUSH1 0x20 ADD DUP8 ISZERO ISZERO DUP2 MSTORE POP PUSH1 0x1 PUSH1 0x0 DUP12 DUP2 MSTORE PUSH1 0x20 ADD SWAP1 DUP2 MSTORE PUSH1 0x20 ADD PUSH1 0x0 KECCAK256 PUSH1 0x0 DUP3 ADD MLOAD DUP2 PUSH1 0x0 ADD PUSH1 0x0 PUSH2 0x100 EXP DUP2 SLOAD DUP2 PUSH1 0x1 PUSH1 0x1 PUSH1 0xA0 SHL SUB MUL NOT AND SWAP1 DUP4 PUSH1 0x1 PUSH1 0x1 PUSH1 0xA0 SHL SUB AND MUL OR SWAP1 SSTORE POP PUSH1 0x20 DUP3 ADD MLOAD DUP2 PUSH1 0x1 ADD SSTORE PUSH1 0x40 DUP3 ADD MLOAD DUP2 PUSH1 0x2 ADD SSTORE PUSH1 0x60 DUP3 ADD MLOAD DUP2 PUSH1 0x3 ADD SSTORE PUSH1 0x80 DUP3 ADD MLOAD DUP2 PUSH1 0x4 ADD PUSH1 0x0 PUSH2 0x100 EXP DUP2 SLOAD DUP2 PUSH1 0xFF MUL NOT AND SWAP1 DUP4 ISZERO ISZERO MUL OR SWAP1 SSTORE POP SWAP1 POP POP DUP9 CALLER PUSH1 0x1 PUSH1 0x1 PUSH1 0xA0 SHL SUB AND PUSH32 0x324EF3166469CD2236E5B0F010D2405657F3529877F4CCFA1F9F79FB60ED461E DUP4 DUP7 DUP11 DUP8 PUSH1 0x40 MLOAD PUSH2 0xD06 SWAP5 SWAP4 SWAP3 SWAP2 SWAP1 SWAP4 DUP5 MSTORE PUSH1 0x20 DUP5 ADD SWAP3 SWAP1 SWAP3 MSTORE ISZERO ISZERO PUSH1 0x40 DUP4 ADD MSTORE PUSH1 0x60 DUP3 ADD MSTORE PUSH1 0x80 ADD SWAP1 JUMP JUMPDEST PUSH1 0x40 MLOAD DUP1 SWAP2 SUB SWAP1 LOG3 POP POP POP POP POP PUSH2 0xD1D PUSH1 0x1 PUSH1 0x0 SSTORE JUMP JUMPDEST POP POP POP POP JUMP JUMPDEST PUSH2 0xD2B PUSH2 0x114B JUMP JUMPDEST DUP1 PUSH1 0x0 SUB PUSH2 0xD4C JUMPI PUSH1 0x40 MLOAD PUSH4 0x162908E3 PUSH1 0xE1 SHL DUP2 MSTORE PUSH1 0x4 ADD PUSH1 0x40 MLOAD DUP1 SWAP2 SUB SWAP1 REVERT JUMPDEST CALLER PUSH1 0x0 SWAP1 DUP2 MSTORE PUSH1 0x2 PUSH1 0x20 MSTORE PUSH1 0x40 DUP2 KECCAK256 DUP1 SLOAD DUP4 SWAP3 SWAP1 PUSH2 0xD6B SWAP1 DUP5 SWAP1 PUSH2 0x14A5 JUMP JUMPDEST SWAP1 SWAP2 SSTORE POP POP PUSH1 0x40 MLOAD PUSH4 0x23B872DD PUSH1 0xE0 SHL DUP2 MSTORE CALLER PUSH1 0x4 DUP3 ADD MSTORE ADDRESS PUSH1 0x24 DUP3 ADD MSTORE PUSH1 0x44 DUP2 ADD DUP3 SWAP1 MSTORE PUSH32 0x0 PUSH1 0x1 PUSH1 0x1 PUSH1 0xA0 SHL SUB AND SWAP1 PUSH4 0x23B872DD SWAP1 PUSH1 0x64 ADD PUSH1 0x20 PUSH1 0x40 MLOAD DUP1 DUP4 SUB DUP2 PUSH1 0x0 DUP8 GAS CALL ISZERO DUP1 ISZERO PUSH2 0xDE3 JUMPI RETURNDATASIZE PUSH1 0x0 DUP1 RETURNDATACOPY RETURNDATASIZE PUSH1 0x0 REVERT JUMPDEST POP POP POP POP PUSH1 0x40 MLOAD RETURNDATASIZE PUSH1 0x1F NOT PUSH1 0x1F DUP3 ADD AND DUP3 ADD DUP1 PUSH1 0x40 MSTORE POP DUP2 ADD SWAP1 PUSH2 0xE07 SWAP2 SWAP1 PUSH2 0x1488 JUMP JUMPDEST PUSH2 0xE53 JUMPI PUSH1 0x40 MLOAD PUSH3 0x461BCD PUSH1 0xE5 SHL DUP2 MSTORE PUSH1 0x20 PUSH1 0x4 DUP3 ADD MSTORE PUSH1 0x1A PUSH1 0x24 DUP3 ADD MSTORE PUSH32 0x436F6C6C61746572616C207472616E73666572206661696C6564000000000000 PUSH1 0x44 DUP3 ADD MSTORE PUSH1 0x64 ADD PUSH2 0x744 JUMP JUMPDEST PUSH1 0x40 MLOAD DUP2 DUP2 MSTORE CALLER SWAP1 PUSH32 0xD7243F6F8212D5188FD054141CF6EA89CFC0D91FACB8C3AFE2F88A1358480142 SWAP1 PUSH1 0x20 ADD PUSH2 0x77B JUMP JUMPDEST PUSH1 0x0 DUP2 DUP2 MSTORE PUSH1 0x1 PUSH1 0x20 MSTORE PUSH1 0x40 DUP2 KECCAK256 SLOAD DUP2 SWAP1 PUSH1 0x1 PUSH1 0x1 PUSH1 0xA0 SHL SUB AND PUSH2 0xEBC JUMPI PUSH1 0x40 MLOAD PUSH4 0x6EC9BE11 PUSH1 0xE0 SHL DUP2 MSTORE PUSH1 0x4 ADD PUSH1 0x40 MLOAD DUP1 SWAP2 SUB SWAP1 REVERT JUMPDEST PUSH2 0xEC5 DUP4 PUSH2 0x1175 JUMP JUMPDEST SWAP2 POP SWAP2 POP SWAP2 POP SWAP2 JUMP JUMPDEST PUSH2 0xED6 PUSH2 0x114B JUMP JUMPDEST PUSH1 0x0 DUP2 DUP2 MSTORE PUSH1 0x1 PUSH1 0x20 MSTORE PUSH1 0x40 SWAP1 KECCAK256 DUP1 SLOAD PUSH1 0x1 PUSH1 0x1 PUSH1 0xA0 SHL SUB AND CALLER EQ PUSH2 0xF0E JUMPI PUSH1 0x40 MLOAD PUSH4 0x70D645E3 PUSH1 0xE0 SHL DUP2 MSTORE PUSH1 0x4 ADD PUSH1 0x40 MLOAD DUP1 SWAP2 SUB SWAP1 REVERT JUMPDEST PUSH1 0x0 PUSH2 0xF19 DUP4 PUSH2 0x1175 JUMP JUMPDEST POP SWAP1 POP PUSH1 0x0 PUSH32 0x0 PUSH1 0x1 PUSH1 0x1 PUSH1 0xA0 SHL SUB AND PUSH4 0x98D5FDCA PUSH1 0x40 MLOAD DUP2 PUSH4 0xFFFFFFFF AND PUSH1 0xE0 SHL DUP2 MSTORE PUSH1 0x4 ADD PUSH1 0x20 PUSH1 0x40 MLOAD DUP1 DUP4 SUB DUP2 DUP7 GAS STATICCALL ISZERO DUP1 ISZERO PUSH2 0xF7C JUMPI RETURNDATASIZE PUSH1 0x0 DUP1 RETURNDATACOPY RETURNDATASIZE PUSH1 0x0 REVERT JUMPDEST POP POP POP POP PUSH1 0x40 MLOAD RETURNDATASIZE PUSH1 0x1F NOT PUSH1 0x1F DUP3 ADD AND DUP3 ADD DUP1 PUSH1 0x40 MSTORE POP DUP2 ADD SWAP1 PUSH2 0xFA0 SWAP2 SWAP1 PUSH2 0x13FF JUMP JUMPDEST SWAP1 POP PUSH1 0x0 PUSH8 0xDE0B6B3A7640000 DUP3 DUP6 PUSH1 0x1 ADD SLOAD PUSH2 0xFBD SWAP2 SWAP1 PUSH2 0x142E JUMP JUMPDEST PUSH2 0xFC7 SWAP2 SWAP1 PUSH2 0x1461 JUMP JUMPDEST SWAP1 POP PUSH1 0x0 PUSH2 0x2710 PUSH2 0xFD9 PUSH1 0xA DUP5 PUSH2 0x142E JUMP JUMPDEST PUSH2 0xFE3 SWAP2 SWAP1 PUSH2 0x1461 JUMP JUMPDEST SWAP1 POP PUSH1 0x0 PUSH2 0xFF1 DUP3 DUP7 PUSH2 0x14B8 JUMP JUMPDEST SWAP1 POP PUSH1 0x0 DUP2 DUP8 PUSH1 0x2 ADD SLOAD PUSH2 0x1005 SWAP2 SWAP1 PUSH2 0x14DF JUMP JUMPDEST SWAP1 POP PUSH1 0x0 DUP3 SGT ISZERO PUSH2 0x1091 JUMPI PUSH1 0x40 MLOAD PUSH4 0x40C10F19 PUSH1 0xE0 SHL DUP2 MSTORE ADDRESS PUSH1 0x4 DUP3 ADD MSTORE PUSH1 0x24 DUP2 ADD DUP4 SWAP1 MSTORE PUSH32 0x0 PUSH1 0x1 PUSH1 0x1 PUSH1 0xA0 SHL SUB AND SWAP1 PUSH4 0x40C10F19 SWAP1 PUSH1 0x44 ADD PUSH1 0x0 PUSH1 0x40 MLOAD DUP1 DUP4 SUB DUP2 PUSH1 0x0 DUP8 DUP1 EXTCODESIZE ISZERO DUP1 ISZERO PUSH2 0x1078 JUMPI PUSH1 0x0 DUP1 REVERT JUMPDEST POP GAS CALL ISZERO DUP1 ISZERO PUSH2 0x108C JUMPI RETURNDATASIZE PUSH1 0x0 DUP1 RETURNDATACOPY RETURNDATASIZE PUSH1 0x0 REVERT JUMPDEST POP POP POP POP JUMPDEST PUSH1 0x0 DUP2 SGT ISZERO PUSH2 0x10BF JUMPI CALLER PUSH1 0x0 SWAP1 DUP2 MSTORE PUSH1 0x2 PUSH1 0x20 MSTORE PUSH1 0x40 DUP2 KECCAK256 DUP1 SLOAD DUP4 SWAP3 SWAP1 PUSH2 0x10B9 SWAP1 DUP5 SWAP1 PUSH2 0x14A5 JUMP JUMPDEST SWAP1 SWAP2 SSTORE POP POP JUMPDEST PUSH1 0x40 DUP1 MLOAD DUP8 DUP2 MSTORE PUSH1 0x20 DUP2 ADD DUP6 SWAP1 MSTORE DUP10 SWAP2 CALLER SWAP2 PUSH32 0x1D9566953522DCF767C20A24ED70FBA750E27E2EDFEBB58305732E318DD88077 SWAP2 ADD PUSH1 0x40 MLOAD DUP1 SWAP2 SUB SWAP1 LOG3 POP POP POP PUSH1 0x0 DUP6 DUP2 MSTORE PUSH1 0x1 PUSH1 0x20 DUP2 SWAP1 MSTORE PUSH1 0x40 DUP3 KECCAK256 DUP1 SLOAD PUSH1 0x1 PUSH1 0x1 PUSH1 0xA0 SHL SUB NOT AND DUP2 SSTORE SWAP1 DUP2 ADD DUP3 SWAP1 SSTORE PUSH1 0x2 DUP2 ADD DUP3 SWAP1 SSTORE PUSH1 0x3 DUP2 ADD SWAP2 SWAP1 SWAP2 SSTORE PUSH1 0x4 ADD DUP1 SLOAD PUSH1 0xFF NOT AND SWAP1 SSTORE POP PUSH2 0x5DC SWAP3 POP PUSH2 0x133E SWAP2 POP POP JUMP JUMPDEST PUSH1 0x2 PUSH1 0x0 SLOAD SUB PUSH2 0x116E JUMPI PUSH1 0x40 MLOAD PUSH4 0x3EE5AEB5 PUSH1 0xE0 SHL DUP2 MSTORE PUSH1 0x4 ADD PUSH1 0x40 MLOAD DUP1 SWAP2 SUB SWAP1 REVERT JUMPDEST PUSH1 0x2 PUSH1 0x0 SSTORE JUMP JUMPDEST PUSH1 0x0 DUP2 DUP2 MSTORE PUSH1 0x1 PUSH1 0x20 DUP2 DUP2 MSTORE PUSH1 0x40 DUP1 DUP5 KECCAK256 DUP2 MLOAD PUSH1 0xA0 DUP2 ADD DUP4 MSTORE DUP2 SLOAD PUSH1 0x1 PUSH1 0x1 PUSH1 0xA0 SHL SUB AND DUP1 DUP3 MSTORE SWAP5 DUP3 ADD SLOAD SWAP4 DUP2 ADD SWAP4 SWAP1 SWAP4 MSTORE PUSH1 0x2 DUP2 ADD SLOAD SWAP2 DUP4 ADD SWAP2 SWAP1 SWAP2 MSTORE PUSH1 0x3 DUP2 ADD SLOAD PUSH1 0x60 DUP4 ADD MSTORE PUSH1 0x4 ADD SLOAD PUSH1 0xFF AND ISZERO ISZERO PUSH1 0x80 DUP3 ADD MSTORE DUP3 SWAP2 PUSH2 0x11DE JUMPI POP PUSH1 0x0 SWAP4 PUSH1 0x1 SWAP4 POP SWAP2 POP POP JUMP JUMPDEST PUSH1 0x0 PUSH32 0x0 PUSH1 0x1 PUSH1 0x1 PUSH1 0xA0 SHL SUB AND PUSH4 0x98D5FDCA PUSH1 0x40 MLOAD DUP2 PUSH4 0xFFFFFFFF AND PUSH1 0xE0 SHL DUP2 MSTORE PUSH1 0x4 ADD PUSH1 0x20 PUSH1 0x40 MLOAD DUP1 DUP4 SUB DUP2 DUP7 GAS STATICCALL ISZERO DUP1 ISZERO PUSH2 0x123E JUMPI RETURNDATASIZE PUSH1 0x0 DUP1 RETURNDATACOPY RETURNDATASIZE PUSH1 0x0 REVERT JUMPDEST POP POP POP POP PUSH1 0x40 MLOAD RETURNDATASIZE PUSH1 0x1F NOT PUSH1 0x1F DUP3 ADD AND DUP3 ADD DUP1 PUSH1 0x40 MSTORE POP DUP2 ADD SWAP1 PUSH2 0x1262 SWAP2 SWAP1 PUSH2 0x13FF JUMP JUMPDEST PUSH1 0x60 DUP4 ADD MLOAD PUSH1 0x80 DUP5 ADD MLOAD SWAP2 SWAP3 POP SWAP1 ISZERO PUSH2 0x12A9 JUMPI PUSH1 0x20 DUP4 ADD MLOAD PUSH8 0xDE0B6B3A7640000 SWAP1 PUSH2 0x128E DUP4 DUP6 PUSH2 0x14B8 JUMP JUMPDEST PUSH2 0x1298 SWAP2 SWAP1 PUSH2 0x1507 JUMP JUMPDEST PUSH2 0x12A2 SWAP2 SWAP1 PUSH2 0x1537 JUMP JUMPDEST SWAP5 POP PUSH2 0x12D9 JUMP JUMPDEST PUSH1 0x20 DUP4 ADD MLOAD PUSH8 0xDE0B6B3A7640000 SWAP1 PUSH2 0x12C2 DUP5 DUP5 PUSH2 0x14B8 JUMP JUMPDEST PUSH2 0x12CC SWAP2 SWAP1 PUSH2 0x1507 JUMP JUMPDEST PUSH2 0x12D6 SWAP2 SWAP1 PUSH2 0x1537 JUMP JUMPDEST SWAP5 POP JUMPDEST PUSH1 0x0 DUP6 DUP5 PUSH1 0x40 ADD MLOAD PUSH2 0x12EB SWAP2 SWAP1 PUSH2 0x14DF JUMP JUMPDEST SWAP1 POP PUSH1 0x0 PUSH8 0xDE0B6B3A7640000 DUP5 DUP7 PUSH1 0x20 ADD MLOAD PUSH2 0x1308 SWAP2 SWAP1 PUSH2 0x142E JUMP JUMPDEST PUSH2 0x1312 SWAP2 SWAP1 PUSH2 0x1461 JUMP JUMPDEST SWAP1 POP PUSH1 0x0 PUSH2 0x2710 PUSH2 0x1324 PUSH1 0xF5 DUP5 PUSH2 0x142E JUMP JUMPDEST PUSH2 0x132E SWAP2 SWAP1 PUSH2 0x1461 JUMP JUMPDEST SWAP8 SWAP10 SWAP8 SWAP1 SWAP3 SGT SWAP8 POP POP POP POP POP POP POP JUMP JUMPDEST PUSH1 0x1 PUSH1 0x0 SSTORE JUMP JUMPDEST PUSH1 0x0 PUSH1 0x20 DUP3 DUP5 SUB SLT ISZERO PUSH2 0x1357 JUMPI PUSH1 0x0 DUP1 REVERT JUMPDEST POP CALLDATALOAD SWAP2 SWAP1 POP JUMP JUMPDEST PUSH1 0x0 PUSH1 0x20 DUP3 DUP5 SUB SLT ISZERO PUSH2 0x1370 JUMPI PUSH1 0x0 DUP1 REVERT JUMPDEST DUP2 CALLDATALOAD PUSH1 0x1 PUSH1 0x1 PUSH1 0xA0 SHL SUB DUP2 AND DUP2 EQ PUSH2 0x1387 JUMPI PUSH1 0x0 DUP1 REVERT JUMPDEST SWAP4 SWAP3 POP POP POP JUMP JUMPDEST PUSH1 0x0 DUP1 PUSH1 0x40 DUP4 DUP6 SUB SLT ISZERO PUSH2 0x13A1 JUMPI PUSH1 0x0 DUP1 REVERT JUMPDEST POP POP DUP1 CALLDATALOAD SWAP3 PUSH1 0x20 SWAP1 SWAP2 ADD CALLDATALOAD SWAP2 POP JUMP JUMPDEST DUP1 ISZERO ISZERO DUP2 EQ PUSH2 0x5DC JUMPI PUSH1 0x0 DUP1 REVERT JUMPDEST PUSH1 0x0 DUP1 PUSH1 0x0 DUP1 PUSH1 0x80 DUP6 DUP8 SUB SLT ISZERO PUSH2 0x13D4 JUMPI PUSH1 0x0 DUP1 REVERT JUMPDEST DUP5 CALLDATALOAD SWAP4 POP PUSH1 0x20 DUP6 ADD CALLDATALOAD SWAP3 POP PUSH1 0x40 DUP6 ADD CALLDATALOAD SWAP2 POP PUSH1 0x60 DUP6 ADD CALLDATALOAD PUSH2 0x13F4 DUP2 PUSH2 0x13B0 JUMP JUMPDEST SWAP4 SWAP7 SWAP3 SWAP6 POP SWAP1 SWAP4 POP POP JUMP JUMPDEST PUSH1 0x0 PUSH1 0x20 DUP3 DUP5 SUB SLT ISZERO PUSH2 0x1411 JUMPI PUSH1 0x0 DUP1 REVERT JUMPDEST POP MLOAD SWAP2 SWAP1 POP JUMP JUMPDEST PUSH4 0x4E487B71 PUSH1 0xE0 SHL PUSH1 0x0 MSTORE PUSH1 0x11 PUSH1 0x4 MSTORE PUSH1 0x24 PUSH1 0x0 REVERT JUMPDEST DUP1 DUP3 MUL DUP2 ISZERO DUP3 DUP3 DIV DUP5 EQ OR PUSH2 0x1445 JUMPI PUSH2 0x1445 PUSH2 0x1418 JUMP JUMPDEST SWAP3 SWAP2 POP POP JUMP JUMPDEST PUSH4 0x4E487B71 PUSH1 0xE0 SHL PUSH1 0x0 MSTORE PUSH1 0x12 PUSH1 0x4 MSTORE PUSH1 0x24 PUSH1 0x0 REVERT JUMPDEST PUSH1 0x0 DUP3 PUSH2 0x1470 JUMPI PUSH2 0x1470 PUSH2 0x144B JUMP JUMPDEST POP DIV SWAP1 JUMP JUMPDEST DUP2 DUP2 SUB DUP2 DUP2 GT ISZERO PUSH2 0x1445 JUMPI PUSH2 0x1445 PUSH2 0x1418 JUMP JUMPDEST PUSH1 0x0 PUSH1 0x20 DUP3 DUP5 SUB SLT ISZERO PUSH2 0x149A JUMPI PUSH1 0x0 DUP1 REVERT JUMPDEST DUP2 MLOAD PUSH2 0x1387 DUP2 PUSH2 0x13B0 JUMP JUMPDEST DUP1 DUP3 ADD DUP1 DUP3 GT ISZERO PUSH2 0x1445 JUMPI PUSH2 0x1445 PUSH2 0x1418 JUMP JUMPDEST DUP2 DUP2 SUB PUSH1 0x0 DUP4 SLT DUP1 ISZERO DUP4 DUP4 SGT AND DUP4 DUP4 SLT DUP3 AND OR ISZERO PUSH2 0x14D8 JUMPI PUSH2 0x14D8 PUSH2 0x1418 JUMP JUMPDEST POP SWAP3 SWAP2 POP POP JUMP JUMPDEST DUP1 DUP3 ADD DUP3 DUP2 SLT PUSH1 0x0 DUP4 SLT DUP1 ISZERO DUP3 AND DUP3 ISZERO DUP3 AND OR ISZERO PUSH2 0x14FF JUMPI PUSH2 0x14FF PUSH2 0x1418 JUMP JUMPDEST POP POP SWAP3 SWAP2 POP POP JUMP JUMPDEST DUP1 DUP3 MUL PUSH1 0x0 DUP3 SLT PUSH1 0x1 PUSH1 0xFF SHL DUP5 EQ AND ISZERO PUSH2 0x1523 JUMPI PUSH2 0x1523 PUSH2 0x1418 JUMP JUMPDEST DUP2 DUP2 SDIV DUP4 EQ DUP3 ISZERO OR PUSH2 0x1445 JUMPI PUSH2 0x1445 PUSH2 0x1418 JUMP JUMPDEST PUSH1 0x0 DUP3 PUSH2 0x1546 JUMPI PUSH2 0x1546 PUSH2 0x144B JUMP JUMPDEST PUSH1 0x1 PUSH1 0xFF SHL DUP3 EQ PUSH1 0x0 NOT DUP5 EQ AND ISZERO PUSH2 0x1560 JUMPI PUSH2 0x1560 PUSH2 0x1418 JUMP JUMPDEST POP SDIV SWAP1 JUMP INVALID LOG2 PUSH5 0x6970667358 0x22 SLT KECCAK256 ORIGIN PUSH17 0xFAF9EDFB7543F22E4B98F4929E4DE06FC9 0xAA MOD 0xAB 0xBA 0xE9 0xAF DUP2 PUSH31 0xC1FBF217AA64736F6C634300081C0033000000000000000000000000000000 "
        },
        "gasEstimates": {
          "creation": {
            "codeDepositCost": "1106200",
            "executionCost": "infinite",
            "totalCost": "infinite"
          },
          "external": {
            "BPS_DIVISOR()": "230",
            "LEVERAGE_PRECISION()": "207",
            "LIQUIDATION_FEE_BPS()": "251",
            "MAINTENANCE_MARGIN_RATIO_BPS()": "274",
            "MAX_LEVERAGE()": "373",
            "MIN_LEVERAGE()": "307",
            "PRICE_PRECISION()": "229",
            "TAKER_FEE_BPS()": "252",
            "addMargin(bytes32,uint256)": "infinite",
            "calculatePnl(bytes32)": "infinite",
            "closePosition(bytes32)": "infinite",
            "collateralToken()": "infinite",
            "depositCollateral(uint256)": "infinite",
            "freeCollateral(address)": "2585",
            "liquidate(bytes32)": "infinite",
            "openPosition(bytes32,uint256,uint256,bool)": "infinite",
            "oracle()": "infinite",
            "positions(bytes32)": "11087",
            "removeMargin(bytes32,uint256)": "infinite",
            "withdrawCollateral(uint256)": "infinite"
          },
          "internal": {
            "_calculatePnl(bytes32)": "infinite"
          }
        },
        "methodIdentifiers": {
          "BPS_DIVISOR()": "191fe1ed",
          "LEVERAGE_PRECISION()": "8da793b2",
          "LIQUIDATION_FEE_BPS()": "518e8dfc",
          "MAINTENANCE_MARGIN_RATIO_BPS()": "24aee841",
          "MAX_LEVERAGE()": "9b45ec97",
          "MIN_LEVERAGE()": "34c1557d",
          "PRICE_PRECISION()": "95082d25",
          "TAKER_FEE_BPS()": "2057bfa0",
          "addMargin(bytes32,uint256)": "9e0a7378",
          "calculatePnl(bytes32)": "e1f75ec4",
          "closePosition(bytes32)": "e54a2ad5",
          "collateralToken()": "b2016bd4",
          "depositCollateral(uint256)": "bad4a01f",
          "freeCollateral(address)": "29fd9747",
          "liquidate(bytes32)": "0a71096e",
          "openPosition(bytes32,uint256,uint256,bool)": "b4d20d04",
          "oracle()": "7dc0d1d0",
          "positions(bytes32)": "514ea4bf",
          "removeMargin(bytes32,uint256)": "97709b5d",
          "withdrawCollateral(uint256)": "6112fe2e"
        }
      },
      "storageLayout": {
        "storage": [
          {
            "astId": 1175,
            "contract": "contracts/perp-dex-minimal/ClearingHouseV2.sol:ClearingHouseV2",
            "label": "_status",
            "offset": 0,
            "slot": "0",
            "type": "t_uint256"
          },
          {
            "astId": 1441,
            "contract": "contracts/perp-dex-minimal/ClearingHouseV2.sol:ClearingHouseV2",
            "label": "positions",
            "offset": 0,
            "slot": "1",
            "type": "t_mapping(t_bytes32,t_struct(Position)1430_storage)"
          },
          {
            "astId": 1445,
            "contract": "contracts/perp-dex-minimal/ClearingHouseV2.sol:ClearingHouseV2",
            "label": "freeCollateral",
            "offset": 0,
            "slot": "2",
            "type": "t_mapping(t_address,t_uint256)"
          }
        ],
        "types": {
          "t_address": {
            "encoding": "inplace",
            "label": "address",
            "numberOfBytes": "20"
          },
          "t_bool": {
            "encoding": "inplace",
            "label": "bool",
            "numberOfBytes": "1"
          },
          "t_bytes32": {
            "encoding": "inplace",
            "label": "bytes32",
            "numberOfBytes": "32"
          },
          "t_mapping(t_address,t_uint256)": {
            "encoding": "mapping",
            "key": "t_address",
            "label": "mapping(address => uint256)",
            "numberOfBytes": "32",
            "value": "t_uint256"
          },
          "t_mapping(t_bytes32,t_struct(Position)1430_storage)": {
            "encoding": "mapping",
            "key": "t_bytes32",
            "label": "mapping(bytes32 => struct ClearingHouseV2.Position)",
            "numberOfBytes": "32",
            "value": "t_struct(Position)1430_storage"
          },
          "t_struct(Position)1430_storage": {
            "encoding": "inplace",
            "label": "struct ClearingHouseV2.Position",
            "members": [
              {
                "astId": 1421,
                "contract": "contracts/perp-dex-minimal/ClearingHouseV2.sol:ClearingHouseV2",
                "label": "owner",
                "offset": 0,
                "slot": "0",
                "type": "t_address"
              },
              {
                "astId": 1423,
                "contract": "contracts/perp-dex-minimal/ClearingHouseV2.sol:ClearingHouseV2",
                "label": "size",
                "offset": 0,
                "slot": "1",
                "type": "t_uint256"
              },
              {
                "astId": 1425,
                "contract": "contracts/perp-dex-minimal/ClearingHouseV2.sol:ClearingHouseV2",
                "label": "margin",
                "offset": 0,
                "slot": "2",
                "type": "t_uint256"
              },
              {
                "astId": 1427,
                "contract": "contracts/perp-dex-minimal/ClearingHouseV2.sol:ClearingHouseV2",
                "label": "entryPrice",
                "offset": 0,
                "slot": "3",
                "type": "t_uint256"
              },
              {
                "astId": 1429,
                "contract": "contracts/perp-dex-minimal/ClearingHouseV2.sol:ClearingHouseV2",
                "label": "isLong",
                "offset": 0,
                "slot": "4",
                "type": "t_bool"
              }
            ],
            "numberOfBytes": "160"
          },
          "t_uint256": {
            "encoding": "inplace",
            "label": "uint256",
            "numberOfBytes": "32"
          }
        }
      },
      "userdoc": {
        "kind": "user",
        "methods": {},
        "version": 1
      }
    }
  }
}