{
  "contracts/mocks/PublicFaucet.sol": {
    "PublicFaucet": {
      "abi": [
        {
          "inputs": [
            {
              "internalType": "address",
              "name": "_tokenAddress",
              "type": "address"
            }
          ],
          "stateMutability": "nonpayable",
          "type": "constructor"
        },
        {
          "anonymous": false,
          "inputs": [
            {
              "indexed": true,
              "internalType": "address",
              "name": "receiver",
              "type": "address"
            },
            {
              "indexed": false,
              "internalType": "uint256",
              "name": "amount",
              "type": "uint256"
            }
          ],
          "name": "TokensRequested",
          "type": "event"
        },
        {
          "inputs": [],
          "name": "MAX_MINT_AMOUNT",
          "outputs": [
            {
              "internalType": "uint256",
              "name": "",
              "type": "uint256"
            }
          ],
          "stateMutability": "view",
          "type": "function"
        },
        {
          "inputs": [
            {
              "internalType": "uint256",
              "name": "_amount",
              "type": "uint256"
            }
          ],
          "name": "requestTokens",
          "outputs": [],
          "stateMutability": "nonpayable",
          "type": "function"
        },
        {
          "inputs": [],
          "name": "token",
          "outputs": [
            {
              "internalType": "contract MockERC20",
              "name": "",
              "type": "address"
            }
          ],
          "stateMutability": "view",
          "type": "function"
        }
      ],
      "devdoc": {
        "author": "Your Name",
        "kind": "dev",
        "methods": {
          "constructor": {
            "params": {
              "_tokenAddress": "The address of the MockERC20 contract this faucet will control."
            }
          },
          "requestTokens(uint256)": {
            "details": "Using tx.origin is generally discouraged in production contracts due to security risks, but it is perfectly acceptable and convenient for a simple testnet faucet like this, as it ensures the EOA that initiated the transaction receives the funds."
          }
        },
        "title": "PublicFaucet",
        "version": 1
      },
      "evm": {
        "bytecode": {
          "linkReferences": {},
          "object": "60a0604052348015600f57600080fd5b5060405161030b38038061030b833981016040819052602c91603c565b6001600160a01b0316608052606a565b600060208284031215604d57600080fd5b81516001600160a01b0381168114606357600080fd5b9392505050565b60805161028061008b600039600081816084015261019501526102806000f3fe608060405234801561001057600080fd5b50600436106100415760003560e01c8063eef9c27c14610046578063fa9b70181461005b578063fc0c546a1461007f575b600080fd5b610059610054366004610231565b6100be565b005b61006c69021e19e0c9bab240000081565b6040519081526020015b60405180910390f35b6100a67f000000000000000000000000000000000000000000000000000000000000000081565b6040516001600160a01b039091168152602001610076565b600081116101135760405162461bcd60e51b815260206004820152601f60248201527f4661756365743a20416d6f756e74206d75737420626520706f7369746976650060448201526064015b60405180910390fd5b69021e19e0c9bab24000008111156101795760405162461bcd60e51b8152602060048201526024808201527f4661756365743a20416d6f756e742065786365656473206d6178696d756d206c6044820152631a5b5a5d60e21b606482015260840161010a565b6040516340c10f1960e01b8152326004820152602481018290527f00000000000000000000000000000000000000000000000000000000000000006001600160a01b0316906340c10f1990604401600060405180830381600087803b1580156101e157600080fd5b505af11580156101f5573d6000803e3d6000fd5b50506040518381523292507fc3fb6c98272d7a0d5dc26727b61c00ece2e5bf3dbdc0284659e28d441c1ce06c915060200160405180910390a250565b60006020828403121561024357600080fd5b503591905056fea26469706673582212204ee82c0922c89bf6ee8af4f5a503798b87c48de25b5302637739cb3ae3115abf64736f6c634300081c0033",
          "opcodes": "PUSH1 0xA0 PUSH1 0x40 MSTORE CALLVALUE DUP1 ISZERO PUSH1 0xF JUMPI PUSH1 0x0 DUP1 REVERT JUMPDEST POP PUSH1 0x40 MLOAD PUSH2 0x30B CODESIZE SUB DUP1 PUSH2 0x30B DUP4 CODECOPY DUP2 ADD PUSH1 0x40 DUP2 SWAP1 MSTORE PUSH1 0x2C SWAP2 PUSH1 0x3C JUMP JUMPDEST PUSH1 0x1 PUSH1 0x1 PUSH1 0xA0 SHL SUB AND PUSH1 0x80 MSTORE PUSH1 0x6A JUMP JUMPDEST PUSH1 0x0 PUSH1 0x20 DUP3 DUP5 SUB SLT ISZERO PUSH1 0x4D JUMPI PUSH1 0x0 DUP1 REVERT JUMPDEST DUP2 MLOAD PUSH1 0x1 PUSH1 0x1 PUSH1 0xA0 SHL SUB DUP2 AND DUP2 EQ PUSH1 0x63 JUMPI PUSH1 0x0 DUP1 REVERT JUMPDEST SWAP4 SWAP3 POP POP POP JUMP JUMPDEST PUSH1 0x80 MLOAD PUSH2 0x280 PUSH2 0x8B PUSH1 0x0 CODECOPY PUSH1 0x0 DUP2 DUP2 PUSH1 0x84 ADD MSTORE PUSH2 0x195 ADD MSTORE PUSH2 0x280 PUSH1 0x0 RETURN INVALID PUSH1 0x80 PUSH1 0x40 MSTORE CALLVALUE DUP1 ISZERO PUSH2 0x10 JUMPI PUSH1 0x0 DUP1 REVERT JUMPDEST POP PUSH1 0x4 CALLDATASIZE LT PUSH2 0x41 JUMPI PUSH1 0x0 CALLDATALOAD PUSH1 0xE0 SHR DUP1 PUSH4 0xEEF9C27C EQ PUSH2 0x46 JUMPI DUP1 PUSH4 0xFA9B7018 EQ PUSH2 0x5B JUMPI DUP1 PUSH4 0xFC0C546A EQ PUSH2 0x7F JUMPI JUMPDEST PUSH1 0x0 DUP1 REVERT JUMPDEST PUSH2 0x59 PUSH2 0x54 CALLDATASIZE PUSH1 0x4 PUSH2 0x231 JUMP JUMPDEST PUSH2 0xBE JUMP JUMPDEST STOP JUMPDEST PUSH2 0x6C PUSH10 0x21E19E0C9BAB2400000 DUP2 JUMP JUMPDEST PUSH1 0x40 MLOAD SWAP1 DUP2 MSTORE PUSH1 0x20 ADD JUMPDEST PUSH1 0x40 MLOAD DUP1 SWAP2 SUB SWAP1 RETURN JUMPDEST PUSH2 0xA6 PUSH32 0x0 DUP2 JUMP JUMPDEST PUSH1 0x40 MLOAD PUSH1 0x1 PUSH1 0x1 PUSH1 0xA0 SHL SUB SWAP1 SWAP2 AND DUP2 MSTORE PUSH1 0x20 ADD PUSH2 0x76 JUMP JUMPDEST PUSH1 0x0 DUP2 GT PUSH2 0x113 JUMPI PUSH1 0x40 MLOAD PUSH3 0x461BCD PUSH1 0xE5 SHL DUP2 MSTORE PUSH1 0x20 PUSH1 0x4 DUP3 ADD MSTORE PUSH1 0x1F PUSH1 0x24 DUP3 ADD MSTORE PUSH32 0x4661756365743A20416D6F756E74206D75737420626520706F73697469766500 PUSH1 0x44 DUP3 ADD MSTORE PUSH1 0x64 ADD JUMPDEST PUSH1 0x40 MLOAD DUP1 SWAP2 SUB SWAP1 REVERT JUMPDEST PUSH10 0x21E19E0C9BAB2400000 DUP2 GT ISZERO PUSH2 0x179 JUMPI PUSH1 0x40 MLOAD PUSH3 0x461BCD PUSH1 0xE5 SHL DUP2 MSTORE PUSH1 0x20 PUSH1 0x4 DUP3 ADD MSTORE PUSH1 0x24 DUP1 DUP3 ADD MSTORE PUSH32 0x4661756365743A20416D6F756E742065786365656473206D6178696D756D206C PUSH1 0x44 DUP3 ADD MSTORE PUSH4 0x1A5B5A5D PUSH1 0xE2 SHL PUSH1 0x64 DUP3 ADD MSTORE PUSH1 0x84 ADD PUSH2 0x10A JUMP JUMPDEST PUSH1 0x40 MLOAD PUSH4 0x40C10F19 PUSH1 0xE0 SHL DUP2 MSTORE ORIGIN PUSH1 0x4 DUP3 ADD MSTORE PUSH1 0x24 DUP2 ADD DUP3 SWAP1 MSTORE PUSH32 0x0 PUSH1 0x1 PUSH1 0x1 PUSH1 0xA0 SHL SUB AND SWAP1 PUSH4 0x40C10F19 SWAP1 PUSH1 0x44 ADD PUSH1 0x0 PUSH1 0x40 MLOAD DUP1 DUP4 SUB DUP2 PUSH1 0x0 DUP8 DUP1 EXTCODESIZE ISZERO DUP1 ISZERO PUSH2 0x1E1 JUMPI PUSH1 0x0 DUP1 REVERT JUMPDEST POP GAS CALL ISZERO DUP1 ISZERO PUSH2 0x1F5 JUMPI RETURNDATASIZE PUSH1 0x0 DUP1 RETURNDATACOPY RETURNDATASIZE PUSH1 0x0 REVERT JUMPDEST POP POP PUSH1 0x40 MLOAD DUP4 DUP2 MSTORE ORIGIN SWAP3 POP PUSH32 0xC3FB6C98272D7A0D5DC26727B61C00ECE2E5BF3DBDC0284659E28D441C1CE06C SWAP2 POP PUSH1 0x20 ADD PUSH1 0x40 MLOAD DUP1 SWAP2 SUB SWAP1 LOG2 POP JUMP JUMPDEST PUSH1 0x0 PUSH1 0x20 DUP3 DUP5 SUB SLT ISZERO PUSH2 0x243 JUMPI PUSH1 0x0 DUP1 REVERT JUMPDEST POP CALLDATALOAD SWAP2 SWAP1 POP JUMP INVALID LOG2 PUSH5 0x6970667358 0x22 SLT KECCAK256 0x4E 0xE8 0x2C MULMOD 0x22 0xC8 SWAP12 0xF6 0xEE DUP11 DELEGATECALL CREATE2 0xA5 SUB PUSH26 0x8B87C48DE25B5302637739CB3AE3115ABF64736F6C634300081C STOP CALLER "
        },
        "gasEstimates": {
          "creation": {
            "codeDepositCost": "128000",
            "executionCost": "infinite",
            "totalCost": "infinite"
          },
          "external": {
            "MAX_MINT_AMOUNT()": "184",
            "requestTokens(uint256)": "infinite",
            "token()": "infinite"
          }
        },
        "methodIdentifiers": {
          "MAX_MINT_AMOUNT()": "fa9b7018",
          "requestTokens(uint256)": "eef9c27c",
          "token()": "fc0c546a"
        }
      },
      "storageLayout": {
        "storage": [],
        "types": null
      },
      "userdoc": {
        "kind": "user",
        "methods": {
          "requestTokens(uint256)": {
            "notice": "Mints a specified amount of tokens to the original transaction sender (your wallet)."
          }
        },
        "notice": "A public faucet that allows anyone to mint a limited amount of a specific MockERC20 token. This contract must be granted the MINTER_ROLE on the target MockERC20 token.",
        "version": 1
      }
    }
  }
}