{
    "_format": "hh-sol-artifact-1",
    "contractName": "Oracle",
    "sourceName": "contracts/perp-dex-minimal/Oracle.sol",
    "abi": [
        {
            "inputs": [
                {
                    "internalType": "uint256",
                    "name": "_initialPrice",
                    "type": "uint256"
                }
            ],
            "stateMutability": "nonpayable",
            "type": "constructor"
        },
        {
            "inputs": [],
            "name": "AccessControlBadConfirmation",
            "type": "error"
        },
        {
            "inputs": [
                {
                    "internalType": "address",
                    "name": "account",
                    "type": "address"
                },
                {
                    "internalType": "bytes32",
                    "name": "neededRole",
                    "type": "bytes32"
                }
            ],
            "name": "AccessControlUnauthorizedAccount",
            "type": "error"
        },
        {
            "anonymous": false,
            "inputs": [
                {
                    "indexed": false,
                    "internalType": "uint256",
                    "name": "newPrice",
                    "type": "uint256"
                },
                {
                    "indexed": false,
                    "internalType": "uint256",
                    "name": "timestamp",
                    "type": "uint256"
                }
            ],
            "name": "PriceUpdated",
            "type": "event"
        },
        {
            "anonymous": false,
            "inputs": [
                {
                    "indexed": true,
                    "internalType": "bytes32",
                    "name": "role",
                    "type": "bytes32"
                },
                {
                    "indexed": true,
                    "internalType": "bytes32",
                    "name": "previousAdminRole",
                    "type": "bytes32"
                },
                {
                    "indexed": true,
                    "internalType": "bytes32",
                    "name": "newAdminRole",
                    "type": "bytes32"
                }
            ],
            "name": "RoleAdminChanged",
            "type": "event"
        },
        {
            "anonymous": false,
            "inputs": [
                {
                    "indexed": true,
                    "internalType": "bytes32",
                    "name": "role",
                    "type": "bytes32"
                },
                {
                    "indexed": true,
                    "internalType": "address",
                    "name": "account",
                    "type": "address"
                },
                {
                    "indexed": true,
                    "internalType": "address",
                    "name": "sender",
                    "type": "address"
                }
            ],
            "name": "RoleGranted",
            "type": "event"
        },
        {
            "anonymous": false,
            "inputs": [
                {
                    "indexed": true,
                    "internalType": "bytes32",
                    "name": "role",
                    "type": "bytes32"
                },
                {
                    "indexed": true,
                    "internalType": "address",
                    "name": "account",
                    "type": "address"
                },
                {
                    "indexed": true,
                    "internalType": "address",
                    "name": "sender",
                    "type": "address"
                }
            ],
            "name": "RoleRevoked",
            "type": "event"
        },
        {
            "inputs": [],
            "name": "DEFAULT_ADMIN_ROLE",
            "outputs": [
                {
                    "internalType": "bytes32",
                    "name": "",
                    "type": "bytes32"
                }
            ],
            "stateMutability": "view",
            "type": "function"
        },
        {
            "inputs": [],
            "name": "UPDATER_ROLE",
            "outputs": [
                {
                    "internalType": "bytes32",
                    "name": "",
                    "type": "bytes32"
                }
            ],
            "stateMutability": "view",
            "type": "function"
        },
        {
            "inputs": [],
            "name": "getPrice",
            "outputs": [
                {
                    "internalType": "uint256",
                    "name": "",
                    "type": "uint256"
                }
            ],
            "stateMutability": "view",
            "type": "function"
        },
        {
            "inputs": [
                {
                    "internalType": "bytes32",
                    "name": "role",
                    "type": "bytes32"
                }
            ],
            "name": "getRoleAdmin",
            "outputs": [
                {
                    "internalType": "bytes32",
                    "name": "",
                    "type": "bytes32"
                }
            ],
            "stateMutability": "view",
            "type": "function"
        },
        {
            "inputs": [
                {
                    "internalType": "bytes32",
                    "name": "role",
                    "type": "bytes32"
                },
                {
                    "internalType": "address",
                    "name": "account",
                    "type": "address"
                }
            ],
            "name": "grantRole",
            "outputs": [],
            "stateMutability": "nonpayable",
            "type": "function"
        },
        {
            "inputs": [
                {
                    "internalType": "bytes32",
                    "name": "role",
                    "type": "bytes32"
                },
                {
                    "internalType": "address",
                    "name": "account",
                    "type": "address"
                }
            ],
            "name": "hasRole",
            "outputs": [
                {
                    "internalType": "bool",
                    "name": "",
                    "type": "bool"
                }
            ],
            "stateMutability": "view",
            "type": "function"
        },
        {
            "inputs": [],
            "name": "price",
            "outputs": [
                {
                    "internalType": "uint256",
                    "name": "",
                    "type": "uint256"
                }
            ],
            "stateMutability": "view",
            "type": "function"
        },
        {
            "inputs": [
                {
                    "internalType": "bytes32",
                    "name": "role",
                    "type": "bytes32"
                },
                {
                    "internalType": "address",
                    "name": "callerConfirmation",
                    "type": "address"
                }
            ],
            "name": "renounceRole",
            "outputs": [],
            "stateMutability": "nonpayable",
            "type": "function"
        },
        {
            "inputs": [
                {
                    "internalType": "bytes32",
                    "name": "role",
                    "type": "bytes32"
                },
                {
                    "internalType": "address",
                    "name": "account",
                    "type": "address"
                }
            ],
            "name": "revokeRole",
            "outputs": [],
            "stateMutability": "nonpayable",
            "type": "function"
        },
        {
            "inputs": [
                {
                    "internalType": "uint256",
                    "name": "_newPrice",
                    "type": "uint256"
                }
            ],
            "name": "setPrice",
            "outputs": [],
            "stateMutability": "nonpayable",
            "type": "function"
        },
        {
            "inputs": [
                {
                    "internalType": "bytes4",
                    "name": "interfaceId",
                    "type": "bytes4"
                }
            ],
            "name": "supportsInterface",
            "outputs": [
                {
                    "internalType": "bool",
                    "name": "",
                    "type": "bool"
                }
            ],
            "stateMutability": "view",
            "type": "function"
        }
    ],
    "bytecode": "0x608060405234801561001057600080fd5b506040516107bc3803806107bc83398101604081905261002f91610221565b61003a600033610063565b5061005360008051602061079c83398151915233610063565b5061005d8161010f565b5061023a565b6000828152602081815260408083206001600160a01b038516845290915281205460ff16610105576000838152602081815260408083206001600160a01b03861684529091529020805460ff191660011790556100bd3390565b6001600160a01b0316826001600160a01b0316847f2f8788117e7eff1d82e926ec794901d17c78024a50270940304540a733656f0d60405160405180910390a4506001610109565b5060005b92915050565b60008051602061079c833981519152610127816101bd565b6000821161017c5760405162461bcd60e51b815260206004820152601e60248201527f4f7261636c653a205072696365206d75737420626520706f736974697665000060448201526064015b60405180910390fd5b6001829055604080518381524260208201527f945c1c4e99aa89f648fbfe3df471b916f719e16d960fcec0737d4d56bd696838910160405180910390a15050565b6101c781336101ca565b50565b6000828152602081815260408083206001600160a01b038516845290915290205460ff1661021d5760405163e2517d3f60e01b81526001600160a01b038216600482015260248101839052604401610173565b5050565b60006020828403121561023357600080fd5b5051919050565b610553806102496000396000f3fe608060405234801561001057600080fd5b50600436106100a95760003560e01c806391b7f5ed1161007157806391b7f5ed1461015657806391d148541461016957806398d5fdca1461017c578063a035b1fe14610184578063a217fddf1461018d578063d547741f1461019557600080fd5b806301ffc9a7146100ae578063248a9ca3146100d65780632f2ff15d1461010757806336568abe1461011c57806347e633801461012f575b600080fd5b6100c16100bc366004610497565b6101a8565b60405190151581526020015b60405180910390f35b6100f96100e43660046104c8565b60009081526020819052604090206001015490565b6040519081526020016100cd565b61011a6101153660046104e1565b6101df565b005b61011a61012a3660046104e1565b61020a565b6100f97f73e573f9566d61418a34d5de3ff49360f9c51fec37f7486551670290f6285dab81565b61011a6101643660046104c8565b610242565b6100c16101773660046104e1565b610302565b6001546100f9565b6100f960015481565b6100f9600081565b61011a6101a33660046104e1565b61032b565b60006001600160e01b03198216637965db0b60e01b14806101d957506301ffc9a760e01b6001600160e01b03198316145b92915050565b6000828152602081905260409020600101546101fa81610350565b610204838361035d565b50505050565b6001600160a01b03811633146102335760405163334bd91960e11b815260040160405180910390fd5b61023d82826103ef565b505050565b7f73e573f9566d61418a34d5de3ff49360f9c51fec37f7486551670290f6285dab61026c81610350565b600082116102c15760405162461bcd60e51b815260206004820152601e60248201527f4f7261636c653a205072696365206d75737420626520706f736974697665000060448201526064015b60405180910390fd5b6001829055604080518381524260208201527f945c1c4e99aa89f648fbfe3df471b916f719e16d960fcec0737d4d56bd696838910160405180910390a15050565b6000918252602082815260408084206001600160a01b0393909316845291905290205460ff1690565b60008281526020819052604090206001015461034681610350565b61020483836103ef565b61035a813361045a565b50565b60006103698383610302565b6103e7576000838152602081815260408083206001600160a01b03861684529091529020805460ff1916600117905561039f3390565b6001600160a01b0316826001600160a01b0316847f2f8788117e7eff1d82e926ec794901d17c78024a50270940304540a733656f0d60405160405180910390a45060016101d9565b5060006101d9565b60006103fb8383610302565b156103e7576000838152602081815260408083206001600160a01b0386168085529252808320805460ff1916905551339286917ff6391f5c32d9c69d2a47ea670b442974b53935d1edc7fd64eb21e047a839171b9190a45060016101d9565b6104648282610302565b6104935760405163e2517d3f60e01b81526001600160a01b0382166004820152602481018390526044016102b8565b5050565b6000602082840312156104a957600080fd5b81356001600160e01b0319811681146104c157600080fd5b9392505050565b6000602082840312156104da57600080fd5b5035919050565b600080604083850312156104f457600080fd5b8235915060208301356001600160a01b038116811461051257600080fd5b80915050925092905056fea264697066735822122063005bca938a39fe6fc9ebdcadc3898990320dfa8dc1cc8564667e772775828964736f6c634300081c003373e573f9566d61418a34d5de3ff49360f9c51fec37f7486551670290f6285dab",
    "linkReferences": {},
    "deployedLinkReferences": {}
}