{
  "_format": "hh-sol-artifact-1",
  "contractName": "ClaimHonkVerifier",
  "sourceName": "contracts/darkpool/verifiers/ClaimVerifier.sol",
  "abi": [
    {
      "inputs": [],
      "name": "ProofLengthWrong",
      "type": "error"
    },
    {
      "inputs": [],
      "name": "PublicInputsLengthWrong",
      "type": "error"
    },
    {
      "inputs": [],
      "name": "ShpleminiFailed",
      "type": "error"
    },
    {
      "inputs": [],
      "name": "SumcheckFailed",
      "type": "error"
    },
    {
      "inputs": [
        {
          "internalType": "bytes",
          "name": "proof",
          "type": "bytes"
        },
        {
          "internalType": "bytes32[]",
          "name": "publicInputs",
          "type": "bytes32[]"
        }
      ],
      "name": "verify",
      "outputs": [
        {
          "internalType": "bool",
          "name": "",
          "type": "bool"
        }
      ],
      "stateMutability": "view",
      "type": "function"
    }
  ],
  "bytecode": "0x60e0604052348015600f57600080fd5b50612000608052600d60a052601660c05260805160a05160c05161566661005d600039600061064901526000818161075801528181610d500152610dee015260006105eb01526156666000f3fe608060405234801561001057600080fd5b506004361061002b5760003560e01c8063ea50d0e414610030575b600080fd5b61004361003e36600461522e565b610057565b604051901515815260200160405180910390f35b60006100666101c86020615317565b8414610085576040516376ba560560e11b815260040160405180910390fd5b600061008f6101b0565b9050600061009d87876101c5565b9050601082604001516100b0919061532e565b84146100cf5760405163fa06659360e01b815260040160405180910390fd5b60006100e8828787866000015187604001516001610524565b905061013986868080602002602001604051908101604052809392919081815260200183836020028082843760009201919091525050855185516060810151608090910151919350915060016105d4565b815160a00152600061014b838361074f565b90508061016b576040516313f8744360e31b815260040160405180910390fd5b6000610178848685610856565b905080610198576040516352ec174560e11b815260040160405180910390fd5b8180156101a25750805b9a9950505050505050505050565b6101b8614acf565b6101c06110ea565b905090565b6101cd614e86565b6000805b6010811015610230576101fd8583866101eb826020615341565b926101f893929190615354565b6119cf565b835182601081106102105761021061537e565b6020020181815250506020826102269190615341565b91506001016101d1565b50610254848285610242826080615341565b9261024f93929190615354565b611a31565b6020830152610264608082615341565b9050610277848285610242826080615341565b6040830152610287608082615341565b905061029a848285610242826080615341565b60608301526102aa608082615341565b90506102bd848285610242826080615341565b60c08301526102cd608082615341565b90506102e0848285610242826080615341565b60e08301526102f0608082615341565b9050610303848285610242826080615341565b6080808401919091526103169082615341565b9050610329848285610242826080615341565b61010083015261033a608082615341565b905061034d848285610242826080615341565b60a083015261035d608082615341565b905060005b601c8110156103de5760005b60088110156103d5576103888684876101eb826020615341565b84610120015183601c811061039f5761039f61537e565b602002015182600881106103b5576103b561537e565b6020020181815250506020836103cb9190615341565b925060010161036e565b50600101610362565b5060005b6028811015610433576103fc8583866101eb826020615341565b83610140015182602881106104135761041361537e565b6020020181815250506020826104299190615341565b91506001016103e2565b5060005b6104436001601c61532e565b81101561048c5761045b858386610242826080615341565b83610160015182601b81106104725761047261537e565b6020020152610482608083615341565b9150600101610437565b5060005b601c8110156104e1576104aa8583866101eb826020615341565b83610180015182601c81106104c1576104c161537e565b6020020181815250506020826104d79190615341565b9150600101610490565b506104f3848285610242826080615341565b6101a0830152610504608082615341565b9050610517848285610242826080615341565b6101c08301525092915050565b61052c614f50565b600061053d88888888888887611b02565b908352905061054c8189611b8a565b6020840191909152905061055f81611d26565b604084019190915290506105738882611d89565b606084019190915290506105878882611e60565b6080840191909152905061059b8882611eee565b60a084019190915290506105af888261205e565b60c084019190915290506105c388826120d2565b5060e0830152509695505050505050565b60006001808261061e866106198961061461060f8a7f0000000000000000000000000000000000000000000000000000000000000000615341565b61212a565b61214a565b612165565b9050600061063d876106388a61061461060f8b6001615341565b612180565b905060005b61066d60107f000000000000000000000000000000000000000000000000000000000000000061532e565b8110156106db5760006106988c838151811061068b5761068b61537e565b602002602001015161212a565b90506106a8866106148684612165565b95506106b8856106148584612165565b94506106c4848b612165565b93506106d0838b612180565b925050600101610642565b5060005b60108110156107445760008a82601081106106fc576106fc61537e565b60200201519050610711866106148684612165565b9550610721856106148584612165565b945061072d848b612165565b9350610739838b612180565b9250506001016106df565b506101a284846121b2565b6000806001815b7f000000000000000000000000000000000000000000000000000000000000000081101561082a57600086610120015182601c81106107975761079761537e565b6020020151905060006107aa82866121c1565b9050806107ca576040516313f8744360e31b815260040160405180910390fd5b6000876060015184601c81106107e2576107e261537e565b602002015190506107f383826121df565b955061081a886040015185601c811061080e5761080e61537e565b60200201518683612393565b9450505050806001019050610756565b50600061084686610140015186600001518760200151856123bf565b90508281145b9695505050505050565b60006108a76040518061012001604052806000815260200160008152602001600081526020016000815260200160008152602001600081526020016000815260200160008152602001600081525090565b60006108b68460a0015161242e565b90506108c0614fde565b6108c8614ffd565b60e08601516108e8906108e3908560005b6020020151612180565b612493565b60a085015260e0860151610908906108e3908560005b6020020151612165565b60c080860182905260a08601519088015161092792610619919061214a565b845260a08601516109559061093b90612493565b6106148660a001516106388a60c001518960c0015161214a565b6020850152600182526101a088015161096d90612503565b8152600160608501819052600060808601525b60238111610a27576109a2610998866000015161254f565b866060015161214a565b8382604681106109b4576109b461537e565b602002015260808501516101408a01516109f79190610619906109d860018661532e565b602881106109e8576109e861537e565b6020020151886060015161214a565b856080018181525050610a128560600151886080015161214a565b6060860152610a2081615394565b9050610980565b506000610a3660236001615341565b90505b60288111610ab757610a51610998866020015161254f565b838260468110610a6357610a6361537e565b602002015260808501516101408a0151610a879190610619906109d860018661532e565b856080018181525050610aa28560600151886080015161214a565b6060860152610ab081615394565b9050610a39565b50606087015181600160200201526080870151816002602002015260a0870151816003602002015260c0870151816004602002015260e0870151816005602002015261010087015181600660200201526101208701518160076020020152610140870151816008602002015261016087015181600960200201526101a087015181600a602002015261018087015181600b60200201526101c087015181600c60200201526101e087015181600d602002015261020087015181600e602002015261022087015181600f60200201526102408701518160106020020152610260870151816011602002015261028087015181601260200201526102a087015181601360200201526102c087015181601460200201526102e08701518160156020020152610300870151816016602002015261032087015181601760200201526103408701518160186020020152610360870151816019602002015261038087015181601a60200201526103a087015181601b6020020181905250610c3d8860200151612503565b6103808201526040880151610c5190612503565b6103a08201526060880151610c6590612503565b6103c08201526080880151610c7990612503565b6103e082015260a0880151610c8d90612503565b610400820152610100880151610ca290612503565b61042082015260c0880151610cb690612503565b61044082015260e0880151610cca90612503565b6104608201526020880151610cde90612503565b6104808201526040880151610cf290612503565b6104a08201526060880151610d0690612503565b6104c08201526080880151610d1a90612503565b6104e082015260a0880151610d2e90612503565b610500820152606086015160808501516101808a0151600092610d74929091877f0000000000000000000000000000000000000000000000000000000000000000612569565b805160a0870151919250610d879161214a565b604086018190526101808a01515160c0890151610db7929161061991610dad919061214a565b8860c0015161214a565b604086015260c0870151610dca90612687565b606086015260005b610dde6001601c61532e565b811015610fe2576000610e1260017f000000000000000000000000000000000000000000000000000000000000000061532e565b821015905080610f8857610e456108e38a60e0015188856001610e359190615341565b601c81106108d9576108d961537e565b60a088015260e0890151610e73906108e39088610e63866001615341565b601c81106108fe576108fe61537e565b60c0880152606087015160a0880151610e8c919061214a565b60e0880152606087015160c08a0151610ea891610dad9161214a565b6101008801819052610eca90610ebd9061254f565b6106198960e0015161254f565b8583610ed860286001615341565b610ee29190615341565b60468110610ef257610ef261537e565b60200201526101008701516101808c0151600091610f2f91610f15866001615341565b601c8110610f2557610f2561537e565b602002015161214a565b9050610f4b816106198a60e0015187876001610f159190615341565b9050610f5b886040015182612165565b6040890152606088015160c08b0151610f8191610f779161214a565b8b60c0015161214a565b6060890152505b610fac8b610160015183601b8110610fa257610fa261537e565b6020020151612503565b8483610fba60286001615341565b610fc49190615341565b60468110610fd457610fd461537e565b602002015250600101610dd2565b5060408051808201909152600181526002602082015282611005601c6028615341565b604681106110155761101561537e565b602002015260408501518361102c601c6028615341565b6046811061103c5761103c61537e565b60200201526101c089015160009061105390612503565b90508083611063601c6028615341565b61106e906001615341565b6046811061107e5761107e61537e565b602002015260e088015184611095601c6028615341565b6110a0906001615341565b604681106110b0576110b061537e565b602002015260006110c18486612693565b905060006110ce83612766565b90506110da82826127de565b9c9b505050505050505050505050565b6110f2614acf565b50604080516103c0810182526120008152600d602080830191909152601682840152825180840184527f257ae7db1cc8adcdb36c9ff0fbb72148180c49f0deefe4d33819120f0392f46581527f2ee364b47a7aaf0301039ebb40182f21613541b2f30fecb985c2d167ed23b48f818301526060830152825180840184527f08f13f5f3821ab647d4c3797d2f950fcfb64ac5e047150d1679d2f6a624f2cb181527f23fa57feb9b7c2d5f61096edff5b53579f512d0076cace090b35bdc04bba290c818301526080830152825180840184527f2d56ac71a51ab7d1f32a8296f8fe798427a8ed5fcad6477aaef04ab357bcb8d081527f0c73f0a7e2bf68f5a6fa638e910d5cd5c6a2542435db330e3f71562d3e6d6af58183015260a0830152825180840184527f06574eda804a11b4fd019f002558d22f1f91d9640a0cbb3437764444d4038fe381527f075cf8eb72e40f0cfc1098c6775d953f97e957b68c1b31ca5ac96f9e8bd870538183015260c0830152825180840184527f1d8038a7353cf050e4acfab562a76c61ddaab4b2b294503cb6f30dbe3fcd74a281527f0d92654dee8e7ac7aa56d8bb359dca34afb18a0f8aaa1050e0775f42adb2c4048183015260e0830152825180840184527f03340eeb2e287c9c7624ebb9488e2d90ba3a764ab203d3759c5ded6788ccf36881527f1afaa521d315f4e21cffb00f3ce22e09eb8399a93453e1ebade18129e0d9ea8381830152610100830152825180840184527f15729599ef3888a89db8f52912b65cdfc12205eb78f54bd9f4742df51d35d9d281527f1890a0e4fb04b07215d2034d92fc6ad93cb3670761c8c93df420b3a7d89baefa81830152610120830152825180840184527f02e6551eebd1d5e93ee29b6f5c4c4a7cf8e6298cb3857d5c4e527bde6b95084881527f04266138ab120f2936410e764576cc31021663bf58c888406bceae258336e07081830152610140830152825180840184527f21c37fd9c843b0e44e7e0bed86a9637f462f2404178e98feddb418f3313f66f281527f0ca83f81e64ba1e88e14d538c3541f40ed61809e7fa1066eab0b2b388a8b5a9c81830152610160830152825180840184527f2d0ab77d5d87af3a05d3fb325fddbec9196cb70452d0ee84fd76518c370ad77281527f13cf85f4b133349c9250eaac8d7c6436fbde3af3d154b8ed3e14a84f03f0c09181830152610180830152825180840184527f10e0c95767866fe787522bb5bedcea75dbd45d6c3c76dd3d4ead67cad5f8d3ee81527f100bf41122503ed70e7ec7bceccace78b1fa218d5a170c45c8f8b21f75fb0ba9818301526101a0830152825180840184527f0e6b0ef2862deff947edee6f78063f8f7ed639778573be927a5e366af79c2ded81527f022a7ce3a2b36bce144cad56d68ed88d13cc8fc078eb7d9d6284d544bc9a5b83818301526101c0830152825180840184527f2b09c5338f005ebaae346b313af5784deb1c8b88e0aaa10ef5d6e3f6e7b25f6d81527f08f1c94c46d2bec8a77cc9ff8e335d3cc397b880e24aaee69be56d905e7dc593818301526101e0830152825180840184527f1e0594eb626e6d069c98f3412df32046e4c91dde550905af8157b965f5dc2dc381527f02f82711f3313b39d94d588224b3dc47eadb07c3dcf23f54d9fa78998cbec2a381830152610200830152825180840184527f1483301e0a03a7289865d147d1d13a8cca1fa15ea3f7bb3f379992b62cd1d8b581527f0e98547586f041c252bebae09453a97a630c75a9db76ddb0fcb20f07189e09d081830152610220830152825180840184527f1b3ec7d73b6262980cc36ee51cb86c1cb098c877ba9d02cd77ca388f1fc770fd81527f0f27986fa7504740c627d2b918c003a4916beb55b342b81cf03ba80fe47a611e81830152610240830152825180840184527f1285d6c9c5a10ffb1fe97c5d4114b7dda16dce1f38060e3c963f3f68c61e8a3481527f16e0d7e33801430a596010e162b872dd911cad28b535a293b9728b70a6ba294881830152610260830152825180840184527f1724fe54c8503139cb80975dcd19c3eaa6504444876ff51bb2064012f28e422e81527f20e7988aa8b77bc046839cd3a04613d94ec88a12263ec0782e6ddfd5422283a081830152610280830152825180840184527f1aa3d3afa066ac7c830b2fba2f890692d3cc4b4abc53daedc32ca8bb24bac74781527f2b83e245f9460877dea21a7c259ffdab2329b23ecb4f46cdacb227dde97bd5e7818301526102a0830152825180840184527f098dba1ac66ec67e4bba9dadbce7b1665c5da42821eccc9b2a48fea806202c9c81527f062f25d3be8f6d942c2f71d5caa2d6fb11159532292124b558681aee5a57d5df818301526102c0830152825180840184527f0a8148720042d968f28689182bbebb14ae896c5c24b73fce6d2bb4b9766a5ccb81527f2981d32711e7445648aca4bc7d8feec950637ac4b2d1218248ca7df4e7c39ece818301526102e0830152825180840184527f17a35e65fbe5d2346487ce74ab3bbac1eda0f1b4401e0a07bbda69ff27543db981527f16be6a4109beb39796ca01b53855e33c4f1a7b1c4c42334e75594860ed771e5581830152610300830152825180840184527f12315d357894a99410a006523703eb8f8f806380c691a9b46fcc877d645f927781527f197e70aa1c0f8ff353c7db9581f846bca167f19a1e2b87a9e83428d29c6e4cd081830152610320830152825180840184527f2c2c93b0ac7939d3a5eb58241a60bd18838a907bb721e8ecf42dfc3a0ee9fc3f81527f1be9f9920f1f94ed7940bbcdfb48aab51f8087bfd9a618664349631275142ffa81830152610340830152825180840184527f1ad8751a8486777ab7e1f23db8d15ae44348450f34f3402f2de76ec0c7df8cb481527f05f0f7ada1b386cc6fd114bfc41ac286e1e4762258a5bcdefd62ef8a9b7223b881830152610360830152825180840184526001815260028183015261038083015282518084019093527f01274b9a6feb5eb4007c95e733c213e4e51abcf625a628319357affb0d37726083527f28c536812878eeb232cfe71f55edcdacae3dfcb7a5e0bb1f6f9a23d74f26e4f1908301526103a081019190915290565b600060208214611a1d5760405162461bcd60e51b815260206004820152601460248201527334b73b30b634b210313cba32b99039b1b0b630b960611b60448201526064015b60405180910390fd5b611a2a61060f83856153ad565b9392505050565b611a39615037565b60808214611a7f5760405162461bcd60e51b81526020600482015260136024820152721a5b9d985b1a5908189e5d195cc81c1bda5b9d606a1b6044820152606401611a14565b604080516080810190915280611a99602060008688615354565b611aa2916153ad565b8152602090810190611ab8906040908688615354565b611ac1916153ad565b8152602001611ad4606060408688615354565b611add916153ad565b8152602001611af0608060608688615354565b611af9916153ad565b90529392505050565b611b3b6040518060c001604052806000815260200160008152602001600081526020016000815260200160008152602001600081525090565b6000611b4b8989898989896129e8565b604086019190915260208501919091529083529250611b6a838a612e98565b608085019190915260608401919091529199919850909650505050505050565b611b9261505f565b6000611b9c61507e565b848152610100848101805151602080850191909152815181015160408086019190915282518101516060808701919091529251830151608086015260a080890180515191870191909152805183015160c0870152805182015160e087015251909201519284019290925251611c3291611c17918491016153cb565b6040516020818303038152906040528051906020012061212a565b9150611c3d82612f69565b6020850152835260015b611c5360026019615416565b811015611cd357611c7083604051602001611c1791815260200190565b9250611c7b83612f69565b85611c87846002615317565b60198110611c9757611c9761537e565b6020020186611ca7856002615317565b611cb2906001615341565b60198110611cc257611cc261537e565b602002019190915252600101611c47565b50611cea82604051602001611c1791815260200190565b91506000611cf783612f69565b85611d046001601961532e565b60198110611d1457611d1461537e565b60200201919091525050509250929050565b611d2e61509d565b6000805b601c811015611d8257611d5184604051602001611c1791815260200190565b93506000611d5e85612f69565b8584601c8110611d7057611d7061537e565b60200201919091525050600101611d32565b5090929050565b611d9161509d565b6000805b601c811015611e5757611da661507e565b84815260005b6008811015611e105786610120015183601c8110611dcc57611dcc61537e565b60200201518160088110611de257611de261537e565b602002015182611df3836001615341565b60098110611e0357611e0361537e565b6020020152600101611dac565b50611e2581604051602001611c1791906153cb565b94506000611e3286612f69565b8685601c8110611e4457611e4461537e565b6020020191909152505050600101611d95565b50909391925050565b600080611e6b6150bc565b83815260005b6028811015611ebf578561014001518160288110611e9157611e9161537e565b602002015182611ea2836001615341565b60298110611eb257611eb261537e565b6020020152600101611e71565b50611ed481604051602001611c17919061542a565b91506000611ee183612f69565b5096929550919350505050565b600080611ef96150db565b83815260005b611f0b6001601c61532e565b8110156120495785610160015181601b8110611f2957611f2961537e565b60200201515182611f3b836004615317565b611f46906001615341565b606d8110611f5657611f5661537e565b602002015261016086015181601b8110611f7257611f7261537e565b60200201516020015182826004611f899190615317565b611f94906002615341565b606d8110611fa457611fa461537e565b602002015261016086015181601b8110611fc057611fc061537e565b60200201516040015182611fd5836004615317565b611fe0906003615341565b606d8110611ff057611ff061537e565b602002015261016086015181601b811061200c5761200c61537e565b60200201516060015182612021836004615317565b61202c906004615341565b606d811061203c5761203c61537e565b6020020152600101611eff565b50611ed481604051602001611c17919061545f565b6000806120696150fa565b83815260005b601c8110156120bd5785610180015181601c811061208f5761208f61537e565b6020020151826120a0836001615341565b601d81106120b0576120b061537e565b602002015260010161206f565b50611ed481604051602001611c179190615494565b6000806120dd615119565b8381526101a085018051516020808401919091528151810151604080850191909152825181015160608086019190915292519092015160808401529051611ed491611c17918491016154c9565b6000612144600080516020615611833981519152836154fd565b92915050565b60006000805160206156118339815191528284099392505050565b60006000805160206156118339815191528284089392505050565b60006000805160206156118339815191526121a98360008051602061561183398151915261532e565b84089392505050565b6000611a2a8361061484612493565b815160009081906121d4908560016108fe565b929092149392505050565b60408051610100810182527f30644e72e131a029b85045b68181585d2833e84879b9709143e1f593efffec5181526102d060208201527f30644e72e131a029b85045b68181585d2833e84879b9709143e1f593efffff1191810191909152609060608201527f30644e72e131a029b85045b68181585d2833e84879b9709143e1f593efffff71608082015260f060a08201527f30644e72e131a029b85045b68181585d2833e84879b9709143e1f593effffd3160c08201526113b060e08201526000906001825b60088110156122c7576122bd826106148784612180565b91506001016122a6565b506122d0615137565b60005b60088110156123335760008482600881106122f0576122f061537e565b60200201519050612305816106148985612180565b905061231081612493565b9050808383600881106123255761232561537e565b6020020152506001016122d3565b5060005b60088110156123885760008782600881106123545761235461537e565b6020020151905061237181848460088110610f2557610f2561537e565b905061237d8682612165565b955050600101612337565b5061084c848361214a565b6000806123aa600161061985610614896001612180565b90506123b6848261214a565b95945050505050565b60006123c9615156565b6123d4868285612fa3565b6123e086868386613154565b6123ec86868386613341565b6123f7868285613548565b61240286828561373a565b61240e86868386613a9f565b61241986828561435a565b612424868285614736565b61084c8185614a38565b61243661509d565b81815260015b601c81101561248d5761246e8261245460018461532e565b601c81106124645761246461537e565b6020020151612687565b8282601c81106124805761248061537e565b602002015260010161243c565b50919050565b60008082905060006040516020815260208082015260206040820152826060820152600260008051602061561183398151915203608082015260008051602061561183398151915260a08201526020600060c08360055afa9050806124f757600080fd5b50506000519392505050565b6040805180820190915260008082526020820152604051806040016040528060888460200151901b846000015117815260200160888460600151901b8460400151178152509050919050565b60006121448260008051602061561183398151915261532e565b61257161509d565b601c5b801561267d5760008461258860018461532e565b601c81106125985761259861537e565b602002015190506000886125ad60018561532e565b601c81106125bd576125bd61537e565b6020020151905060006126196125dd6125d6858c61214a565b600261214a565b6106388a6125ec60018961532e565b601c81106125fc576125fc61537e565b60200201516106146126138861061460018a612180565b87612180565b905061263a816106146108e361263487610614600189612180565b86612165565b905085841161266957975087808561265360018761532e565b601c81106126635761266361537e565b60200201525b5050508061267690615511565b9050612574565b5095945050505050565b6000612144828361214a565b604080518082019091526000808252602082015260006126b5601c6028615341565b6126c0906002615341565b90506001604051855151604082015285516020015160608201528451608082015260408160606040840160075afa8216915060015b8381101561274e5760208102870160208202870181515160408501528151602001516060850152805160808501525050604080830160606040850160075afa8316925060408260808460065afa909216916001016126f5565b50805184526020810151602085015250505092915050565b60408051808201909152600080825260208201527f30644e72e131a029b85045b68181585d97816a916871ca8d3c208c16d87cfd4782602001517f30644e72e131a029b85045b68181585d97816a916871ca8d3c208c16d87cfd476127cb919061532e565b6127d591906154fd565b60208301525090565b81516020808401518351848301516040805194850195909552938301919091527f198e9393920d483a7260bfb731fb5d25f1aa493335a9e71297e485b7aef312c260608301527f1800deef121f1e76426a00665e5c4479674322d4f75edadd46debd5cd992f6ed60808301527f090689d0585ff075ec9e99ad690c3395bc4b313370b38ef355acdadcd122975b60a08301527f12c85ea5db8c6deb4aab71808dcb408fe3d1e7690c43d37b4ce6cc0166fa7daa60c083015260e08201526101008101919091527f260e01b251f6f1c7e7ff4e580791dee8ea51d87a358e038b4efe30fac09383c16101208201527f0118c4d5b837bcc2bc89b5b398b5974e9f5944073b32078b7e231fec938883b06101408201527f04fc6369f7110fe3d25156c1bb9a72859cf2a04641f99ba4ee413c80da6a5fe46101608201527f22febda3c0c0632a56475b4214e5615e11e6dd3f96e6cea2854a87d4dacc5e5561018082015260009081906101a001604051602081830303815290604052905060008060086001600160a01b0316836040516129769190615528565b600060405180830381855afa9150503d80600081146129b1576040519150601f19603f3d011682016040523d82523d6000602084013e6129b6565b606091505b50915091506000818060200190518101906129d19190615557565b90508280156129dd5750805b979650505050505050565b6000808080806129f9876003615341565b612a0490600c615341565b67ffffffffffffffff811115612a1c57612a1c615579565b604051908082528060200260200182016040528015612a45578160200160208202803683370190505b5090508760001b81600081518110612a5f57612a5f61537e565b6020026020010181815250508660001b81600181518110612a8257612a8261537e565b6020026020010181815250508560001b81600281518110612aa557612aa561537e565b60200260200101818152505060005b612abf60108961532e565b811015612b10578a8a82818110612ad857612ad861537e565b9050602002013582826003612aed9190615341565b81518110612afd57612afd61537e565b6020908102919091010152600101612ab4565b5060005b6010811015612b82578b51612b3c908260108110612b3457612b3461537e565b602002015190565b82826010612b4b8c6003615341565b612b55919061532e565b612b5f9190615341565b81518110612b6f57612b6f61537e565b6020908102919091010152600101612b14565b5060208b01515181612b95896003615341565b81518110612ba557612ba561537e565b6020908102919091018101919091528b810151015181612bc6896003615341565b612bd1906001615341565b81518110612be157612be161537e565b6020908102919091018101919091528b01516040015181612c03896003615341565b612c0e906002615341565b81518110612c1e57612c1e61537e565b6020908102919091018101919091528b01516060015181612c40896003615341565b612c4b906003615341565b81518110612c5b57612c5b61537e565b602090810291909101015260408b01515181612c78896003615341565b612c83906004615341565b81518110612c9357612c9361537e565b60209081029190910181019190915260408c0151015181612cb5896003615341565b612cc0906005615341565b81518110612cd057612cd061537e565b60209081029190910101526040808c0151015181612cef896003615341565b612cfa906006615341565b81518110612d0a57612d0a61537e565b602090810291909101015260408b01516060015181612d2a896003615341565b612d35906007615341565b81518110612d4557612d4561537e565b602090810291909101015260608b01515181612d62896003615341565b612d6d906008615341565b81518110612d7d57612d7d61537e565b60209081029190910181019190915260608c0151015181612d9f896003615341565b612daa906009615341565b81518110612dba57612dba61537e565b602090810291909101015260608b01516040015181612dda896003615341565b612de590600a615341565b81518110612df557612df561537e565b60209081029190910101526060808c0151015181612e14896003615341565b612e1f90600b615341565b81518110612e2f57612e2f61537e565b602002602001018181525050612e4f81604051602001611c17919061558f565b9150612e5a82612f69565b6040805160208101869052929750909550612e759101611c17565b91506000612e8283612f69565b50959c949b509499509097509195505050505050565b6000806000612ea5615175565b85815260c085810180515160208085019190915281518101516040808601919091528251810151606080870191909152925183015160808087019190915260e0808b0180515160a089015280518501519688019690965285518301519087015293518301516101008601529288018051516101208601528051820151610140860152805184015161016086015251909101516101808401529051612f4f91611c17918491016155c5565b9150612f5a82612f69565b90979096509194509092505050565b600080826fffffffffffffffffffffffffffffffff8116608082901c612f8e8261212a565b9450612f998161212a565b9350505050915091565b6000612fb0846007614a9e565b90507f183227397098d014dc2822db40c0ac2e9419f4243cdcb848a1f0fac9f8000000600061301361300d612fe6856003612180565b610614613002612ff78b6000614a9e565b6106148c601c614a9e565b6106148b601b614a9e565b8361214a565b905061309461308961307061305761303e856106196130338d6002614a9e565b6106148e601b614a9e565b61061961304c8c6003614a9e565b6106148d601c614a9e565b6106196130658b6004614a9e565b6106148c601d614a9e565b61061961307e8a6005614a9e565b6106148b601e614a9e565b610619886001614a9e565b90506130b3816106196130a8866001612180565b6106148a6026614a9e565b90506130bf818461214a565b90506130cb818561214a565b855250600090506131076130fc6130f16130e688601b614a9e565b61061989601e614a9e565b610638886023614a9e565b610619876000614a9e565b905061311881610614846002612180565b905061312981610614846001612180565b9050613135818361214a565b9050613141818461214a565b9050808460015b60200201525050505050565b600080600061318c61318261316a89601b614a9e565b6106196131788b6011614a9e565b8a6060015161214a565b8760800151612165565b90506131c5816106146131bb6131a38b601c614a9e565b6106196131b18d6012614a9e565b8c6060015161214a565b8960800151612165565b90506131ea816106146131bb6131dc8b601d614a9e565b6106196131b18d6013614a9e565b905061320f816106146131bb6132018b601e614a9e565b6106196131b18d6014614a9e565b92506000905061323461318261322689601b614a9e565b6106196131788b600d614a9e565b9050613259816106146131bb61324b8b601c614a9e565b6106196131b18d600e614a9e565b905061327e816106146131bb6132708b601d614a9e565b6106196131b18d600f614a9e565b90506132a3816106146131bb6132958b601e614a9e565b6106196131b18d6010614a9e565b9150600090506132cb6132c56132ba89601f614a9e565b6106198a6019614a9e565b8461214a565b9050613300816106386132fa6132e28b6027614a9e565b6106196132f08d601a614a9e565b8c60a0015161214a565b8561214a565b905061330c818561214a565b60408601525060006133306132fa61332589601a614a9e565b6106148a6027614a9e565b606090950194909452505050505050565b6000806133a061338861337061335b6131bb8a6015614a9e565b6106196133698b6016614a9e565b8a5161214a565b61061961337e8a6017614a9e565b896020015161214a565b610619613396896018614a9e565b886040015161214a565b915060006133d86133bf6133b589601b614a9e565b8860800151612165565b6106196133cd8a6003614a9e565b6106148b6023614a9e565b905060006134036133ea89601c614a9e565b6106196133f88b6000614a9e565b6106148c6024614a9e565b9050600061342e6134158a601d614a9e565b6106196134238c6001614a9e565b6106148d6025614a9e565b905061346e61345661344885610619868d6000015161214a565b610619848c6020015161214a565b6106196134648c6004614a9e565b8b6040015161214a565b935050505060006134836132c5886020614a9e565b905060006134956132c5896020614a9e565b905060006134ce6134b56134aa8b6022614a9e565b6106198c6006614a9e565b6106386134c38c6022614a9e565b6106148d6006614a9e565b905060006134f36134ed6134e2878961214a565b6106148d6020614a9e565b83612180565b90506134ff818861214a565b9050600061352861351a6135148d6006614a9e565b8761214a565b6106386135148e6021614a9e565b60808a018390529050808960055b60200201525050505050505050505050565b600061355660006001612180565b9050600061356660006002612180565b9050600061357660006003612180565b9050600061359361358888601c614a9e565b61063889601b614a9e565b905060006135b06135a589601d614a9e565b6106388a601c614a9e565b905060006135cd6135c28a601e614a9e565b6106388b601d614a9e565b905060006135ea6135df8b6023614a9e565b6106388c601e614a9e565b9050836135fb81610614818b612165565b905061360b81610614878a612165565b905061361b816106148789612165565b905061362c816106148d6008614a9e565b9050613638818a61214a565b60c08b0152508261364d81610614818b612165565b905061365d81610614868a612165565b905061366d816106148689612165565b905061367e816106148d6008614a9e565b905061368a818a61214a565b60e08b0152508161369f81610614818b612165565b90506136af81610614858a612165565b90506136bf816106148589612165565b90506136d0816106148d6008614a9e565b90506136dc818a61214a565b6101008b015250806136f281610614818b612165565b905061370281610614848a612165565b9050613712816106148489612165565b9050613723816106148d6008614a9e565b905061372f818a61214a565b9050808a6009613536565b61377a6040518060e00160405280600081526020016000815260200160008152602001600081526020016000815260200160008152602001600081525090565b61378584601c614a9e565b815261379284601d614a9e565b60208201526137a2846023614a9e565b60408201526137b2846026614a9e565b60608201526137c2846025614a9e565b60808201526137d2846024614a9e565b60a082015260006137e4856002614a9e565b905060006137f3866000614a9e565b9050600061380984604001518560000151612180565b9050600061381f8560200151866020015161214a565b60608601519091508690600090613836908061214a565b9050600061385561384f89602001518a6060015161214a565b8861214a565b9050600061387561386e8a60a001518b60400151612165565b8a51612165565b9050613884613514828861214a565b90506138ab6138a561389f6138998487612180565b88612180565b84612165565b83612165565b90506138d36138c86138bd838761214a565b6106148f6009614a9e565b61061460018a612180565b6101408c015250505050602085015160808601516000916138f391612165565b9050600061391261390888606001518861214a565b8860200151612180565b90506000613938613923848761214a565b6106196132fa8b60a001518c60000151612180565b905061396061395561394a838c61214a565b6106148e6009614a9e565b610614600189612180565b6101608b01525060009150613982905061397b836011612165565b875161214a565b905060006139908384612165565b905061399c8182612165565b905060006139ab83600961214a565b90506139d56139cf6132c56139c88b60a001518c60000151612165565b8b51612165565b82612180565b60c089018190526000906139f19061384f906138bd908d61214a565b9050613a048b600a602002015182612165565b6101408c01525050865160009250613a2c915061397b90613a259080612165565b8851612165565b90506000613a6e613a49836106148a600001518b60a00151612180565b602089015161063890613a5c9080612165565b6106148b602001518c60800151612165565b9050613a8b89600b602002015161061961384f6138bd858d61214a565b89600b602002015250505050505050505050565b613b49604051806102c00160405280600081526020016000815260200160008152602001600081526020016000815260200160008152602001600081526020016000815260200160008152602001600081526020016000815260200160008152602001600081526020016000815260200160008152602001600081526020016000815260200160008152602001600081526020016000815260200160008152602001600081525090565b613b7e613b65613b5a87601b614a9e565b610614886024614a9e565b610619613b73886023614a9e565b61061489601c614a9e565b8152613bc3613bb8613b9f613b9488601b614a9e565b61061489601e614a9e565b610619613bad89601c614a9e565b6106148a601d614a9e565b610638876025614a9e565b60408201819052613bd890600160441b61214a565b60408201819052613bee90610638876026614a9e565b604082018190528151613c019190612165565b60408201819052613c1790610614876005614a9e565b60408201528051613c2c90600160441b61214a565b808252613c4c90610619613c41886023614a9e565b610614896024614a9e565b80825260208201819052613c68906106386130e688601d614a9e565b60208201819052613c7e90610614876004614a9e565b6020820152805160608201819052613c9b9061061987601e614a9e565b60608201819052613cbf90610638613cb4886025614a9e565b610619896026614a9e565b60608201819052613cd590610614876000614a9e565b8160600181815250506000613cff613cf583602001518460400151612165565b8360600151612165565b9050613d1081610614886003614a9e565b9050613d28613d20876024614a9e565b61400061214a565b60808301819052613d3e90610619886023614a9e565b60808301819052613d519061400061214a565b60808301819052613d679061061988601d614a9e565b60808301819052613d7a9061400061214a565b60808301819052613d909061061988601c614a9e565b60808301819052613da39061400061214a565b60808301819052613db99061061988601b614a9e565b60808301819052613dcf9061063888601e614a9e565b60808301819052613de590610614886005614a9e565b6080830152613df8613d20876025614a9e565b60a08301819052613e0e90610619886024614a9e565b60a08301819052613e219061400061214a565b60a08301819052613e3790610619886023614a9e565b60a08301819052613e4a9061400061214a565b60a08301819052613e609061061988601e614a9e565b60a08301819052613e739061400061214a565b60a08301819052613e899061061988601d614a9e565b60a08301819052613e9f90610638886026614a9e565b60a08301819052613eb590610614886000614a9e565b60a083018190526080830151600091613ece9190612165565b9050613edf81610614896004614a9e565b9050613ef9613eef88601d614a9e565b876040015161214a565b60c08401819052613f129061061961337e8a601c614a9e565b60c08401819052613f3290610619613f2b8a601b614a9e565b895161214a565b60c08401819052613f4890610619896001614a9e565b60c0840181905260e08401819052613f659061063889601e614a9e565b60c0840152613f78613588886023614a9e565b610140840152613f97613f8c886026614a9e565b61063889601e614a9e565b610120840152610140830151613fbc90613fb1908061214a565b846101400151612180565b610280840152610140830151613fff90613ff490613fed90610614600160008051602061561183398151915261532e565b6001612165565b84610120015161214a565b6101608401819052614036906140289061061461401d8b6002614a9e565b6106148c6003614a9e565b6106146135148a600a614a9e565b6101a0860152610280830151614058906140289061061461401d8b6002614a9e565b6101c086015260c0830151614080906106146140758a6002614a9e565b6106148b6003614a9e565b6101e084015260006140a061409689601e614a9e565b8560e00151612180565b90506140af6139cf828361214a565b6101a08501526140c3613396896025614a9e565b61010085018190526140e7906106196140dd8b6024614a9e565b8a6020015161214a565b6101008501819052614101906106196133698b6023614a9e565b610100850152614120614115896026614a9e565b856101000151612180565b61010085015260006141366135c28a6025614a9e565b905061418c61416561300d613fed8861014001516001600080516020615611833981519152610614919061532e565b610614613fed8861010001516001600080516020615611833981519152610614919061532e565b6101808601526101008501516141b1906141a6908061214a565b866101000151612180565b6101c08601526101808501516141e4906141d0906106148c6007614a9e565b6106146141de8c600a614a9e565b8961214a565b6101e0880152610280850151614203906141d0906106148c6007614a9e565b6102008801526101c0850151614222906141d0906106148c6007614a9e565b6102208801526101a085015161423d906106148b6007614a9e565b61020086015261425c6142518a6024614a9e565b6106388b601c614a9e565b61022086015261014085015161429c906135c29061429190613fed90610614600160008051602061561183398151915261532e565b87610220015161214a565b61024086018190526101e086015161026087018190526142d391610619906106146142c88e6005614a9e565b6106148f6002614a9e565b610260860181905260c08601516142f79190610619906106146142c88e6000614a9e565b610260860181905261020086015161430f9190612165565b61026086018190526143259061389f9086612165565b6102a0860181905261433f906106146141de8c600a614a9e565b6102a0860181905287600c6020020152505050505050505050565b6143e160405180610220016040528060008152602001600081526020016000815260200160008152602001600081526020016000815260200160008152602001600081526020016000815260200160008152602001600081526020016000815260200160008152602001600081526020016000815260200160008152602001600081525090565b6143fa6143ef85601b614a9e565b610619866002614a9e565b815261441561440a85601c614a9e565b610619866003614a9e565b602082015261443361442885601d614a9e565b610619866004614a9e565b604082015261445161444685601e614a9e565b610619866005614a9e565b606082015280516144839061447c906144759061446e908061214a565b845161214a565b835161214a565b825161214a565b608082015260208101516144c1906144b7906144ad906144a3908061214a565b846020015161214a565b836020015161214a565b826020015161214a565b60a082015260408101516144ff906144f5906144eb906144e1908061214a565b846040015161214a565b836040015161214a565b826040015161214a565b60c0820152606081015161453d90614533906145299061451f908061214a565b846060015161214a565b836060015161214a565b826060015161214a565b60e0820152608081015160a08201516145569190612165565b61010082015260c081015160e08201516145709190612165565b61012082015260a0810151614594906145899080612165565b826101200151612165565b61014082015260e08101516145b8906145ad9080612165565b826101000151612165565b6101608201526101208101516145ce9080612165565b6101e082018190526145ef906145e49080612165565b826101600151612165565b6101e08201526101008101516146059080612165565b6101a082018190526146269061461b9080612165565b826101400151612165565b6101a0820181905261016082015161463d91612165565b6101808201526101408101516101e08201516146599190612165565b6101c082015261466d61300d85600b614a9e565b61020082018190526102408401516101808301516146989261061991610614906106388a6023614a9e565b83601260200201526146c88360136020020151610619836102000151610614856101a001516106388a6024614a9e565b83601360200201526146f88360146020020151610619836102000151610614856101c001516106388a6025614a9e565b83601460200201526147288360156020020151610619836102000151610614856101e001516106388a6026614a9e565b836015602002015250505050565b61479360405180610160016040528060008152602001600081526020016000815260200160008152602001600081526020016000815260200160008152602001600081526020016000815260200160008152602001600081525090565b600060405180608001604052806147c97f10dc6e9c006ea38b04b1e03b4bd9490c0d03f98929ca1d7fb56821fd19d3b6e761212a565b81526020016147f77f0c28145b6a44df3e0149b3d0a30b3bb599df9756d4dd9b84a86b38cfb45a740b61212a565b81526020016148247e544b8338791518b2c7645a50392798b21f75bb60e3596170067d00141cac1561212a565b81526020016148527f222c01175718386f2e2e82eb122789e352e105a3b8fa852613bc534433ee428b61212a565b9052905061486f61486486601b614a9e565b610619876002614a9e565b61012083018190526148a39061489890613ff49061488d908061214a565b85610120015161214a565b83610120015161214a565b82526148b085601c614a9e565b60208301526148c085601d614a9e565b60408301526148d085601e614a9e565b6060830152815160208301516148f891613cf5916148ee9190612165565b8460400151612165565b608083015261490b6132c586600c614a9e565b610140830152815161492d9061492390836000610f25565b8360800151612165565b60a083015261495984601660200201516106198461014001516106148660a001516106388b6023614a9e565b6102c085015260208201516149749061492390836001610f25565b60c08301526149a084601760200201516106198461014001516106148660c001516106388b6024614a9e565b6102e085015260408201516149bb9061492390836002610f25565b60e08301526149e784601860200201516106198461014001516106148660e001516106388b6025614a9e565b6103008501526060820151614a029061492390836003610f25565b610100830152614a3084601960200201516106198461014001516106148661010001516106388b6026614a9e565b846019613148565b6000614a458184816108fe565b905060015b601a811015614a9757614a8d826106198684601a8110614a6c57614a6c61537e565b602002015186614a7d60018761532e565b60198110610f2557610f2561537e565b9150600101614a4a565b5092915050565b600082826027811115614ab357614ab36155fa565b60288110614ac357614ac361537e565b60200201519392505050565b604051806103c00160405280600081526020016000815260200160008152602001614b0d604051806040016040528060008152602001600081525090565b8152602001614b2f604051806040016040528060008152602001600081525090565b8152602001614b51604051806040016040528060008152602001600081525090565b8152602001614b73604051806040016040528060008152602001600081525090565b8152602001614b95604051806040016040528060008152602001600081525090565b8152602001614bb7604051806040016040528060008152602001600081525090565b8152602001614bd9604051806040016040528060008152602001600081525090565b8152602001614bfb604051806040016040528060008152602001600081525090565b8152602001614c1d604051806040016040528060008152602001600081525090565b8152602001614c3f604051806040016040528060008152602001600081525090565b8152602001614c61604051806040016040528060008152602001600081525090565b8152602001614c83604051806040016040528060008152602001600081525090565b8152602001614ca5604051806040016040528060008152602001600081525090565b8152602001614cc7604051806040016040528060008152602001600081525090565b8152602001614ce9604051806040016040528060008152602001600081525090565b8152602001614d0b604051806040016040528060008152602001600081525090565b8152602001614d2d604051806040016040528060008152602001600081525090565b8152602001614d4f604051806040016040528060008152602001600081525090565b8152602001614d71604051806040016040528060008152602001600081525090565b8152602001614d93604051806040016040528060008152602001600081525090565b8152602001614db5604051806040016040528060008152602001600081525090565b8152602001614dd7604051806040016040528060008152602001600081525090565b8152602001614df9604051806040016040528060008152602001600081525090565b8152602001614e1b604051806040016040528060008152602001600081525090565b8152602001614e3d604051806040016040528060008152602001600081525090565b8152602001614e5f604051806040016040528060008152602001600081525090565b8152602001614e81604051806040016040528060008152602001600081525090565b905290565b604051806101e00160405280614e9a615194565b8152602001614ea7615037565b8152602001614eb4615037565b8152602001614ec1615037565b8152602001614ece615037565b8152602001614edb615037565b8152602001614ee8615037565b8152602001614ef5615037565b8152602001614f02615037565b8152602001614f0f6151b3565b8152602001614f1c6151e1565b8152602001614f29615200565b8152602001614f3661509d565b8152602001614f43615037565b8152602001614e81615037565b604051806101000160405280614f956040518060c001604052806000815260200160008152602001600081526020016000815260200160008152602001600081525090565b8152602001614fa261505f565b8152602001614faf61509d565b8152602001614fbc61509d565b8152602001600081526020016000815260200160008152602001600081525090565b604051806108c001604052806046906020820280368337509192915050565b604051806108c001604052806046905b604080518082019091526000808252602082015281526020019060019003908161500d5790505090565b6040518060800160405280600081526020016000815260200160008152602001600081525090565b6040518061032001604052806019906020820280368337509192915050565b6040518061012001604052806009906020820280368337509192915050565b604051806103800160405280601c906020820280368337509192915050565b6040518061052001604052806029906020820280368337509192915050565b60405180610da00160405280606d906020820280368337509192915050565b604051806103a00160405280601d906020820280368337509192915050565b6040518060a001604052806005906020820280368337509192915050565b6040518061010001604052806008906020820280368337509192915050565b604051806103400160405280601a906020820280368337509192915050565b604051806101a00160405280600d906020820280368337509192915050565b6040518061020001604052806010906020820280368337509192915050565b604051806103800160405280601c905b6151cb615137565b8152602001906001900390816151c35790505090565b6040518061050001604052806028906020820280368337509192915050565b604051806103600160405280601b905b615218615037565b8152602001906001900390816152105790505090565b6000806000806040858703121561524457600080fd5b843567ffffffffffffffff81111561525b57600080fd5b8501601f8101871361526c57600080fd5b803567ffffffffffffffff81111561528357600080fd5b87602082840101111561529557600080fd5b60209182019550935085013567ffffffffffffffff8111156152b657600080fd5b8501601f810187136152c757600080fd5b803567ffffffffffffffff8111156152de57600080fd5b8760208260051b84010111156152f357600080fd5b949793965060200194505050565b634e487b7160e01b600052601160045260246000fd5b808202811582820484141761214457612144615301565b8181038181111561214457612144615301565b8082018082111561214457612144615301565b6000808585111561536457600080fd5b8386111561537157600080fd5b5050820193919092039150565b634e487b7160e01b600052603260045260246000fd5b6000600182016153a6576153a6615301565b5060010190565b8035602083101561214457600019602084900360031b1b1692915050565b60008183825b60098110156153f05781518352602092830192909101906001016153d1565b5050506101208201905092915050565b634e487b7160e01b600052601260045260246000fd5b60008261542557615425615400565b500490565b60008183825b602981101561544f578151835260209283019290910190600101615430565b5050506105208201905092915050565b60008183825b606d811015615484578151835260209283019290910190600101615465565b505050610da08201905092915050565b60008183825b601d8110156154b957815183526020928301929091019060010161549a565b5050506103a08201905092915050565b60008183825b60058110156154ee5781518352602092830192909101906001016154cf565b50505060a08201905092915050565b60008261550c5761550c615400565b500690565b60008161552057615520615301565b506000190190565b6000825160005b81811015615549576020818601810151858301520161552f565b506000920191825250919050565b60006020828403121561556957600080fd5b81518015158114611a2a57600080fd5b634e487b7160e01b600052604160045260246000fd5b8151600090829060208501835b828110156155ba57815184526020938401939091019060010161559c565b509195945050505050565b60008183825b600d8110156155ea5781518352602092830192909101906001016155cb565b5050506101a08201905092915050565b634e487b7160e01b600052602160045260246000fdfe30644e72e131a029b85045b68181585d2833e84879b9709143e1f593f0000001a264697066735822122066c159c361e3c57125c37f9adc886e488175f90bf2adaca3a4bf728331f7621a64736f6c634300081c0033",
  "linkReferences": {},
  "deployedLinkReferences": {}
}