{
  "_format": "hh-sol-artifact-1",
  "contractName": "TokenPool",
  "sourceName": "contracts/darkpool/core/TokenPool.sol",
  "abi": [
    {
      "inputs": [
        {
          "internalType": "address",
          "name": "_entryPoint",
          "type": "address"
        },
        {
          "internalType": "address",
          "name": "_asset",
          "type": "address"
        },
        {
          "internalType": "address",
          "name": "_withdraw_transfer_verifier",
          "type": "address"
        },
        {
          "internalType": "address",
          "name": "_claim_verifier",
          "type": "address"
        },
        {
          "internalType": "uint32",
          "name": "_treeDepth",
          "type": "uint32"
        }
      ],
      "stateMutability": "nonpayable",
      "type": "constructor"
    },
    {
      "inputs": [
        {
          "internalType": "address",
          "name": "token",
          "type": "address"
        }
      ],
      "name": "SafeERC20FailedOperation",
      "type": "error"
    },
    {
      "anonymous": false,
      "inputs": [
        {
          "indexed": true,
          "internalType": "bytes32",
          "name": "leaf",
          "type": "bytes32"
        },
        {
          "indexed": true,
          "internalType": "uint32",
          "name": "leafIndex",
          "type": "uint32"
        },
        {
          "indexed": false,
          "internalType": "bytes32",
          "name": "newRoot",
          "type": "bytes32"
        }
      ],
      "name": "CommitmentInserted",
      "type": "event"
    },
    {
      "anonymous": false,
      "inputs": [
        {
          "indexed": true,
          "internalType": "bytes32",
          "name": "noteID",
          "type": "bytes32"
        },
        {
          "indexed": false,
          "internalType": "uint256",
          "name": "amount",
          "type": "uint256"
        }
      ],
      "name": "NoteClaimed",
      "type": "event"
    },
    {
      "anonymous": false,
      "inputs": [
        {
          "indexed": true,
          "internalType": "bytes32",
          "name": "receiverHash",
          "type": "bytes32"
        },
        {
          "indexed": false,
          "internalType": "uint256",
          "name": "amount",
          "type": "uint256"
        },
        {
          "indexed": false,
          "internalType": "uint256",
          "name": "noteNonce",
          "type": "uint256"
        }
      ],
      "name": "NoteCreated",
      "type": "event"
    },
    {
      "anonymous": false,
      "inputs": [
        {
          "indexed": true,
          "internalType": "address",
          "name": "spender",
          "type": "address"
        },
        {
          "indexed": false,
          "internalType": "uint256",
          "name": "amount",
          "type": "uint256"
        }
      ],
      "name": "WithdrawalApproved",
      "type": "event"
    },
    {
      "inputs": [],
      "name": "TREE_DEPTH",
      "outputs": [
        {
          "internalType": "uint32",
          "name": "",
          "type": "uint32"
        }
      ],
      "stateMutability": "view",
      "type": "function"
    },
    {
      "inputs": [
        {
          "components": [
            {
              "internalType": "bytes",
              "name": "honkProof",
              "type": "bytes"
            },
            {
              "internalType": "bytes32[]",
              "name": "publicInputs",
              "type": "bytes32[]"
            }
          ],
          "internalType": "struct ProofLib.WithdrawOrTransferParams",
          "name": "params",
          "type": "tuple"
        }
      ],
      "name": "approveWithdrawal",
      "outputs": [
        {
          "internalType": "uint32",
          "name": "leafIndex",
          "type": "uint32"
        }
      ],
      "stateMutability": "nonpayable",
      "type": "function"
    },
    {
      "inputs": [],
      "name": "asset",
      "outputs": [
        {
          "internalType": "contract IERC20",
          "name": "",
          "type": "address"
        }
      ],
      "stateMutability": "view",
      "type": "function"
    },
    {
      "inputs": [
        {
          "components": [
            {
              "internalType": "bytes",
              "name": "honkProof",
              "type": "bytes"
            },
            {
              "internalType": "bytes32[]",
              "name": "publicInputs",
              "type": "bytes32[]"
            }
          ],
          "internalType": "struct ProofLib.ClaimParams",
          "name": "params",
          "type": "tuple"
        }
      ],
      "name": "claim",
      "outputs": [
        {
          "internalType": "uint32",
          "name": "leafIndex",
          "type": "uint32"
        }
      ],
      "stateMutability": "nonpayable",
      "type": "function"
    },
    {
      "inputs": [],
      "name": "claimVerifier",
      "outputs": [
        {
          "internalType": "contract IVerifier",
          "name": "",
          "type": "address"
        }
      ],
      "stateMutability": "view",
      "type": "function"
    },
    {
      "inputs": [],
      "name": "claim_verifier",
      "outputs": [
        {
          "internalType": "address",
          "name": "",
          "type": "address"
        }
      ],
      "stateMutability": "view",
      "type": "function"
    },
    {
      "inputs": [],
      "name": "currentRoot",
      "outputs": [
        {
          "internalType": "bytes32",
          "name": "",
          "type": "bytes32"
        }
      ],
      "stateMutability": "view",
      "type": "function"
    },
    {
      "inputs": [],
      "name": "currentRootIndex",
      "outputs": [
        {
          "internalType": "uint32",
          "name": "",
          "type": "uint32"
        }
      ],
      "stateMutability": "view",
      "type": "function"
    },
    {
      "inputs": [
        {
          "internalType": "uint256",
          "name": "amount",
          "type": "uint256"
        },
        {
          "internalType": "bytes32",
          "name": "precommitment",
          "type": "bytes32"
        }
      ],
      "name": "deposit",
      "outputs": [
        {
          "internalType": "uint32",
          "name": "leafIndex",
          "type": "uint32"
        }
      ],
      "stateMutability": "payable",
      "type": "function"
    },
    {
      "inputs": [
        {
          "internalType": "bytes32",
          "name": "receiverHash",
          "type": "bytes32"
        },
        {
          "internalType": "uint256",
          "name": "amount",
          "type": "uint256"
        }
      ],
      "name": "depositFor",
      "outputs": [],
      "stateMutability": "nonpayable",
      "type": "function"
    },
    {
      "inputs": [],
      "name": "entryPoint",
      "outputs": [
        {
          "internalType": "address",
          "name": "",
          "type": "address"
        }
      ],
      "stateMutability": "view",
      "type": "function"
    },
    {
      "inputs": [
        {
          "internalType": "uint32",
          "name": "leafIndex",
          "type": "uint32"
        }
      ],
      "name": "getLeaf",
      "outputs": [
        {
          "internalType": "bytes32",
          "name": "",
          "type": "bytes32"
        }
      ],
      "stateMutability": "view",
      "type": "function"
    },
    {
      "inputs": [
        {
          "internalType": "uint32",
          "name": "leafIndex",
          "type": "uint32"
        }
      ],
      "name": "getPath",
      "outputs": [
        {
          "internalType": "bytes32[]",
          "name": "siblings",
          "type": "bytes32[]"
        }
      ],
      "stateMutability": "view",
      "type": "function"
    },
    {
      "inputs": [
        {
          "internalType": "bytes32",
          "name": "",
          "type": "bytes32"
        }
      ],
      "name": "isNullifierSpent",
      "outputs": [
        {
          "internalType": "bool",
          "name": "",
          "type": "bool"
        }
      ],
      "stateMutability": "view",
      "type": "function"
    },
    {
      "inputs": [],
      "name": "nextLeafIndex",
      "outputs": [
        {
          "internalType": "uint32",
          "name": "",
          "type": "uint32"
        }
      ],
      "stateMutability": "view",
      "type": "function"
    },
    {
      "inputs": [],
      "name": "noteNonce",
      "outputs": [
        {
          "internalType": "uint256",
          "name": "",
          "type": "uint256"
        }
      ],
      "stateMutability": "view",
      "type": "function"
    },
    {
      "inputs": [
        {
          "internalType": "bytes32",
          "name": "_noteID",
          "type": "bytes32"
        }
      ],
      "name": "notes",
      "outputs": [
        {
          "internalType": "uint256",
          "name": "value",
          "type": "uint256"
        },
        {
          "internalType": "bytes32",
          "name": "receiverHash",
          "type": "bytes32"
        },
        {
          "internalType": "uint256",
          "name": "claimedBlockNumber",
          "type": "uint256"
        }
      ],
      "stateMutability": "view",
      "type": "function"
    },
    {
      "inputs": [
        {
          "internalType": "uint256",
          "name": "_index",
          "type": "uint256"
        }
      ],
      "name": "roots",
      "outputs": [
        {
          "internalType": "bytes32",
          "name": "_root",
          "type": "bytes32"
        }
      ],
      "stateMutability": "view",
      "type": "function"
    },
    {
      "inputs": [
        {
          "internalType": "address",
          "name": "newVerifier",
          "type": "address"
        }
      ],
      "name": "setClaimVerifier",
      "outputs": [],
      "stateMutability": "nonpayable",
      "type": "function"
    },
    {
      "inputs": [
        {
          "internalType": "address",
          "name": "newVerifier",
          "type": "address"
        }
      ],
      "name": "setWithdrawTransferVerifier",
      "outputs": [],
      "stateMutability": "nonpayable",
      "type": "function"
    },
    {
      "inputs": [
        {
          "components": [
            {
              "internalType": "bytes",
              "name": "honkProof",
              "type": "bytes"
            },
            {
              "internalType": "bytes32[]",
              "name": "publicInputs",
              "type": "bytes32[]"
            }
          ],
          "internalType": "struct ProofLib.WithdrawOrTransferParams",
          "name": "params",
          "type": "tuple"
        },
        {
          "internalType": "bytes32",
          "name": "receiverHash",
          "type": "bytes32"
        }
      ],
      "name": "transfer",
      "outputs": [
        {
          "internalType": "uint32",
          "name": "leafIndex",
          "type": "uint32"
        }
      ],
      "stateMutability": "nonpayable",
      "type": "function"
    },
    {
      "inputs": [
        {
          "internalType": "address",
          "name": "receiver",
          "type": "address"
        },
        {
          "components": [
            {
              "internalType": "bytes",
              "name": "honkProof",
              "type": "bytes"
            },
            {
              "internalType": "bytes32[]",
              "name": "publicInputs",
              "type": "bytes32[]"
            }
          ],
          "internalType": "struct ProofLib.WithdrawOrTransferParams",
          "name": "params",
          "type": "tuple"
        }
      ],
      "name": "withdraw",
      "outputs": [
        {
          "internalType": "uint32",
          "name": "leafIndex",
          "type": "uint32"
        }
      ],
      "stateMutability": "nonpayable",
      "type": "function"
    },
    {
      "inputs": [],
      "name": "withdrawVerifier",
      "outputs": [
        {
          "internalType": "contract IVerifier",
          "name": "",
          "type": "address"
        }
      ],
      "stateMutability": "view",
      "type": "function"
    },
    {
      "inputs": [],
      "name": "withdraw_transfer_verifier",
      "outputs": [
        {
          "internalType": "address",
          "name": "",
          "type": "address"
        }
      ],
      "stateMutability": "view",
      "type": "function"
    }
  ],
  "bytecode": "0x60c060405234801561001057600080fd5b5060405161270938038061270983398101604081905261002f9161028e565b6001600160a01b0385811660805284811660a052600280546001600160a01b0319908116858416179091556003805490911691851691909117905561007560048261007f565b5050505050610346565b60008163ffffffff16116100ea5760405162461bcd60e51b815260206004820152602860248201527f4d65726b6c65547265653a206465707468206d75737420626520677265617465604482015267072207468616e20360c41b606482015260840160405180910390fd5b60028201805463ffffffff191663ffffffff831617905561010c816001610300565b63ffffffff166001600160401b0381111561012957610129610330565b60405190808252806020026020018201604052801561015c57816020015b60608152602001906001900390816101475790505b50805161017391600185019160209091019061017b565b505060009055565b8280548282559060005260206000209081019282156101c8579160200282015b828111156101c857825180516101b89184916020909101906101d8565b509160200191906001019061019b565b506101d492915061021f565b5090565b828054828255906000526020600020908101928215610213579160200282015b828111156102135782518255916020019190600101906101f8565b506101d492915061023c565b808211156101d45760006102338282610251565b5060010161021f565b5b808211156101d4576000815560010161023d565b508054600082559060005260206000209081019061026f919061023c565b50565b80516001600160a01b038116811461028957600080fd5b919050565b600080600080600060a086880312156102a657600080fd5b6102af86610272565b94506102bd60208701610272565b93506102cb60408701610272565b92506102d960608701610272565b9150608086015163ffffffff811681146102f257600080fd5b809150509295509295909350565b63ffffffff818116838216019081111561032a57634e487b7160e01b600052601160045260246000fd5b92915050565b634e487b7160e01b600052604160045260246000fd5b60805160a0516123586103b1600039600081816101b30152818161057a015281816105a6015281816108f801528181610b1301528181610e31015281816110840152818161115701526111da0152600081816104200152818161068d01526106f701526123586000f3fe60806040526004361061014b5760003560e01c80639258e9d0116100b6578063b0d691fe1161006f578063b0d691fe1461040e578063c2b40ae414610442578063c9630cb01461046f578063d5a4e32514610482578063f1650536146104c2578063fdab463d146104dd57600080fd5b80639258e9d01461034d57806398828ec1146103635780639e94c2f514610383578063a5b55751146103b0578063a93539d0146103ce578063ac823ae9146103ee57600080fd5b80635d597fe1116101085780635d597fe11461025b5780637a225e101461027b5780637d225d3c1461029b57806385de26b7146102b9578063864eb1641461031057806390eeb02b1461033057600080fd5b80630be4f422146101505780631da1bbfb1461017f57806338d52e0f146101a157806338eb8425146101ed5780633c4fb1501461020d578063517af08b1461022d575b600080fd5b34801561015c57600080fd5b506101656104f2565b60405163ffffffff90911681526020015b60405180910390f35b34801561018b57600080fd5b5061019f61019a366004611d30565b61051c565b005b3480156101ad57600080fd5b506101d57f000000000000000000000000000000000000000000000000000000000000000081565b6040516001600160a01b039091168152602001610176565b3480156101f957600080fd5b5061019f610208366004611d69565b610682565b34801561021957600080fd5b5061019f610228366004611d69565b6106ec565b34801561023957600080fd5b5061024d610248366004611d84565b610756565b604051908152602001610176565b34801561026757600080fd5b50610165610276366004611f6e565b6107a2565b34801561028757600080fd5b50610165610296366004611fb3565b6109f3565b3480156102a757600080fd5b506003546001600160a01b03166101d5565b3480156102c557600080fd5b506102f56102d4366004611fe8565b60096020526000908152604090208054600182015460029092015490919083565b60408051938452602084019290925290820152606001610176565b34801561031c57600080fd5b506003546101d5906001600160a01b031681565b34801561033c57600080fd5b506000546101659063ffffffff1681565b34801561035957600080fd5b5061024d60015481565b34801561036f57600080fd5b5061016561037e366004611fb3565b610cef565b34801561038f57600080fd5b506103a361039e366004611d84565b610f1a565b604051610176919061203d565b3480156103bc57600080fd5b506002546001600160a01b03166101d5565b3480156103da57600080fd5b506002546101d5906001600160a01b031681565b3480156103fa57600080fd5b50610165610409366004612050565b610f2d565b34801561041a57600080fd5b506101d57f000000000000000000000000000000000000000000000000000000000000000081565b34801561044e57600080fd5b5061024d61045d366004611fe8565b60086020526000908152604090205481565b61016561047d366004611d30565b6110b5565b34801561048e57600080fd5b506104b261049d366004611fe8565b60076020526000908152604090205460ff1681565b6040519015158152602001610176565b3480156104ce57600080fd5b5060065463ffffffff16610165565b3480156104e957600080fd5b5060045461024d565b6000600460010160008154811061050b5761050b61209e565b600091825260209091200154919050565b6000811161056d5760405162461bcd60e51b8152602060048201526019602482015278105cdcd95d141bdbdb0e88125b9d985b1a5908185b5bdd5b9d603a1b60448201526064015b60405180910390fd5b6105a26001600160a01b037f0000000000000000000000000000000000000000000000000000000000000000163330846111fe565b60007f00000000000000000000000000000000000000000000000000000000000000006001546040516020016105d99291906120b4565b60408051808303601f190181528282528051602091820120606084018352858452818401878152600085850181815283825260098552908590209551865590516001808701919091559051600290950194909455925482518681529182015291925084917f10c23c4dc3181e123ce7ac6200b999abe0d02995a4e22d437b94a2c3f3814d30910160405180910390a260018054906000610678836120ec565b9190505550505050565b336001600160a01b037f000000000000000000000000000000000000000000000000000000000000000016146106ca5760405162461bcd60e51b815260040161056490612105565b600280546001600160a01b0319166001600160a01b0392909216919091179055565b336001600160a01b037f000000000000000000000000000000000000000000000000000000000000000016146107345760405162461bcd60e51b815260040161056490612105565b600380546001600160a01b0319166001600160a01b0392909216919091179055565b6000600460010160008154811061076f5761076f61209e565b906000526020600020018263ffffffff16815481106107905761079061209e565b90600052602060002001549050919050565b6000828060200151516004146107ca5760405162461bcd60e51b81526004016105649061214c565b60035481516020830151604051633a94343960e21b81526001600160a01b039093169263ea50d0e49261080192909160040161218d565b602060405180830381865afa15801561081e573d6000803e3d6000fd5b505050506040513d601f19601f8201168201806040525081019061084291906121f2565b61085e5760405162461bcd60e51b81526004016105649061214c565b61086f61086a8561126b565b611293565b61088b5760405162461bcd60e51b815260040161056490612214565b61089c6108978561130f565b611328565b6108b06108a8856113ad565b6004906113c6565b91506108c06004600001546117d9565b8163ffffffff166108d0856113ad565b6004546040519081526000805160206123038339815191529060200160405180910390a360007f000000000000000000000000000000000000000000000000000000000000000060015460405160200161092b9291906120b4565b604051602081830303815290604052805190602001209050604051806060016040528061095787611823565b81526020808201879052600060409283018190528481526009825282902083518155908301516001820155910151600290910155837f10c23c4dc3181e123ce7ac6200b999abe0d02995a4e22d437b94a2c3f3814d306109b687611823565b6001546040805192835260208301919091520160405180910390a2600180549060006109e1836120ec565b919050555060009250505b5092915050565b600081806020015151600614610a4b5760405162461bcd60e51b815260206004820152601e60248201527f4173736574506f6f6c3a20496e76616c696420636c61696d2070726f6f6600006044820152606401610564565b60025481516020830151604051633a94343960e21b81526001600160a01b039093169263ea50d0e492610a8292909160040161218d565b602060405180830381865afa158015610a9f573d6000803e3d6000fd5b505050506040513d601f19601f82011682018060405250810190610ac391906121f2565b610b0f5760405162461bcd60e51b815260206004820152601e60248201527f4173736574506f6f6c3a20496e76616c696420636c61696d2070726f6f6600006044820152606401610564565b60007f0000000000000000000000000000000000000000000000000000000000000000610b3b8561184e565b604051602001610b4c9291906120b4565b60408051601f1981840301815291815281516020928301206000818152600990935291206002015490915015610bc45760405162461bcd60e51b815260206004820152601f60248201527f4173736574506f6f6c3a204e6f746520616c726561647920636c61696d6564006044820152606401610564565b610bcd84611867565b15610c5b57610bde61086a856113ad565b610bfa5760405162461bcd60e51b815260040161056490612214565b610c0661089785611895565b610c126108a8856118ae565b9250610c226004600001546117d9565b8263ffffffff16610c32856118ae565b6004546040519081526000805160206123038339815191529060200160405180910390a3610cac565b610c676108a8856118ae565b9250610c776004600001546117d9565b8263ffffffff16610c87856118ae565b6004546040519081526000805160206123038339815191529060200160405180910390a35b807fb96016b446db7e47fbeb476a13129edd4d7fecea6a760df92f68f5723905cecc610cd786611823565b60405190815260200160405180910390a25050919050565b600081806020015151600414610d175760405162461bcd60e51b81526004016105649061214c565b60035481516020830151604051633a94343960e21b81526001600160a01b039093169263ea50d0e492610d4e92909160040161218d565b602060405180830381865afa158015610d6b573d6000803e3d6000fd5b505050506040513d601f19601f82011682018060405250810190610d8f91906121f2565b610dab5760405162461bcd60e51b81526004016105649061214c565b610db761086a8461126b565b610dd35760405162461bcd60e51b815260040161056490612214565b610ddf6108978461130f565b610deb6108a8846113ad565b9150610dfb6004600001546117d9565b8163ffffffff16610e0b846113ad565b6004546040519081526000805160206123038339815191529060200160405180910390a37f00000000000000000000000000000000000000000000000000000000000000006001600160a01b031663095ea7b333610e6886611823565b6040516001600160e01b031960e085901b1681526001600160a01b03909216600483015260248201526044016020604051808303816000875af1158015610eb3573d6000803e3d6000fd5b505050506040513d601f19601f82011682018060405250810190610ed791906121f2565b50337f8ffbcb5e5bcb810975de2605ca8e4dbdbf14faffdacf75c660a9ac7b276f0842610f0385611823565b60405190815260200160405180910390a250919050565b6060610f276004836118c7565b92915050565b600081806020015151600414610f555760405162461bcd60e51b81526004016105649061214c565b60035481516020830151604051633a94343960e21b81526001600160a01b039093169263ea50d0e492610f8c92909160040161218d565b602060405180830381865afa158015610fa9573d6000803e3d6000fd5b505050506040513d601f19601f82011682018060405250810190610fcd91906121f2565b610fe95760405162461bcd60e51b81526004016105649061214c565b610ff561086a8461126b565b6110115760405162461bcd60e51b815260040161056490612214565b61101d6108978461130f565b6110296108a8846113ad565b91506110396004600001546117d9565b8163ffffffff16611049846113ad565b6004546040519081526000805160206123038339815191529060200160405180910390a36110ab8461107a85611823565b6001600160a01b037f0000000000000000000000000000000000000000000000000000000000000000169190611ac1565b5060009392505050565b60008083116111025760405162461bcd60e51b8152602060048201526019602482015278105cdcd95d141bdbdb0e88125b9d985b1a5908185b5bdd5b9d603a1b6044820152606401610564565b8161114f5760405162461bcd60e51b815260206004820181905260248201527f4173736574506f6f6c3a20496e76616c696420707265636f6d6d69746d656e746044820152606401610564565b600061117c847f000000000000000000000000000000000000000000000000000000000000000085611af7565b90506111896004826113c6565b91506111996004600001546117d9565b8163ffffffff16816000805160206123038339815191526004600001546040516111c591815260200190565b60405180910390a36109ec6001600160a01b037f0000000000000000000000000000000000000000000000000000000000000000163330875b6040516001600160a01b0384811660248301528381166044830152606482018390526112659186918216906323b872dd906084015b604051602081830303815290604052915060e01b6020820180516001600160e01b038381831617835250505050611ba4565b50505050565b600081602001516001815181106112845761128461209e565b60200260200101519050919050565b6000816112a257506000919050565b6000805463ffffffff16905b606463ffffffff821610156110ab5763ffffffff821660009081526008602052604090205484036112e3575060019392505050565b606460016112f1828561224b565b6112fb9190612267565b6113059190612299565b91506001016112ae565b600081602001516002815181106112845761128461209e565b60008181526007602052604090205460ff16156113925760405162461bcd60e51b815260206004820152602260248201527f4173736574506f6f6c3a204e756c6c696669657220616c7265616479207370656044820152611b9d60f21b6064820152608401610564565b6000908152600760205260409020805460ff19166001179055565b600081602001516003815181106112845761128461209e565b600282015460009063ffffffff1661142c5760405162461bcd60e51b815260206004820152602360248201527f4d65726b6c65547265653a2074726565206973206e6f7420696e697469616c696044820152621e995960ea1b6064820152608401610564565b826001016000815481106114425761144261209e565b6000918252602090912001546002840154909150600163ffffffff9182161b908216106114b15760405162461bcd60e51b815260206004820152601860248201527f4d65726b6c65547265653a20747265652069732066756c6c00000000000000006044820152606401610564565b826001016000815481106114c7576114c761209e565b60009182526020808320909101805460018101825590835290822001839055829082905b600286015463ffffffff908116908216101561170557600061150e600284612299565b63ffffffff161515905060008161152f5761152a84600161224b565b61153a565b61153a600185612267565b90506000886001018463ffffffff16815481106115595761155961209e565b60009182526020909120015463ffffffff831610156115c057886001018463ffffffff168154811061158d5761158d61209e565b906000526020600020018263ffffffff16815481106115ae576115ae61209e565b906000526020600020015490506115c4565b5060005b6000816115d2575085611603565b6000846115df57876115e1565b825b90506000856115f057836115f2565b885b90506115fe8282611c15565b925050505b60006116106002886122c1565b90508a600101866001611623919061224b565b63ffffffff16815481106116395761163961209e565b60009182526020909120015463ffffffff82161061169b578a600101866001611662919061224b565b63ffffffff16815481106116785761167861209e565b6000918252602080832090910180546001810182559083529120018290556116f1565b818b6001018760016116ad919061224b565b63ffffffff16815481106116c3576116c361209e565b906000526020600020018263ffffffff16815481106116e4576116e461209e565b6000918252602090912001555b909650945050600190920191506114eb9050565b50818555600285015460018601805460009263ffffffff1690811061172c5761172c61209e565b600091825260209091200154111561178f5784546002860154600187018054909163ffffffff169081106117625761176261209e565b9060005260206000200160008154811061177e5761177e61209e565b6000918252602090912001556117d1565b6002850154600186018054909163ffffffff169081106117b1576117b161209e565b600091825260208083208854920180546001810182559084529220909101555b505092915050565b600080546064906117f19063ffffffff16600161224b565b6117fb9190612299565b63ffffffff16600081815260086020526040812093909355825463ffffffff19161790915550565b6000816020015160008151811061183c5761183c61209e565b602002602001015160001c9050919050565b6000816020015160018151811061183c5761183c61209e565b60008060001b82602001516004815181106118845761188461209e565b602002602001015114159050919050565b600081602001516004815181106112845761128461209e565b600081602001516005815181106112845761128461209e565b6060826001016000815481106118df576118df61209e565b60009182526020909120015463ffffffff83161080156118fd575060015b6119555760405162461bcd60e51b815260206004820152602360248201527f4d65726b6c65547265653a206c656166496e646578206f7574206f6620626f756044820152626e647360e81b6064820152608401610564565b600283015463ffffffff1667ffffffffffffffff81111561197857611978611daa565b6040519080825280602002602001820160405280156119a1578160200160208202803683370190505b5090508160005b600285015463ffffffff90811690821610156117d15760006119cb600284612299565b63ffffffff16151590506000816119ec576119e784600161224b565b6119f7565b6119f7600185612267565b90506000876001018463ffffffff1681548110611a1657611a1661209e565b60009182526020909120015463ffffffff83161015611a7d57876001018463ffffffff1681548110611a4a57611a4a61209e565b906000526020600020018263ffffffff1681548110611a6b57611a6b61209e565b90600052602060002001549050611a81565b5060005b80868563ffffffff1681518110611a9a57611a9a61209e565b6020908102919091010152611ab06002866122c1565b945050600190920191506119a89050565b6040516001600160a01b03838116602483015260448201839052611af291859182169063a9059cbb90606401611233565b505050565b600073__$ee2cedc55bc524f21318fcb2e882e10c7c$__63e16f6200611b1c86611caf565b6001600160a01b038616611b2f86611caf565b6040516001600160e01b031960e086901b168152600481019390935260248301919091526044820152606401602060405180830381865af4158015611b78573d6000803e3d6000fd5b505050506040513d601f19601f82011682018060405250810190611b9c91906122e9565b949350505050565b600080602060008451602086016000885af180611bc7576040513d6000823e3d81fd5b50506000513d91508115611bdf578060011415611bec565b6001600160a01b0384163b155b1561126557604051635274afe760e01b81526001600160a01b0385166004820152602401610564565b600073__$ee2cedc55bc524f21318fcb2e882e10c7c$__63055d8d54611c3a85611caf565b611c4385611caf565b6040516001600160e01b031960e085901b16815260048101929092526024820152604401602060405180830381865af4158015611c84573d6000803e3d6000fd5b505050506040513d601f19601f82011682018060405250810190611ca891906122e9565b9392505050565b80611cb981611cbe565b919050565b7f30644e72e131a029b85045b68181585d2833e84879b9709143e1f593f00000018110611d2d5760405162461bcd60e51b815260206004820152601960248201527f4669656c643a20696e70757420697320746f6f206c61726765000000000000006044820152606401610564565b50565b60008060408385031215611d4357600080fd5b50508035926020909101359150565b80356001600160a01b0381168114611cb957600080fd5b600060208284031215611d7b57600080fd5b611ca882611d52565b600060208284031215611d9657600080fd5b813563ffffffff81168114611ca857600080fd5b634e487b7160e01b600052604160045260246000fd5b6040805190810167ffffffffffffffff81118282101715611de357611de3611daa565b60405290565b604051601f8201601f1916810167ffffffffffffffff81118282101715611e1257611e12611daa565b604052919050565b600082601f830112611e2b57600080fd5b813567ffffffffffffffff811115611e4557611e45611daa565b8060051b611e5560208201611de9565b91825260208185018101929081019086841115611e7157600080fd5b6020860192505b83831015611e93578235825260209283019290910190611e78565b9695505050505050565b600060408284031215611eaf57600080fd5b611eb7611dc0565b9050813567ffffffffffffffff811115611ed057600080fd5b8201601f81018413611ee157600080fd5b803567ffffffffffffffff811115611efb57611efb611daa565b611f0e601f8201601f1916602001611de9565b818152856020838501011115611f2357600080fd5b81602084016020830137600060208383010152808452505050602082013567ffffffffffffffff811115611f5657600080fd5b611f6284828501611e1a565b60208301525092915050565b60008060408385031215611f8157600080fd5b823567ffffffffffffffff811115611f9857600080fd5b611fa485828601611e9d565b95602094909401359450505050565b600060208284031215611fc557600080fd5b813567ffffffffffffffff811115611fdc57600080fd5b611b9c84828501611e9d565b600060208284031215611ffa57600080fd5b5035919050565b600081518084526020840193506020830160005b82811015612033578151865260209586019590910190600101612015565b5093949350505050565b602081526000611ca86020830184612001565b6000806040838503121561206357600080fd5b61206c83611d52565b9150602083013567ffffffffffffffff81111561208857600080fd5b61209485828601611e9d565b9150509250929050565b634e487b7160e01b600052603260045260246000fd5b60609290921b6bffffffffffffffffffffffff19168252601482015260340190565b634e487b7160e01b600052601160045260246000fd5b6000600182016120fe576120fe6120d6565b5060010190565b60208082526027908201527f4173736574506f6f6c3a2043616c6c6572206973206e6f742074686520456e746040820152661c9e541bda5b9d60ca1b606082015260800190565b60208082526021908201527f4173736574506f6f6c3a20496e76616c69642077697468647261772070726f6f6040820152603360f91b606082015260800190565b604081526000835180604084015260005b818110156121bb576020818701810151606086840101520161219e565b50600060608285010152601f19601f8201168301905060608382030160208401526121e96060820185612001565b95945050505050565b60006020828403121561220457600080fd5b81518015158114611ca857600080fd5b6020808252601e908201527f4173736574506f6f6c3a20496e76616c6964206d65726b6c6520726f6f740000604082015260600190565b63ffffffff8181168382160190811115610f2757610f276120d6565b63ffffffff8281168282160390811115610f2757610f276120d6565b634e487b7160e01b600052601260045260246000fd5b600063ffffffff8316806122af576122af612283565b8063ffffffff84160691505092915050565b600063ffffffff8316806122d7576122d7612283565b8063ffffffff84160491505092915050565b6000602082840312156122fb57600080fd5b505191905056fec156f42017957acfca3b7f6906dff8ed1d1a889f2c552e34074c3ad51becaeb9a2646970667358221220cb88f0a7abb973d0569fd882a132291b3de28f47a54143ba3007423e991a7b0c64736f6c634300081c0033",
  "linkReferences": {
    "contracts/darkpool/libraries/Poseidon/Poseidon2.sol": {
      "Poseidon2": [
        {
          "length": 20,
          "start": 7852
        },
        {
          "length": 20,
          "start": 8138
        }
      ]
    }
  },
  "deployedLinkReferences": {
    "contracts/darkpool/libraries/Poseidon/Poseidon2.sol": {
      "Poseidon2": [
        {
          "length": 20,
          "start": 6907
        },
        {
          "length": 20,
          "start": 7193
        }
      ]
    }
  }
}