{
  "_format": "hh-sol-artifact-1",
  "contractName": "ClearingHouseV2",
  "sourceName": "contracts/perp-dex-minimal/ClearingHouseV2.sol",
  "abi": [
    {
      "inputs": [
        {
          "internalType": "address",
          "name": "_oracleAddress",
          "type": "address"
        },
        {
          "internalType": "address",
          "name": "_collateralTokenAddress",
          "type": "address"
        }
      ],
      "stateMutability": "nonpayable",
      "type": "constructor"
    },
    {
      "inputs": [],
      "name": "InsufficientFreeCollateral",
      "type": "error"
    },
    {
      "inputs": [],
      "name": "InvalidAmount",
      "type": "error"
    },
    {
      "inputs": [],
      "name": "InvalidLeverage",
      "type": "error"
    },
    {
      "inputs": [],
      "name": "NotPositionOwner",
      "type": "error"
    },
    {
      "inputs": [],
      "name": "PositionExists",
      "type": "error"
    },
    {
      "inputs": [],
      "name": "PositionNotFound",
      "type": "error"
    },
    {
      "inputs": [],
      "name": "PositionNotLiquidatable",
      "type": "error"
    },
    {
      "inputs": [],
      "name": "PositionUndercollateralized",
      "type": "error"
    },
    {
      "inputs": [],
      "name": "ReentrancyGuardReentrantCall",
      "type": "error"
    },
    {
      "inputs": [],
      "name": "ZeroAddress",
      "type": "error"
    },
    {
      "anonymous": false,
      "inputs": [
        {
          "indexed": true,
          "internalType": "address",
          "name": "user",
          "type": "address"
        },
        {
          "indexed": false,
          "internalType": "uint256",
          "name": "amount",
          "type": "uint256"
        }
      ],
      "name": "CollateralDeposited",
      "type": "event"
    },
    {
      "anonymous": false,
      "inputs": [
        {
          "indexed": true,
          "internalType": "address",
          "name": "user",
          "type": "address"
        },
        {
          "indexed": false,
          "internalType": "uint256",
          "name": "amount",
          "type": "uint256"
        }
      ],
      "name": "CollateralWithdrawn",
      "type": "event"
    },
    {
      "anonymous": false,
      "inputs": [
        {
          "indexed": true,
          "internalType": "address",
          "name": "user",
          "type": "address"
        },
        {
          "indexed": true,
          "internalType": "bytes32",
          "name": "positionId",
          "type": "bytes32"
        },
        {
          "indexed": false,
          "internalType": "uint256",
          "name": "amount",
          "type": "uint256"
        }
      ],
      "name": "MarginAdded",
      "type": "event"
    },
    {
      "anonymous": false,
      "inputs": [
        {
          "indexed": true,
          "internalType": "address",
          "name": "user",
          "type": "address"
        },
        {
          "indexed": true,
          "internalType": "bytes32",
          "name": "positionId",
          "type": "bytes32"
        },
        {
          "indexed": false,
          "internalType": "uint256",
          "name": "amount",
          "type": "uint256"
        }
      ],
      "name": "MarginRemoved",
      "type": "event"
    },
    {
      "anonymous": false,
      "inputs": [
        {
          "indexed": true,
          "internalType": "address",
          "name": "user",
          "type": "address"
        },
        {
          "indexed": true,
          "internalType": "bytes32",
          "name": "positionId",
          "type": "bytes32"
        },
        {
          "indexed": false,
          "internalType": "int256",
          "name": "pnl",
          "type": "int256"
        },
        {
          "indexed": false,
          "internalType": "uint256",
          "name": "fee",
          "type": "uint256"
        }
      ],
      "name": "PositionClosed",
      "type": "event"
    },
    {
      "anonymous": false,
      "inputs": [
        {
          "indexed": true,
          "internalType": "address",
          "name": "user",
          "type": "address"
        },
        {
          "indexed": true,
          "internalType": "bytes32",
          "name": "positionId",
          "type": "bytes32"
        },
        {
          "indexed": false,
          "internalType": "address",
          "name": "liquidator",
          "type": "address"
        },
        {
          "indexed": false,
          "internalType": "uint256",
          "name": "liquidationFee",
          "type": "uint256"
        }
      ],
      "name": "PositionLiquidated",
      "type": "event"
    },
    {
      "anonymous": false,
      "inputs": [
        {
          "indexed": true,
          "internalType": "address",
          "name": "user",
          "type": "address"
        },
        {
          "indexed": true,
          "internalType": "bytes32",
          "name": "positionId",
          "type": "bytes32"
        },
        {
          "indexed": false,
          "internalType": "uint256",
          "name": "size",
          "type": "uint256"
        },
        {
          "indexed": false,
          "internalType": "uint256",
          "name": "margin",
          "type": "uint256"
        },
        {
          "indexed": false,
          "internalType": "bool",
          "name": "isLong",
          "type": "bool"
        },
        {
          "indexed": false,
          "internalType": "uint256",
          "name": "entryPrice",
          "type": "uint256"
        }
      ],
      "name": "PositionOpened",
      "type": "event"
    },
    {
      "inputs": [],
      "name": "BPS_DIVISOR",
      "outputs": [
        {
          "internalType": "uint256",
          "name": "",
          "type": "uint256"
        }
      ],
      "stateMutability": "view",
      "type": "function"
    },
    {
      "inputs": [],
      "name": "LEVERAGE_PRECISION",
      "outputs": [
        {
          "internalType": "uint256",
          "name": "",
          "type": "uint256"
        }
      ],
      "stateMutability": "view",
      "type": "function"
    },
    {
      "inputs": [],
      "name": "LIQUIDATION_FEE_BPS",
      "outputs": [
        {
          "internalType": "uint256",
          "name": "",
          "type": "uint256"
        }
      ],
      "stateMutability": "view",
      "type": "function"
    },
    {
      "inputs": [],
      "name": "MAINTENANCE_MARGIN_RATIO_BPS",
      "outputs": [
        {
          "internalType": "uint256",
          "name": "",
          "type": "uint256"
        }
      ],
      "stateMutability": "view",
      "type": "function"
    },
    {
      "inputs": [],
      "name": "MAX_LEVERAGE",
      "outputs": [
        {
          "internalType": "uint256",
          "name": "",
          "type": "uint256"
        }
      ],
      "stateMutability": "view",
      "type": "function"
    },
    {
      "inputs": [],
      "name": "MIN_LEVERAGE",
      "outputs": [
        {
          "internalType": "uint256",
          "name": "",
          "type": "uint256"
        }
      ],
      "stateMutability": "view",
      "type": "function"
    },
    {
      "inputs": [],
      "name": "PRICE_PRECISION",
      "outputs": [
        {
          "internalType": "uint256",
          "name": "",
          "type": "uint256"
        }
      ],
      "stateMutability": "view",
      "type": "function"
    },
    {
      "inputs": [],
      "name": "TAKER_FEE_BPS",
      "outputs": [
        {
          "internalType": "uint256",
          "name": "",
          "type": "uint256"
        }
      ],
      "stateMutability": "view",
      "type": "function"
    },
    {
      "inputs": [
        {
          "internalType": "bytes32",
          "name": "_positionId",
          "type": "bytes32"
        },
        {
          "internalType": "uint256",
          "name": "_amount",
          "type": "uint256"
        }
      ],
      "name": "addMargin",
      "outputs": [],
      "stateMutability": "nonpayable",
      "type": "function"
    },
    {
      "inputs": [
        {
          "internalType": "bytes32",
          "name": "_positionId",
          "type": "bytes32"
        }
      ],
      "name": "calculatePnl",
      "outputs": [
        {
          "internalType": "int256",
          "name": "pnl",
          "type": "int256"
        },
        {
          "internalType": "bool",
          "name": "isSolvent",
          "type": "bool"
        }
      ],
      "stateMutability": "view",
      "type": "function"
    },
    {
      "inputs": [
        {
          "internalType": "bytes32",
          "name": "_positionId",
          "type": "bytes32"
        }
      ],
      "name": "closePosition",
      "outputs": [],
      "stateMutability": "nonpayable",
      "type": "function"
    },
    {
      "inputs": [],
      "name": "collateralToken",
      "outputs": [
        {
          "internalType": "contract MockERC20",
          "name": "",
          "type": "address"
        }
      ],
      "stateMutability": "view",
      "type": "function"
    },
    {
      "inputs": [
        {
          "internalType": "uint256",
          "name": "_amount",
          "type": "uint256"
        }
      ],
      "name": "depositCollateral",
      "outputs": [],
      "stateMutability": "nonpayable",
      "type": "function"
    },
    {
      "inputs": [
        {
          "internalType": "address",
          "name": "",
          "type": "address"
        }
      ],
      "name": "freeCollateral",
      "outputs": [
        {
          "internalType": "uint256",
          "name": "",
          "type": "uint256"
        }
      ],
      "stateMutability": "view",
      "type": "function"
    },
    {
      "inputs": [
        {
          "internalType": "bytes32",
          "name": "_positionId",
          "type": "bytes32"
        }
      ],
      "name": "liquidate",
      "outputs": [],
      "stateMutability": "nonpayable",
      "type": "function"
    },
    {
      "inputs": [
        {
          "internalType": "bytes32",
          "name": "_positionId",
          "type": "bytes32"
        },
        {
          "internalType": "uint256",
          "name": "_margin",
          "type": "uint256"
        },
        {
          "internalType": "uint256",
          "name": "_leverage",
          "type": "uint256"
        },
        {
          "internalType": "bool",
          "name": "_isLong",
          "type": "bool"
        }
      ],
      "name": "openPosition",
      "outputs": [],
      "stateMutability": "nonpayable",
      "type": "function"
    },
    {
      "inputs": [],
      "name": "oracle",
      "outputs": [
        {
          "internalType": "contract Oracle",
          "name": "",
          "type": "address"
        }
      ],
      "stateMutability": "view",
      "type": "function"
    },
    {
      "inputs": [
        {
          "internalType": "bytes32",
          "name": "",
          "type": "bytes32"
        }
      ],
      "name": "positions",
      "outputs": [
        {
          "internalType": "address",
          "name": "owner",
          "type": "address"
        },
        {
          "internalType": "uint256",
          "name": "size",
          "type": "uint256"
        },
        {
          "internalType": "uint256",
          "name": "margin",
          "type": "uint256"
        },
        {
          "internalType": "uint256",
          "name": "entryPrice",
          "type": "uint256"
        },
        {
          "internalType": "bool",
          "name": "isLong",
          "type": "bool"
        }
      ],
      "stateMutability": "view",
      "type": "function"
    },
    {
      "inputs": [
        {
          "internalType": "bytes32",
          "name": "_positionId",
          "type": "bytes32"
        },
        {
          "internalType": "uint256",
          "name": "_amount",
          "type": "uint256"
        }
      ],
      "name": "removeMargin",
      "outputs": [],
      "stateMutability": "nonpayable",
      "type": "function"
    },
    {
      "inputs": [
        {
          "internalType": "uint256",
          "name": "_amount",
          "type": "uint256"
        }
      ],
      "name": "withdrawCollateral",
      "outputs": [],
      "stateMutability": "nonpayable",
      "type": "function"
    }
  ],
  "bytecode": "0x60c060405234801561001057600080fd5b506040516116cd3803806116cd83398101604081905261002f916100a2565b60016000556001600160a01b038216158061005157506001600160a01b038116155b1561006f5760405163d92e233d60e01b815260040160405180910390fd5b6001600160a01b039182166080521660a0526100d5565b80516001600160a01b038116811461009d57600080fd5b919050565b600080604083850312156100b557600080fd5b6100be83610086565b91506100cc60208401610086565b90509250929050565b60805160a05161159b610132600039600081816102be015281816104e50152818161068701528181610d92015261102c01526000818161023a015281816103f001528181610b5801528181610f2001526111e2015261159b6000f3fe608060405234801561001057600080fd5b506004361061012c5760003560e01c80638da793b2116100ad578063b2016bd411610071578063b2016bd4146102b9578063b4d20d04146102e0578063bad4a01f146102f3578063e1f75ec414610306578063e54a2ad51461032e57600080fd5b80638da793b21461027457806395082d251461027c57806397709b5d1461028b5780639b45ec971461029e5780639e0a7378146102a657600080fd5b806334c1557d116100f457806334c1557d14610192578063514ea4bf1461019a578063518e8dfc146102195780636112fe2e146102225780637dc0d1d01461023557600080fd5b80630a71096e14610131578063191fe1ed146101465780632057bfa01461016257806324aee8411461016a57806329fd974714610172575b600080fd5b61014461013f366004611345565b610341565b005b61014f61271081565b6040519081526020015b60405180910390f35b61014f600a81565b61014f60f581565b61014f61018036600461135e565b60026020526000908152604090205481565b61014f6105df565b6101e56101a8366004611345565b6001602081905260009182526040909120805491810154600282015460038301546004909301546001600160a01b03909416939192909160ff1685565b604080516001600160a01b03909616865260208601949094529284019190915260608301521515608082015260a001610159565b61014f6101f481565b610144610230366004611345565b6105ee565b61025c7f000000000000000000000000000000000000000000000000000000000000000081565b6040516001600160a01b039091168152602001610159565b61014f606481565b61014f670de0b6b3a764000081565b61014461029936600461138e565b61078d565b61014f6108df565b6101446102b436600461138e565b6108ea565b61025c7f000000000000000000000000000000000000000000000000000000000000000081565b6101446102ee3660046113be565b6109fc565b610144610301366004611345565b610d23565b610319610314366004611345565b610e85565b60408051928352901515602083015201610159565b61014461033c366004611345565b610ece565b61034961114b565b600081815260016020818152604092839020835160a08101855281546001600160a01b031680825293820154928101929092526002810154938201939093526003830154606082015260049092015460ff16151560808301526103bf57604051636ec9be1160e01b815260040160405180910390fd5b60006103ca83611175565b91505080156103ec57604051636415f95960e01b815260040160405180910390fd5b60007f00000000000000000000000000000000000000000000000000000000000000006001600160a01b03166398d5fdca6040518163ffffffff1660e01b8152600401602060405180830381865afa15801561044c573d6000803e3d6000fd5b505050506040513d601f19601f8201168201806040525081019061047091906113ff565b90506000670de0b6b3a764000082856020015161048d919061142e565b6104979190611461565b905060006127106104aa6101f48461142e565b6104b49190611461565b905084604001518111156104c9575060408401515b6040516340c10f1960e01b8152336004820152602481018290527f00000000000000000000000000000000000000000000000000000000000000006001600160a01b0316906340c10f1990604401600060405180830381600087803b15801561053157600080fd5b505af1158015610545573d6000803e3d6000fd5b5050865160408051338152602081018690528a94506001600160a01b0390921692507f68762642199118230172033ae8be4a7146720b6f48baf220112a8b767c5071ab910160405180910390a35050506000838152600160208190526040822080546001600160a01b03191681558082018390556002810183905560038101839055600401805460ff191690559055506105dc9050565b50565b6105eb6064600161142e565b81565b6105f661114b565b806000036106175760405163162908e360e11b815260040160405180910390fd5b33600090815260026020526040902054811115610647576040516319a3029160e01b815260040160405180910390fd5b3360009081526002602052604081208054839290610666908490611475565b909155505060405163a9059cbb60e01b8152336004820152602481018290527f00000000000000000000000000000000000000000000000000000000000000006001600160a01b03169063a9059cbb906044016020604051808303816000875af11580156106d8573d6000803e3d6000fd5b505050506040513d601f19601f820116820180604052508101906106fc9190611488565b61074d5760405162461bcd60e51b815260206004820152601a60248201527f436f6c6c61746572616c207472616e73666572206661696c656400000000000060448201526064015b60405180910390fd5b60405181815233907fc30fcfbcaac9e0deffa719714eaa82396ff506a0d0d0eebe170830177288715d906020015b60405180910390a26105dc6001600055565b61079561114b565b806000036107b65760405163162908e360e11b815260040160405180910390fd5b600082815260016020526040902080546001600160a01b031633146107ee576040516370d645e360e01b815260040160405180910390fd5b80600201548211156108135760405163162908e360e11b815260040160405180910390fd5b818160020160008282546108279190611475565b909155506000905061083884611175565b91505080610874578282600201600082825461085491906114a5565b92505081905550604051634c56808560e11b815260040160405180910390fd5b33600090815260026020526040812080548592906108939084906114a5565b9091555050604051838152849033907f4c88d632ed7d743d1ae51add8d5c8da1cde21c1ef7af661e8c6813cb434ff1189060200160405180910390a350506108db6001600055565b5050565b6105eb60648061142e565b6108f261114b565b806000036109135760405163162908e360e11b815260040160405180910390fd5b600082815260016020526040902080546001600160a01b0316331461094b576040516370d645e360e01b815260040160405180910390fd5b3360009081526002602052604090205482111561097b576040516319a3029160e01b815260040160405180910390fd5b336000908152600260205260408120805484929061099a908490611475565b92505081905550818160020160008282546109b591906114a5565b9091555050604051828152839033907f57ab4c4d40a32ad167254ad966d3295c6b75a4b4be6f5b76b6ac9df41c29839e9060200160405180910390a3506108db6001600055565b610a0461114b565b6000848152600160205260409020546001600160a01b031615610a3a5760405163384e583f60e11b815260040160405180910390fd5b82600003610a5b5760405163162908e360e11b815260040160405180910390fd5b610a676064600161142e565b821080610a7d5750610a7a60648061142e565b82115b15610a9b57604051633fe89cb960e11b815260040160405180910390fd5b33600090815260026020526040902054831115610acb576040516319a3029160e01b815260040160405180910390fd5b3360009081526002602052604081208054859290610aea908490611475565b90915550600090506064610afe848661142e565b610b089190611461565b90506000612710610b1a600a8461142e565b610b249190611461565b9050848110610b46576040516319a3029160e01b815260040160405180910390fd5b6000610b528287611475565b905060007f00000000000000000000000000000000000000000000000000000000000000006001600160a01b03166398d5fdca6040518163ffffffff1660e01b8152600401602060405180830381865afa158015610bb4573d6000803e3d6000fd5b505050506040513d601f19601f82011682018060405250810190610bd891906113ff565b9050600081610bef670de0b6b3a76400008761142e565b610bf99190611461565b90506040518060a00160405280336001600160a01b03168152602001828152602001848152602001838152602001871515815250600160008b815260200190815260200160002060008201518160000160006101000a8154816001600160a01b0302191690836001600160a01b0316021790555060208201518160010155604082015181600201556060820151816003015560808201518160040160006101000a81548160ff02191690831515021790555090505088336001600160a01b03167f324ef3166469cd2236e5b0f010d2405657f3529877f4ccfa1f9f79fb60ed461e83868a87604051610d069493929190938452602084019290925215156040830152606082015260800190565b60405180910390a35050505050610d1d6001600055565b50505050565b610d2b61114b565b80600003610d4c5760405163162908e360e11b815260040160405180910390fd5b3360009081526002602052604081208054839290610d6b9084906114a5565b90915550506040516323b872dd60e01b8152336004820152306024820152604481018290527f00000000000000000000000000000000000000000000000000000000000000006001600160a01b0316906323b872dd906064016020604051808303816000875af1158015610de3573d6000803e3d6000fd5b505050506040513d601f19601f82011682018060405250810190610e079190611488565b610e535760405162461bcd60e51b815260206004820152601a60248201527f436f6c6c61746572616c207472616e73666572206661696c65640000000000006044820152606401610744565b60405181815233907fd7243f6f8212d5188fd054141cf6ea89cfc0d91facb8c3afe2f88a13584801429060200161077b565b60008181526001602052604081205481906001600160a01b0316610ebc57604051636ec9be1160e01b815260040160405180910390fd5b610ec583611175565b91509150915091565b610ed661114b565b600081815260016020526040902080546001600160a01b03163314610f0e576040516370d645e360e01b815260040160405180910390fd5b6000610f1983611175565b50905060007f00000000000000000000000000000000000000000000000000000000000000006001600160a01b03166398d5fdca6040518163ffffffff1660e01b8152600401602060405180830381865afa158015610f7c573d6000803e3d6000fd5b505050506040513d601f19601f82011682018060405250810190610fa091906113ff565b90506000670de0b6b3a7640000828560010154610fbd919061142e565b610fc79190611461565b90506000612710610fd9600a8461142e565b610fe39190611461565b90506000610ff182866114b8565b9050600081876002015461100591906114df565b90506000821315611091576040516340c10f1960e01b8152306004820152602481018390527f00000000000000000000000000000000000000000000000000000000000000006001600160a01b0316906340c10f1990604401600060405180830381600087803b15801561107857600080fd5b505af115801561108c573d6000803e3d6000fd5b505050505b60008113156110bf5733600090815260026020526040812080548392906110b99084906114a5565b90915550505b6040805187815260208101859052899133917f1d9566953522dcf767c20a24ed70fba750e27e2edfebb58305732e318dd88077910160405180910390a35050506000858152600160208190526040822080546001600160a01b0319168155908101829055600281018290556003810191909155600401805460ff19169055506105dc925061133e915050565b60026000540361116e57604051633ee5aeb560e01b815260040160405180910390fd5b6002600055565b6000818152600160208181526040808420815160a08101835281546001600160a01b03168082529482015493810193909352600281015491830191909152600381015460608301526004015460ff161515608082015282916111de575060009360019350915050565b60007f00000000000000000000000000000000000000000000000000000000000000006001600160a01b03166398d5fdca6040518163ffffffff1660e01b8152600401602060405180830381865afa15801561123e573d6000803e3d6000fd5b505050506040513d601f19601f8201168201806040525081019061126291906113ff565b6060830151608084015191925090156112a9576020830151670de0b6b3a76400009061128e83856114b8565b6112989190611507565b6112a29190611537565b94506112d9565b6020830151670de0b6b3a7640000906112c284846114b8565b6112cc9190611507565b6112d69190611537565b94505b60008584604001516112eb91906114df565b90506000670de0b6b3a7640000848660200151611308919061142e565b6113129190611461565b9050600061271061132460f58461142e565b61132e9190611461565b9799979092139750505050505050565b6001600055565b60006020828403121561135757600080fd5b5035919050565b60006020828403121561137057600080fd5b81356001600160a01b038116811461138757600080fd5b9392505050565b600080604083850312156113a157600080fd5b50508035926020909101359150565b80151581146105dc57600080fd5b600080600080608085870312156113d457600080fd5b84359350602085013592506040850135915060608501356113f4816113b0565b939692955090935050565b60006020828403121561141157600080fd5b5051919050565b634e487b7160e01b600052601160045260246000fd5b808202811582820484141761144557611445611418565b92915050565b634e487b7160e01b600052601260045260246000fd5b6000826114705761147061144b565b500490565b8181038181111561144557611445611418565b60006020828403121561149a57600080fd5b8151611387816113b0565b8082018082111561144557611445611418565b81810360008312801583831316838312821617156114d8576114d8611418565b5092915050565b80820182811260008312801582168215821617156114ff576114ff611418565b505092915050565b80820260008212600160ff1b8414161561152357611523611418565b818105831482151761144557611445611418565b6000826115465761154661144b565b600160ff1b82146000198414161561156057611560611418565b50059056fea26469706673582212203270faf9edfb7543f22e4b98f4929e4de06fc9aa06abbae9af817ec1fbf217aa64736f6c634300081c0033",
  "linkReferences": {},
  "deployedLinkReferences": {}
}