{
  "_format": "hh-sol-artifact-1",
  "contractName": "PublicFaucet",
  "sourceName": "contracts/mocks/PublicFaucet.sol",
  "abi": [
    {
      "inputs": [
        {
          "internalType": "address",
          "name": "_tokenAddress",
          "type": "address"
        }
      ],
      "stateMutability": "nonpayable",
      "type": "constructor"
    },
    {
      "anonymous": false,
      "inputs": [
        {
          "indexed": true,
          "internalType": "address",
          "name": "receiver",
          "type": "address"
        },
        {
          "indexed": false,
          "internalType": "uint256",
          "name": "amount",
          "type": "uint256"
        }
      ],
      "name": "TokensRequested",
      "type": "event"
    },
    {
      "inputs": [],
      "name": "MAX_MINT_AMOUNT",
      "outputs": [
        {
          "internalType": "uint256",
          "name": "",
          "type": "uint256"
        }
      ],
      "stateMutability": "view",
      "type": "function"
    },
    {
      "inputs": [
        {
          "internalType": "uint256",
          "name": "_amount",
          "type": "uint256"
        }
      ],
      "name": "requestTokens",
      "outputs": [],
      "stateMutability": "nonpayable",
      "type": "function"
    },
    {
      "inputs": [],
      "name": "token",
      "outputs": [
        {
          "internalType": "contract MockERC20",
          "name": "",
          "type": "address"
        }
      ],
      "stateMutability": "view",
      "type": "function"
    }
  ],
  "bytecode": "0x60a0604052348015600f57600080fd5b5060405161030b38038061030b833981016040819052602c91603c565b6001600160a01b0316608052606a565b600060208284031215604d57600080fd5b81516001600160a01b0381168114606357600080fd5b9392505050565b60805161028061008b600039600081816084015261019501526102806000f3fe608060405234801561001057600080fd5b50600436106100415760003560e01c8063eef9c27c14610046578063fa9b70181461005b578063fc0c546a1461007f575b600080fd5b610059610054366004610231565b6100be565b005b61006c69021e19e0c9bab240000081565b6040519081526020015b60405180910390f35b6100a67f000000000000000000000000000000000000000000000000000000000000000081565b6040516001600160a01b039091168152602001610076565b600081116101135760405162461bcd60e51b815260206004820152601f60248201527f4661756365743a20416d6f756e74206d75737420626520706f7369746976650060448201526064015b60405180910390fd5b69021e19e0c9bab24000008111156101795760405162461bcd60e51b8152602060048201526024808201527f4661756365743a20416d6f756e742065786365656473206d6178696d756d206c6044820152631a5b5a5d60e21b606482015260840161010a565b6040516340c10f1960e01b8152326004820152602481018290527f00000000000000000000000000000000000000000000000000000000000000006001600160a01b0316906340c10f1990604401600060405180830381600087803b1580156101e157600080fd5b505af11580156101f5573d6000803e3d6000fd5b50506040518381523292507fc3fb6c98272d7a0d5dc26727b61c00ece2e5bf3dbdc0284659e28d441c1ce06c915060200160405180910390a250565b60006020828403121561024357600080fd5b503591905056fea26469706673582212204ee82c0922c89bf6ee8af4f5a503798b87c48de25b5302637739cb3ae3115abf64736f6c634300081c0033",
  "linkReferences": {},
  "deployedLinkReferences": {}
}