{
  "_format": "hh-sol-artifact-1",
  "contractName": "PrivacyProxy",
  "sourceName": "contracts/darkpool/adaptors/PrivacyProxy.sol",
  "abi": [
    {
      "inputs": [
        {
          "internalType": "address",
          "name": "_clearingHouse",
          "type": "address"
        },
        {
          "internalType": "address",
          "name": "_tokenPool",
          "type": "address"
        }
      ],
      "stateMutability": "nonpayable",
      "type": "constructor"
    },
    {
      "inputs": [],
      "name": "ECDSAInvalidSignature",
      "type": "error"
    },
    {
      "inputs": [
        {
          "internalType": "uint256",
          "name": "length",
          "type": "uint256"
        }
      ],
      "name": "ECDSAInvalidSignatureLength",
      "type": "error"
    },
    {
      "inputs": [
        {
          "internalType": "bytes32",
          "name": "s",
          "type": "bytes32"
        }
      ],
      "name": "ECDSAInvalidSignatureS",
      "type": "error"
    },
    {
      "inputs": [],
      "name": "InsufficientProxyCollateral",
      "type": "error"
    },
    {
      "inputs": [],
      "name": "InvalidSignature",
      "type": "error"
    },
    {
      "inputs": [],
      "name": "NotPositionOwner",
      "type": "error"
    },
    {
      "inputs": [
        {
          "internalType": "address",
          "name": "token",
          "type": "address"
        }
      ],
      "name": "SafeERC20FailedOperation",
      "type": "error"
    },
    {
      "anonymous": false,
      "inputs": [
        {
          "indexed": true,
          "internalType": "bytes32",
          "name": "ownerPubKey",
          "type": "bytes32"
        },
        {
          "indexed": false,
          "internalType": "uint256",
          "name": "amount",
          "type": "uint256"
        },
        {
          "indexed": false,
          "internalType": "bool",
          "name": "fromDarkPool",
          "type": "bool"
        }
      ],
      "name": "CollateralDeposited",
      "type": "event"
    },
    {
      "anonymous": false,
      "inputs": [
        {
          "indexed": true,
          "internalType": "bytes32",
          "name": "ownerPubKey",
          "type": "bytes32"
        },
        {
          "indexed": false,
          "internalType": "bytes32",
          "name": "receiverHash",
          "type": "bytes32"
        },
        {
          "indexed": false,
          "internalType": "uint256",
          "name": "amount",
          "type": "uint256"
        }
      ],
      "name": "CollateralWithdrawn",
      "type": "event"
    },
    {
      "anonymous": false,
      "inputs": [
        {
          "indexed": true,
          "internalType": "bytes32",
          "name": "ownerPubKey",
          "type": "bytes32"
        },
        {
          "indexed": false,
          "internalType": "bytes32",
          "name": "positionId",
          "type": "bytes32"
        }
      ],
      "name": "PositionClosed",
      "type": "event"
    },
    {
      "anonymous": false,
      "inputs": [
        {
          "indexed": true,
          "internalType": "bytes32",
          "name": "ownerPubKey",
          "type": "bytes32"
        },
        {
          "indexed": false,
          "internalType": "bytes32",
          "name": "positionId",
          "type": "bytes32"
        }
      ],
      "name": "PositionOpened",
      "type": "event"
    },
    {
      "inputs": [
        {
          "internalType": "bytes32",
          "name": "_positionId",
          "type": "bytes32"
        },
        {
          "internalType": "uint256",
          "name": "_amount",
          "type": "uint256"
        },
        {
          "internalType": "bytes",
          "name": "_signature",
          "type": "bytes"
        }
      ],
      "name": "addMargin",
      "outputs": [],
      "stateMutability": "nonpayable",
      "type": "function"
    },
    {
      "inputs": [],
      "name": "clearingHouse",
      "outputs": [
        {
          "internalType": "contract ClearingHouseV2",
          "name": "",
          "type": "address"
        }
      ],
      "stateMutability": "view",
      "type": "function"
    },
    {
      "inputs": [
        {
          "internalType": "bytes32",
          "name": "_positionId",
          "type": "bytes32"
        },
        {
          "internalType": "bytes",
          "name": "_signature",
          "type": "bytes"
        }
      ],
      "name": "closePosition",
      "outputs": [],
      "stateMutability": "nonpayable",
      "type": "function"
    },
    {
      "inputs": [],
      "name": "collateralToken",
      "outputs": [
        {
          "internalType": "contract IERC20",
          "name": "",
          "type": "address"
        }
      ],
      "stateMutability": "view",
      "type": "function"
    },
    {
      "inputs": [
        {
          "internalType": "bytes32",
          "name": "_ownerPubKey",
          "type": "bytes32"
        },
        {
          "components": [
            {
              "internalType": "bytes",
              "name": "honkProof",
              "type": "bytes"
            },
            {
              "internalType": "bytes32[]",
              "name": "publicInputs",
              "type": "bytes32[]"
            }
          ],
          "internalType": "struct ProofLib.WithdrawOrTransferParams",
          "name": "_params",
          "type": "tuple"
        }
      ],
      "name": "depositCollateralFromDarkPool",
      "outputs": [],
      "stateMutability": "nonpayable",
      "type": "function"
    },
    {
      "inputs": [
        {
          "internalType": "bytes32",
          "name": "_ownerPubKey",
          "type": "bytes32"
        },
        {
          "internalType": "uint256",
          "name": "_amount",
          "type": "uint256"
        }
      ],
      "name": "depositCollateralFromEOA",
      "outputs": [],
      "stateMutability": "nonpayable",
      "type": "function"
    },
    {
      "inputs": [
        {
          "internalType": "bytes32",
          "name": "_ownerPubKey",
          "type": "bytes32"
        },
        {
          "internalType": "bytes32",
          "name": "_positionId",
          "type": "bytes32"
        },
        {
          "internalType": "uint256",
          "name": "_margin",
          "type": "uint256"
        },
        {
          "internalType": "uint256",
          "name": "_leverage",
          "type": "uint256"
        },
        {
          "internalType": "bool",
          "name": "_isLong",
          "type": "bool"
        },
        {
          "internalType": "bytes",
          "name": "_signature",
          "type": "bytes"
        }
      ],
      "name": "openPosition",
      "outputs": [],
      "stateMutability": "nonpayable",
      "type": "function"
    },
    {
      "inputs": [
        {
          "internalType": "bytes32",
          "name": "",
          "type": "bytes32"
        }
      ],
      "name": "positionOwner",
      "outputs": [
        {
          "internalType": "bytes32",
          "name": "",
          "type": "bytes32"
        }
      ],
      "stateMutability": "view",
      "type": "function"
    },
    {
      "inputs": [
        {
          "internalType": "bytes32",
          "name": "_positionId",
          "type": "bytes32"
        },
        {
          "internalType": "uint256",
          "name": "_amount",
          "type": "uint256"
        },
        {
          "internalType": "bytes",
          "name": "_signature",
          "type": "bytes"
        }
      ],
      "name": "removeMargin",
      "outputs": [],
      "stateMutability": "nonpayable",
      "type": "function"
    },
    {
      "inputs": [],
      "name": "tokenPool",
      "outputs": [
        {
          "internalType": "contract TokenPool",
          "name": "",
          "type": "address"
        }
      ],
      "stateMutability": "view",
      "type": "function"
    },
    {
      "inputs": [
        {
          "internalType": "bytes32",
          "name": "",
          "type": "bytes32"
        }
      ],
      "name": "userFreeCollateral",
      "outputs": [
        {
          "internalType": "uint256",
          "name": "",
          "type": "uint256"
        }
      ],
      "stateMutability": "view",
      "type": "function"
    },
    {
      "inputs": [
        {
          "internalType": "bytes32",
          "name": "_ownerPubKey",
          "type": "bytes32"
        },
        {
          "internalType": "uint256",
          "name": "_amount",
          "type": "uint256"
        },
        {
          "internalType": "bytes32",
          "name": "_receiverHash",
          "type": "bytes32"
        },
        {
          "internalType": "bytes",
          "name": "_signature",
          "type": "bytes"
        }
      ],
      "name": "withdrawCollateralToDarkPool",
      "outputs": [],
      "stateMutability": "nonpayable",
      "type": "function"
    }
  ],
  "bytecode": "0x60e060405234801561001057600080fd5b5060405161185838038061185883398101604081905261002f91610140565b6001600160a01b03808316608081905290821660a05260408051632c805af560e21b8152905163b2016bd4916004808201926020929091908290030181865afa158015610080573d6000803e3d6000fd5b505050506040513d601f19601f820116820180604052508101906100a4919061017a565b6001600160a01b0390811660c081905260805160405163095ea7b360e01b81529216600483015260001960248301529063095ea7b3906044016020604051808303816000875af11580156100fc573d6000803e3d6000fd5b505050506040513d601f19601f82011682018060405250810190610120919061019e565b5050506101c0565b6001600160a01b038116811461013d57600080fd5b50565b6000806040838503121561015357600080fd5b825161015e81610128565b602084015190925061016f81610128565b809150509250929050565b60006020828403121561018c57600080fd5b815161019781610128565b9392505050565b6000602082840312156101b057600080fd5b8151801515811461019757600080fd5b60805160a05160c051611608610250600039600081816101c5015281816102ca0152818161061e0152610a6001526000818161011701528181610237015281816102ec015281816105ef01526106ab01526000818160d3015281816103280152818161044101528181610576015281816108690152818161096701528181610a9e0152610c0901526116086000f3fe608060405234801561001057600080fd5b50600436106100b45760003560e01c80638a24982c116100715780638a24982c1461018d578063a1d722fa146101a0578063b2016bd4146101c0578063c1d0331e146101e7578063deca6b38146101fa578063f2f321b81461020d57600080fd5b80630777880d146100b95780630af96800146100ce578063104e9929146101125780631c9a8f0814610139578063403286641461014c5780635d8b8c361461017a575b600080fd5b6100cc6100c7366004611160565b610220565b005b6100f57f000000000000000000000000000000000000000000000000000000000000000081565b6040516001600160a01b0390911681526020015b60405180910390f35b6100f57f000000000000000000000000000000000000000000000000000000000000000081565b6100cc610147366004611280565b6103f3565b61016c61015a3660046112d0565b60016020526000908152604090205481565b604051908152602001610109565b6100cc6101883660046112e9565b6104db565b6100cc61019b366004611354565b610778565b61016c6101ae3660046112d0565b60006020819052908152604090205481565b6100f57f000000000000000000000000000000000000000000000000000000000000000081565b6100cc6101f53660046113c9565b610910565b6100cc610208366004611410565b610a53565b6100cc61021b366004611280565b610b68565b6040516398828ec160e01b81526001600160a01b037f000000000000000000000000000000000000000000000000000000000000000016906398828ec19061026c908490600401611456565b6020604051808303816000875af115801561028b573d6000803e3d6000fd5b505050506040513d601f19601f820116820180604052508101906102af91906114e5565b5060006102bb82610c73565b90506103126001600160a01b037f0000000000000000000000000000000000000000000000000000000000000000167f00000000000000000000000000000000000000000000000000000000000000003084610c9e565b60405163bad4a01f60e01b8152600481018290527f00000000000000000000000000000000000000000000000000000000000000006001600160a01b03169063bad4a01f90602401600060405180830381600087803b15801561037457600080fd5b505af1158015610388573d6000803e3d6000fd5b505050508060008085815260200190815260200160002060008282546103ae9190611528565b9091555050604080518281526001602082015284917f36a4b21e2bb01a8221bce1e7b3155d4271f24e86851e93a67ba12dfaf893ccb6910160405180910390a2505050565b610423836040518060400160405280600d81526020016c2922a6a7ab22afa6a0a923a4a760991b81525083610cfe565b506040516397709b5d60e01b815260048101849052602481018390527f00000000000000000000000000000000000000000000000000000000000000006001600160a01b0316906397709b5d90604401600060405180830381600087803b15801561048d57600080fd5b505af11580156104a1573d6000803e3d6000fd5b505050600084815260016020908152604080832054835290829052812080548593509091906104d1908490611528565b9091555050505050565b6040517215d2551211149055d7d0d3d313105511549053606a1b60208201526033810184905260538101839052600090607301604051602081830303815290604052805190602001209050610531858284610d6c565b6000858152602081905260409020548411156105605760405163a832a98d60e01b815260040160405180910390fd5b6040516330897f1760e11b8152600481018590527f00000000000000000000000000000000000000000000000000000000000000006001600160a01b031690636112fe2e90602401600060405180830381600087803b1580156105c257600080fd5b505af11580156105d6573d6000803e3d6000fd5b505060405163095ea7b360e01b81526001600160a01b037f000000000000000000000000000000000000000000000000000000000000000081166004830152602482018890527f000000000000000000000000000000000000000000000000000000000000000016925063095ea7b391506044016020604051808303816000875af1158015610669573d6000803e3d6000fd5b505050506040513d601f19601f8201168201806040525081019061068d919061153b565b50604051631da1bbfb60e01b815260048101849052602481018590527f00000000000000000000000000000000000000000000000000000000000000006001600160a01b031690631da1bbfb90604401600060405180830381600087803b1580156106f757600080fd5b505af115801561070b573d6000803e3d6000fd5b505050508360008087815260200190815260200160002060008282546107319190611558565b9091555050604080518481526020810186905286917ff4eec9504d8478ceb6e166ee8d621c1285ef5f90ad6df7025878e40208492085910160405180910390a25050505050565b6040516c27a822a72fa827a9a4aa24a7a760991b6020820152602d8101869052604d8101859052606d810184905282151560f81b608d820152600090608e016040516020818303038152906040528051906020012090506107da878284610d6c565b6000878152602081905260409020548511156108095760405163a832a98d60e01b815260040160405180910390fd5b60008781526020819052604081208054879290610827908490611558565b90915550506000868152600160205260409081902088905551632d34834160e21b815260048101879052602481018690526044810185905283151560648201527f00000000000000000000000000000000000000000000000000000000000000006001600160a01b03169063b4d20d0490608401600060405180830381600087803b1580156108b557600080fd5b505af11580156108c9573d6000803e3d6000fd5b50505050867f47617c469c3bf7eedc73948e4f4ae4beb00bbbc68fdfdeb6a8bba4c0e084dcf0876040516108ff91815260200190565b60405180910390a250505050505050565b6000610943836040518060400160405280600e81526020016d21a627a9a2afa827a9a4aa24a7a760911b81525084610cfe565b60405163e54a2ad560e01b8152600481018590529091506000906001600160a01b037f0000000000000000000000000000000000000000000000000000000000000000169063e54a2ad5906024016020604051808303816000875af11580156109b0573d6000803e3d6000fd5b505050506040513d601f19601f820116820180604052508101906109d4919061156b565b90508015610a0057600082815260208190526040812080548392906109fa908490611528565b90915550505b600084815260016020526040808220919091555182907f897860407b0ce2ff510f959c48ab2105aa52a4831eb3d965cfff7d028dfe773d90610a459087815260200190565b60405180910390a250505050565b610a886001600160a01b037f000000000000000000000000000000000000000000000000000000000000000016333084610c9e565b60405163bad4a01f60e01b8152600481018290527f00000000000000000000000000000000000000000000000000000000000000006001600160a01b03169063bad4a01f90602401600060405180830381600087803b158015610aea57600080fd5b505af1158015610afe573d6000803e3d6000fd5b50505050806000808481526020019081526020016000206000828254610b249190611528565b9091555050604080518281526000602082015283917f36a4b21e2bb01a8221bce1e7b3155d4271f24e86851e93a67ba12dfaf893ccb6910160405180910390a25050565b6000610b97846040518060400160405280600a81526020016920a2222fa6a0a923a4a760b11b81525084610cfe565b600081815260208190526040902054909150831115610bc95760405163a832a98d60e01b815260040160405180910390fd5b60008181526020819052604081208054859290610be7908490611558565b90915550506040516313c14e6f60e31b815260048101859052602481018490527f00000000000000000000000000000000000000000000000000000000000000006001600160a01b031690639e0a737890604401600060405180830381600087803b158015610c5557600080fd5b505af1158015610c69573d6000803e3d6000fd5b5050505050505050565b60008160200151600081518110610c8c57610c8c611584565b602002602001015160001c9050919050565b604080516001600160a01b0385811660248301528416604482015260648082018490528251808303909101815260849091019091526020810180516001600160e01b03166323b872dd60e01b179052610cf8908590610e05565b50505050565b60008381526001602052604081205480610d2b576040516370d645e360e01b815260040160405180910390fd5b60008486604051602001610d4092919061159a565b604051602081830303815290604052805190602001209050610d63828286610d6c565b50949350505050565b7f19457468657265756d205369676e6564204d6573736167653a0a3332000000006000908152601c839052603c812090610da68284610e7b565b6040516bffffffffffffffffffffffff19606083901b16602082015290915085906034016040516020818303038152906040528051906020012014610dfe57604051638baa579f60e01b815260040160405180910390fd5b5050505050565b600080602060008451602086016000885af180610e28576040513d6000823e3d81fd5b50506000513d91508115610e40578060011415610e4d565b6001600160a01b0384163b155b15610cf857604051635274afe760e01b81526001600160a01b03851660048201526024015b60405180910390fd5b600080600080610e8b8686610ea7565b925092509250610e9b8282610ef4565b50909150505b92915050565b60008060008351604103610ee15760208401516040850151606086015160001a610ed388828585610fb1565b955095509550505050610eed565b50508151600091506002905b9250925092565b6000826003811115610f0857610f086115bc565b03610f11575050565b6001826003811115610f2557610f256115bc565b03610f435760405163f645eedf60e01b815260040160405180910390fd5b6002826003811115610f5757610f576115bc565b03610f785760405163fce698f760e01b815260048101829052602401610e72565b6003826003811115610f8c57610f8c6115bc565b03610fad576040516335e2f38360e21b815260048101829052602401610e72565b5050565b600080807f7fffffffffffffffffffffffffffffff5d576e7357a4501ddfe92f46681b20a0841115610fec5750600091506003905082611076565b604080516000808252602082018084528a905260ff891692820192909252606081018790526080810186905260019060a0016020604051602081039080840390855afa158015611040573d6000803e3d6000fd5b5050604051601f1901519150506001600160a01b03811661106c57506000925060019150829050611076565b9250600091508190505b9450945094915050565b634e487b7160e01b600052604160045260246000fd5b6040805190810167ffffffffffffffff811182821017156110b9576110b9611080565b60405290565b604051601f8201601f1916810167ffffffffffffffff811182821017156110e8576110e8611080565b604052919050565b600082601f83011261110157600080fd5b813567ffffffffffffffff81111561111b5761111b611080565b61112e601f8201601f19166020016110bf565b81815284602083860101111561114357600080fd5b816020850160208301376000918101602001919091529392505050565b6000806040838503121561117357600080fd5b82359150602083013567ffffffffffffffff81111561119157600080fd5b8301604081860312156111a357600080fd5b6111ab611096565b813567ffffffffffffffff8111156111c257600080fd5b6111ce878285016110f0565b825250602082013567ffffffffffffffff8111156111eb57600080fd5b80830192505085601f83011261120057600080fd5b813567ffffffffffffffff81111561121a5761121a611080565b8060051b61122a602082016110bf565b9182526020818501810192908101908984111561124657600080fd5b6020860195505b8386101561126c5785358083526020968701969093509091019061124d565b602085015250949791965090945050505050565b60008060006060848603121561129557600080fd5b8335925060208401359150604084013567ffffffffffffffff8111156112ba57600080fd5b6112c6868287016110f0565b9150509250925092565b6000602082840312156112e257600080fd5b5035919050565b600080600080608085870312156112ff57600080fd5b843593506020850135925060408501359150606085013567ffffffffffffffff81111561132b57600080fd5b611337878288016110f0565b91505092959194509250565b801515811461135157600080fd5b50565b60008060008060008060c0878903121561136d57600080fd5b86359550602087013594506040870135935060608701359250608087013561139481611343565b915060a087013567ffffffffffffffff8111156113b057600080fd5b6113bc89828a016110f0565b9150509295509295509295565b600080604083850312156113dc57600080fd5b82359150602083013567ffffffffffffffff8111156113fa57600080fd5b611406858286016110f0565b9150509250929050565b6000806040838503121561142357600080fd5b50508035926020909101359150565b60005b8381101561144d578181015183820152602001611435565b50506000910152565b602081526000825160406020840152805180606085015261147e816080860160208501611432565b602085810151601f19601f93909301929092168501858103606001604087015282516080820181905291830193506000929160a0909101905b808410156114da57845182526020820191506020850194506001840193506114b7565b509695505050505050565b6000602082840312156114f757600080fd5b815163ffffffff8116811461150b57600080fd5b9392505050565b634e487b7160e01b600052601160045260246000fd5b80820180821115610ea157610ea1611512565b60006020828403121561154d57600080fd5b815161150b81611343565b81810381811115610ea157610ea1611512565b60006020828403121561157d57600080fd5b5051919050565b634e487b7160e01b600052603260045260246000fd5b600083516115ac818460208801611432565b9190910191825250602001919050565b634e487b7160e01b600052602160045260246000fdfea2646970667358221220bc4ef7f43eed1e45337c233068db9156065103486ca22f5a6c9b8be2998e89e164736f6c634300081c0033",
  "linkReferences": {},
  "deployedLinkReferences": {}
}