{
  "contracts/perp-dex-minimal/ClearingHouse.sol": {
    "ClearingHouse": {
      "abi": [
        {
          "inputs": [
            {
              "internalType": "address",
              "name": "_oracleAddress",
              "type": "address"
            },
            {
              "internalType": "address",
              "name": "_collateralTokenAddress",
              "type": "address"
            }
          ],
          "stateMutability": "nonpayable",
          "type": "constructor"
        },
        {
          "inputs": [],
          "name": "CallerNotOwnerOfPosition",
          "type": "error"
        },
        {
          "inputs": [],
          "name": "InsufficientFreeCollateral",
          "type": "error"
        },
        {
          "inputs": [],
          "name": "InvalidAmount",
          "type": "error"
        },
        {
          "inputs": [],
          "name": "InvalidLeverage",
          "type": "error"
        },
        {
          "inputs": [],
          "name": "PositionExists",
          "type": "error"
        },
        {
          "inputs": [],
          "name": "PositionNotFound",
          "type": "error"
        },
        {
          "inputs": [],
          "name": "PositionNotLiquidatable",
          "type": "error"
        },
        {
          "inputs": [],
          "name": "PositionUndercollateralized",
          "type": "error"
        },
        {
          "inputs": [],
          "name": "ReentrancyGuardReentrantCall",
          "type": "error"
        },
        {
          "inputs": [],
          "name": "ZeroAddress",
          "type": "error"
        },
        {
          "anonymous": false,
          "inputs": [
            {
              "indexed": true,
              "internalType": "address",
              "name": "user",
              "type": "address"
            },
            {
              "indexed": false,
              "internalType": "uint256",
              "name": "amount",
              "type": "uint256"
            }
          ],
          "name": "CollateralDeposited",
          "type": "event"
        },
        {
          "anonymous": false,
          "inputs": [
            {
              "indexed": true,
              "internalType": "address",
              "name": "user",
              "type": "address"
            },
            {
              "indexed": false,
              "internalType": "uint256",
              "name": "amount",
              "type": "uint256"
            }
          ],
          "name": "CollateralWithdrawn",
          "type": "event"
        },
        {
          "anonymous": false,
          "inputs": [
            {
              "indexed": true,
              "internalType": "address",
              "name": "user",
              "type": "address"
            },
            {
              "indexed": false,
              "internalType": "uint256",
              "name": "amount",
              "type": "uint256"
            }
          ],
          "name": "MarginAdded",
          "type": "event"
        },
        {
          "anonymous": false,
          "inputs": [
            {
              "indexed": true,
              "internalType": "address",
              "name": "user",
              "type": "address"
            },
            {
              "indexed": false,
              "internalType": "uint256",
              "name": "amount",
              "type": "uint256"
            }
          ],
          "name": "MarginRemoved",
          "type": "event"
        },
        {
          "anonymous": false,
          "inputs": [
            {
              "indexed": true,
              "internalType": "address",
              "name": "user",
              "type": "address"
            },
            {
              "indexed": false,
              "internalType": "int256",
              "name": "pnl",
              "type": "int256"
            },
            {
              "indexed": false,
              "internalType": "uint256",
              "name": "fee",
              "type": "uint256"
            }
          ],
          "name": "PositionClosed",
          "type": "event"
        },
        {
          "anonymous": false,
          "inputs": [
            {
              "indexed": true,
              "internalType": "address",
              "name": "user",
              "type": "address"
            },
            {
              "indexed": true,
              "internalType": "address",
              "name": "liquidator",
              "type": "address"
            },
            {
              "indexed": false,
              "internalType": "uint256",
              "name": "liquidationFee",
              "type": "uint256"
            }
          ],
          "name": "PositionLiquidated",
          "type": "event"
        },
        {
          "anonymous": false,
          "inputs": [
            {
              "indexed": true,
              "internalType": "address",
              "name": "user",
              "type": "address"
            },
            {
              "indexed": false,
              "internalType": "uint256",
              "name": "size",
              "type": "uint256"
            },
            {
              "indexed": false,
              "internalType": "uint256",
              "name": "margin",
              "type": "uint256"
            },
            {
              "indexed": false,
              "internalType": "bool",
              "name": "isLong",
              "type": "bool"
            },
            {
              "indexed": false,
              "internalType": "uint256",
              "name": "entryPrice",
              "type": "uint256"
            }
          ],
          "name": "PositionOpened",
          "type": "event"
        },
        {
          "inputs": [],
          "name": "BPS_DIVISOR",
          "outputs": [
            {
              "internalType": "uint256",
              "name": "",
              "type": "uint256"
            }
          ],
          "stateMutability": "view",
          "type": "function"
        },
        {
          "inputs": [],
          "name": "LEVERAGE_PRECISION",
          "outputs": [
            {
              "internalType": "uint256",
              "name": "",
              "type": "uint256"
            }
          ],
          "stateMutability": "view",
          "type": "function"
        },
        {
          "inputs": [],
          "name": "LIQUIDATION_FEE_BPS",
          "outputs": [
            {
              "internalType": "uint256",
              "name": "",
              "type": "uint256"
            }
          ],
          "stateMutability": "view",
          "type": "function"
        },
        {
          "inputs": [],
          "name": "MAINTENANCE_MARGIN_RATIO_BPS",
          "outputs": [
            {
              "internalType": "uint256",
              "name": "",
              "type": "uint256"
            }
          ],
          "stateMutability": "view",
          "type": "function"
        },
        {
          "inputs": [],
          "name": "MAX_LEVERAGE",
          "outputs": [
            {
              "internalType": "uint256",
              "name": "",
              "type": "uint256"
            }
          ],
          "stateMutability": "view",
          "type": "function"
        },
        {
          "inputs": [],
          "name": "MIN_LEVERAGE",
          "outputs": [
            {
              "internalType": "uint256",
              "name": "",
              "type": "uint256"
            }
          ],
          "stateMutability": "view",
          "type": "function"
        },
        {
          "inputs": [],
          "name": "PRICE_PRECISION",
          "outputs": [
            {
              "internalType": "uint256",
              "name": "",
              "type": "uint256"
            }
          ],
          "stateMutability": "view",
          "type": "function"
        },
        {
          "inputs": [],
          "name": "TAKER_FEE_BPS",
          "outputs": [
            {
              "internalType": "uint256",
              "name": "",
              "type": "uint256"
            }
          ],
          "stateMutability": "view",
          "type": "function"
        },
        {
          "inputs": [
            {
              "internalType": "uint256",
              "name": "_amount",
              "type": "uint256"
            }
          ],
          "name": "addMargin",
          "outputs": [],
          "stateMutability": "nonpayable",
          "type": "function"
        },
        {
          "inputs": [
            {
              "internalType": "address",
              "name": "_user",
              "type": "address"
            }
          ],
          "name": "calculatePnl",
          "outputs": [
            {
              "internalType": "int256",
              "name": "",
              "type": "int256"
            },
            {
              "internalType": "bool",
              "name": "",
              "type": "bool"
            }
          ],
          "stateMutability": "view",
          "type": "function"
        },
        {
          "inputs": [],
          "name": "closePosition",
          "outputs": [],
          "stateMutability": "nonpayable",
          "type": "function"
        },
        {
          "inputs": [],
          "name": "collateralToken",
          "outputs": [
            {
              "internalType": "contract MockERC20",
              "name": "",
              "type": "address"
            }
          ],
          "stateMutability": "view",
          "type": "function"
        },
        {
          "inputs": [
            {
              "internalType": "uint256",
              "name": "_amount",
              "type": "uint256"
            }
          ],
          "name": "depositCollateral",
          "outputs": [],
          "stateMutability": "nonpayable",
          "type": "function"
        },
        {
          "inputs": [
            {
              "internalType": "address",
              "name": "",
              "type": "address"
            }
          ],
          "name": "freeCollateral",
          "outputs": [
            {
              "internalType": "uint256",
              "name": "",
              "type": "uint256"
            }
          ],
          "stateMutability": "view",
          "type": "function"
        },
        {
          "inputs": [
            {
              "internalType": "address",
              "name": "_user",
              "type": "address"
            }
          ],
          "name": "liquidate",
          "outputs": [],
          "stateMutability": "nonpayable",
          "type": "function"
        },
        {
          "inputs": [
            {
              "internalType": "uint256",
              "name": "_margin",
              "type": "uint256"
            },
            {
              "internalType": "uint256",
              "name": "_leverage",
              "type": "uint256"
            },
            {
              "internalType": "bool",
              "name": "_isLong",
              "type": "bool"
            }
          ],
          "name": "openPosition",
          "outputs": [],
          "stateMutability": "nonpayable",
          "type": "function"
        },
        {
          "inputs": [],
          "name": "oracle",
          "outputs": [
            {
              "internalType": "contract Oracle",
              "name": "",
              "type": "address"
            }
          ],
          "stateMutability": "view",
          "type": "function"
        },
        {
          "inputs": [
            {
              "internalType": "address",
              "name": "",
              "type": "address"
            }
          ],
          "name": "positions",
          "outputs": [
            {
              "internalType": "uint256",
              "name": "size",
              "type": "uint256"
            },
            {
              "internalType": "uint256",
              "name": "margin",
              "type": "uint256"
            },
            {
              "internalType": "uint256",
              "name": "entryPrice",
              "type": "uint256"
            },
            {
              "internalType": "bool",
              "name": "isLong",
              "type": "bool"
            }
          ],
          "stateMutability": "view",
          "type": "function"
        },
        {
          "inputs": [
            {
              "internalType": "uint256",
              "name": "_amount",
              "type": "uint256"
            }
          ],
          "name": "removeMargin",
          "outputs": [],
          "stateMutability": "nonpayable",
          "type": "function"
        },
        {
          "inputs": [
            {
              "internalType": "uint256",
              "name": "_amount",
              "type": "uint256"
            }
          ],
          "name": "withdrawCollateral",
          "outputs": [],
          "stateMutability": "nonpayable",
          "type": "function"
        }
      ],
      "devdoc": {
        "author": "Your Name",
        "errors": {
          "ReentrancyGuardReentrantCall()": [
            {
              "details": "Unauthorized reentrant call."
            }
          ]
        },
        "kind": "dev",
        "methods": {},
        "title": "ClearingHouse",
        "version": 1
      },
      "evm": {
        "bytecode": {
          "linkReferences": {},
          "object": "60c060405234801561001057600080fd5b506040516115aa3803806115aa83398101604081905261002f916100a2565b60016000556001600160a01b038216158061005157506001600160a01b038116155b1561006f5760405163d92e233d60e01b815260040160405180910390fd5b6001600160a01b039182166080521660a0526100d5565b80516001600160a01b038116811461009d57600080fd5b919050565b600080604083850312156100b557600080fd5b6100be83610086565b91506100cc60208401610086565b90509250929050565b60805160a051611478610132600039600081816102c30152818161075e015281816108ec01528181610bc10152610e0b01526000818161022a015281816104670152818161066901528181610cff01526110f501526114786000f3fe608060405234801561001057600080fd5b506004361061012c5760003560e01c80637dc0d1d0116100ad578063a43be94811610071578063a43be948146102ab578063b2016bd4146102be578063bad4a01f146102e5578063c393d0e3146102f8578063f11f854f1461030057600080fd5b80637dc0d1d01461022557806381d8b829146102645780638da793b21461028c57806395082d25146102945780639b45ec97146102a357600080fd5b80632f865568116100f45780632f8655681461019357806334c1557d146101a6578063518e8dfc146101ae57806355f57510146101b75780636112fe2e1461021257600080fd5b80631558c96614610131578063191fe1ed146101465780632057bfa01461016257806324aee8411461016a57806329fd974714610173575b600080fd5b61014461013f36600461125a565b610313565b005b61014f61271081565b6040519081526020015b60405180910390f35b61014f600a81565b61014f61027181565b61014f610181366004611293565b60026020526000908152604090205481565b6101446101a1366004611293565b6105c4565b61014f610844565b61014f6101f481565b6101f06101c5366004611293565b6001602081905260009182526040909120805491810154600282015460039092015490919060ff1684565b6040805194855260208501939093529183015215156060820152608001610159565b6101446102203660046112c3565b610853565b61024c7f000000000000000000000000000000000000000000000000000000000000000081565b6040516001600160a01b039091168152602001610159565b610277610272366004611293565b6109f2565b60408051928352901515602083015201610159565b61014f606481565b61014f670de0b6b3a764000081565b61014f610a3e565b6101446102b93660046112c3565b610a49565b61024c7f000000000000000000000000000000000000000000000000000000000000000081565b6101446102f33660046112c3565b610b52565b610144610cb4565b61014461030e3660046112c3565b610f19565b61031b61105e565b33600090815260016020526040902054156103495760405163384e583f60e11b815260040160405180910390fd5b8260000361036a5760405163162908e360e11b815260040160405180910390fd5b610376606460016112f2565b82108061038c57506103896064806112f2565b82115b156103aa57604051633fe89cb960e11b815260040160405180910390fd5b336000908152600260205260409020548311156103da576040516319a3029160e01b815260040160405180910390fd5b33600090815260026020526040812080548592906103f990849061130f565b9091555060009050606461040d84866112f2565b6104179190611338565b90506000612710610429600a846112f2565b6104339190611338565b9050848110610455576040516319a3029160e01b815260040160405180910390fd5b6000610461828761130f565b905060007f00000000000000000000000000000000000000000000000000000000000000006001600160a01b03166398d5fdca6040518163ffffffff1660e01b8152600401602060405180830381865afa1580156104c3573d6000803e3d6000fd5b505050506040513d601f19601f820116820180604052508101906104e7919061134c565b90506000816104fe670de0b6b3a7640000876112f2565b6105089190611338565b604080516080808201835283825260208083018881528385018881528c151560608087018281523360008181526001808952908b902099518a559551958901959095559251600288015591516003909601805460ff19169615159690961790955585518781529283018a905294820193909352928301869052929350917fcd994640f2c49b14feb3faffeeb78367dd4be7f01b02e885e5c905ef46a535af910160405180910390a250505050506105bf6001600055565b505050565b6105cc61105e565b6001600160a01b03811660009081526001602081815260408084208151608081018352815480825294820154938101939093526002810154918301919091526003015460ff1615156060820152910361063857604051636ec9be1160e01b815260040160405180910390fd5b60006106438361108f565b915050801561066557604051636415f95960e01b815260040160405180910390fd5b60007f00000000000000000000000000000000000000000000000000000000000000006001600160a01b03166398d5fdca6040518163ffffffff1660e01b8152600401602060405180830381865afa1580156106c5573d6000803e3d6000fd5b505050506040513d601f19601f820116820180604052508101906106e9919061134c565b90506000670de0b6b3a764000082856000015161070691906112f2565b6107109190611338565b905060006127106107236101f4846112f2565b61072d9190611338565b90508460200151811115610742575060208401515b6040516340c10f1960e01b8152336004820152602481018290527f00000000000000000000000000000000000000000000000000000000000000006001600160a01b0316906340c10f1990604401600060405180830381600087803b1580156107aa57600080fd5b505af11580156107be573d6000803e3d6000fd5b50506040518381523392506001600160a01b03891691507ff2f51441117ac1865376b3f32be7c7b7f01c5a67fbcf4e44f3ae8bacc03b5a909060200160405180910390a3505050506001600160a01b0382166000908152600160208190526040822082815580820183905560028101839055600301805460ff1916905590555050565b50565b610850606460016112f2565b81565b61085b61105e565b8060000361087c5760405163162908e360e11b815260040160405180910390fd5b336000908152600260205260409020548111156108ac576040516319a3029160e01b815260040160405180910390fd5b33600090815260026020526040812080548392906108cb90849061130f565b909155505060405163a9059cbb60e01b8152336004820152602481018290527f00000000000000000000000000000000000000000000000000000000000000006001600160a01b03169063a9059cbb906044016020604051808303816000875af115801561093d573d6000803e3d6000fd5b505050506040513d601f19601f820116820180604052508101906109619190611365565b6109b25760405162461bcd60e51b815260206004820152601a60248201527f436f6c6c61746572616c207472616e73666572206661696c656400000000000060448201526064015b60405180910390fd5b60405181815233907fc30fcfbcaac9e0deffa719714eaa82396ff506a0d0d0eebe170830177288715d906020015b60405180910390a26108416001600055565b6001600160a01b03811660009081526001602052604081205481908103610a2c57604051636ec9be1160e01b815260040160405180910390fd5b610a358361108f565b91509150915091565b6108506064806112f2565b610a5161105e565b80600003610a725760405163162908e360e11b815260040160405180910390fd5b3360009081526001602052604081208054909103610aa357604051636ec9be1160e01b815260040160405180910390fd5b33600090815260026020526040902054821115610ad3576040516319a3029160e01b815260040160405180910390fd5b3360009081526002602052604081208054849290610af290849061130f565b9250508190555081816001016000828254610b0d9190611382565b909155505060405182815233907f2f511207ce5ebcde9ee1624d6dfe240ca859263638fbd7a18417d9cdd56f9a099060200160405180910390a2506108416001600055565b610b5a61105e565b80600003610b7b5760405163162908e360e11b815260040160405180910390fd5b3360009081526002602052604081208054839290610b9a908490611382565b90915550506040516323b872dd60e01b8152336004820152306024820152604481018290527f00000000000000000000000000000000000000000000000000000000000000006001600160a01b0316906323b872dd906064016020604051808303816000875af1158015610c12573d6000803e3d6000fd5b505050506040513d601f19601f82011682018060405250810190610c369190611365565b610c825760405162461bcd60e51b815260206004820152601a60248201527f436f6c6c61746572616c207472616e73666572206661696c656400000000000060448201526064016109a9565b60405181815233907fd7243f6f8212d5188fd054141cf6ea89cfc0d91facb8c3afe2f88a1358480142906020016109e0565b610cbc61105e565b3360009081526001602052604081208054909103610ced57604051636ec9be1160e01b815260040160405180910390fd5b6000610cf83361108f565b50905060007f00000000000000000000000000000000000000000000000000000000000000006001600160a01b03166398d5fdca6040518163ffffffff1660e01b8152600401602060405180830381865afa158015610d5b573d6000803e3d6000fd5b505050506040513d601f19601f82011682018060405250810190610d7f919061134c565b90506000670de0b6b3a7640000828560000154610d9c91906112f2565b610da69190611338565b90506000612710610db8600a846112f2565b610dc29190611338565b90506000610dd08286611395565b90506000818760010154610de491906113bc565b90506000821315610e70576040516340c10f1960e01b8152306004820152602481018390527f00000000000000000000000000000000000000000000000000000000000000006001600160a01b0316906340c10f1990604401600060405180830381600087803b158015610e5757600080fd5b505af1158015610e6b573d6000803e3d6000fd5b505050505b6000811315610e9e573360009081526002602052604081208054839290610e98908490611382565b90915550505b604080518781526020810185905233917fac92dcea6a7c5a91f4c12a9323e9bca94d65ad5ef56b9450df4393d8e5996ed9910160405180910390a2505033600090815260016020819052604082208281559081018290556002810191909155600301805460ff1916905550610f17935061108892505050565b565b610f2161105e565b80600003610f425760405163162908e360e11b815260040160405180910390fd5b3360009081526001602052604081208054909103610f7357604051636ec9be1160e01b815260040160405180910390fd5b8060010154821115610f985760405163162908e360e11b815260040160405180910390fd5b81816001016000828254610fac919061130f565b9091555060009050610fbd3361108f565b91505080610ff95782826001016000828254610fd99190611382565b92505081905550604051634c56808560e11b815260040160405180910390fd5b3360009081526002602052604081208054859290611018908490611382565b909155505060405183815233907fa281fa1b5faa81f054d92876a8bcad5fc8225ff9b049511d9a05d4d5d625bb889060200160405180910390a250506108416001600055565b60026000540361108157604051633ee5aeb560e01b815260040160405180910390fd5b6002600055565b6001600055565b6001600160a01b03811660009081526001602081815260408084208151608081018352815480825294820154938101939093526002810154918301919091526003015460ff1615156060820152829182036110f1575060009360019350915050565b60007f00000000000000000000000000000000000000000000000000000000000000006001600160a01b03166398d5fdca6040518163ffffffff1660e01b8152600401602060405180830381865afa158015611151573d6000803e3d6000fd5b505050506040513d601f19601f82011682018060405250810190611175919061134c565b6040830151606084015191925090156111b9578251670de0b6b3a76400009061119e8385611395565b6111a891906113e4565b6111b29190611414565b94506111e6565b8251670de0b6b3a7640000906111cf8484611395565b6111d991906113e4565b6111e39190611414565b94505b60008584602001516111f891906113bc565b90506000670de0b6b3a764000084866000015161121591906112f2565b61121f9190611338565b90506000612710611232610271846112f2565b61123c9190611338565b9799979092139750505050505050565b801515811461084157600080fd5b60008060006060848603121561126f57600080fd5b833592506020840135915060408401356112888161124c565b809150509250925092565b6000602082840312156112a557600080fd5b81356001600160a01b03811681146112bc57600080fd5b9392505050565b6000602082840312156112d557600080fd5b5035919050565b634e487b7160e01b600052601160045260246000fd5b8082028115828204841417611309576113096112dc565b92915050565b81810381811115611309576113096112dc565b634e487b7160e01b600052601260045260246000fd5b60008261134757611347611322565b500490565b60006020828403121561135e57600080fd5b5051919050565b60006020828403121561137757600080fd5b81516112bc8161124c565b80820180821115611309576113096112dc565b81810360008312801583831316838312821617156113b5576113b56112dc565b5092915050565b80820182811260008312801582168215821617156113dc576113dc6112dc565b505092915050565b80820260008212600160ff1b84141615611400576114006112dc565b8181058314821517611309576113096112dc565b60008261142357611423611322565b600160ff1b82146000198414161561143d5761143d6112dc565b50059056fea2646970667358221220d97cef8bbccb9bbca96531b98dc9bdd58c93e1e7d7ce58a5403c33abcd8dc0a064736f6c634300081c0033",
          "opcodes": "PUSH1 0xC0 PUSH1 0x40 MSTORE CALLVALUE DUP1 ISZERO PUSH2 0x10 JUMPI PUSH1 0x0 DUP1 REVERT JUMPDEST POP PUSH1 0x40 MLOAD PUSH2 0x15AA CODESIZE SUB DUP1 PUSH2 0x15AA DUP4 CODECOPY DUP2 ADD PUSH1 0x40 DUP2 SWAP1 MSTORE PUSH2 0x2F SWAP2 PUSH2 0xA2 JUMP JUMPDEST PUSH1 0x1 PUSH1 0x0 SSTORE PUSH1 0x1 PUSH1 0x1 PUSH1 0xA0 SHL SUB DUP3 AND ISZERO DUP1 PUSH2 0x51 JUMPI POP PUSH1 0x1 PUSH1 0x1 PUSH1 0xA0 SHL SUB DUP2 AND ISZERO JUMPDEST ISZERO PUSH2 0x6F JUMPI PUSH1 0x40 MLOAD PUSH4 0xD92E233D PUSH1 0xE0 SHL DUP2 MSTORE PUSH1 0x4 ADD PUSH1 0x40 MLOAD DUP1 SWAP2 SUB SWAP1 REVERT JUMPDEST PUSH1 0x1 PUSH1 0x1 PUSH1 0xA0 SHL SUB SWAP2 DUP3 AND PUSH1 0x80 MSTORE AND PUSH1 0xA0 MSTORE PUSH2 0xD5 JUMP JUMPDEST DUP1 MLOAD PUSH1 0x1 PUSH1 0x1 PUSH1 0xA0 SHL SUB DUP2 AND DUP2 EQ PUSH2 0x9D JUMPI PUSH1 0x0 DUP1 REVERT JUMPDEST SWAP2 SWAP1 POP JUMP JUMPDEST PUSH1 0x0 DUP1 PUSH1 0x40 DUP4 DUP6 SUB SLT ISZERO PUSH2 0xB5 JUMPI PUSH1 0x0 DUP1 REVERT JUMPDEST PUSH2 0xBE DUP4 PUSH2 0x86 JUMP JUMPDEST SWAP2 POP PUSH2 0xCC PUSH1 0x20 DUP5 ADD PUSH2 0x86 JUMP JUMPDEST SWAP1 POP SWAP3 POP SWAP3 SWAP1 POP JUMP JUMPDEST PUSH1 0x80 MLOAD PUSH1 0xA0 MLOAD PUSH2 0x1478 PUSH2 0x132 PUSH1 0x0 CODECOPY PUSH1 0x0 DUP2 DUP2 PUSH2 0x2C3 ADD MSTORE DUP2 DUP2 PUSH2 0x75E ADD MSTORE DUP2 DUP2 PUSH2 0x8EC ADD MSTORE DUP2 DUP2 PUSH2 0xBC1 ADD MSTORE PUSH2 0xE0B ADD MSTORE PUSH1 0x0 DUP2 DUP2 PUSH2 0x22A ADD MSTORE DUP2 DUP2 PUSH2 0x467 ADD MSTORE DUP2 DUP2 PUSH2 0x669 ADD MSTORE DUP2 DUP2 PUSH2 0xCFF ADD MSTORE PUSH2 0x10F5 ADD MSTORE PUSH2 0x1478 PUSH1 0x0 RETURN INVALID PUSH1 0x80 PUSH1 0x40 MSTORE CALLVALUE DUP1 ISZERO PUSH2 0x10 JUMPI PUSH1 0x0 DUP1 REVERT JUMPDEST POP PUSH1 0x4 CALLDATASIZE LT PUSH2 0x12C JUMPI PUSH1 0x0 CALLDATALOAD PUSH1 0xE0 SHR DUP1 PUSH4 0x7DC0D1D0 GT PUSH2 0xAD JUMPI DUP1 PUSH4 0xA43BE948 GT PUSH2 0x71 JUMPI DUP1 PUSH4 0xA43BE948 EQ PUSH2 0x2AB JUMPI DUP1 PUSH4 0xB2016BD4 EQ PUSH2 0x2BE JUMPI DUP1 PUSH4 0xBAD4A01F EQ PUSH2 0x2E5 JUMPI DUP1 PUSH4 0xC393D0E3 EQ PUSH2 0x2F8 JUMPI DUP1 PUSH4 0xF11F854F EQ PUSH2 0x300 JUMPI PUSH1 0x0 DUP1 REVERT JUMPDEST DUP1 PUSH4 0x7DC0D1D0 EQ PUSH2 0x225 JUMPI DUP1 PUSH4 0x81D8B829 EQ PUSH2 0x264 JUMPI DUP1 PUSH4 0x8DA793B2 EQ PUSH2 0x28C JUMPI DUP1 PUSH4 0x95082D25 EQ PUSH2 0x294 JUMPI DUP1 PUSH4 0x9B45EC97 EQ PUSH2 0x2A3 JUMPI PUSH1 0x0 DUP1 REVERT JUMPDEST DUP1 PUSH4 0x2F865568 GT PUSH2 0xF4 JUMPI DUP1 PUSH4 0x2F865568 EQ PUSH2 0x193 JUMPI DUP1 PUSH4 0x34C1557D EQ PUSH2 0x1A6 JUMPI DUP1 PUSH4 0x518E8DFC EQ PUSH2 0x1AE JUMPI DUP1 PUSH4 0x55F57510 EQ PUSH2 0x1B7 JUMPI DUP1 PUSH4 0x6112FE2E EQ PUSH2 0x212 JUMPI PUSH1 0x0 DUP1 REVERT JUMPDEST DUP1 PUSH4 0x1558C966 EQ PUSH2 0x131 JUMPI DUP1 PUSH4 0x191FE1ED EQ PUSH2 0x146 JUMPI DUP1 PUSH4 0x2057BFA0 EQ PUSH2 0x162 JUMPI DUP1 PUSH4 0x24AEE841 EQ PUSH2 0x16A JUMPI DUP1 PUSH4 0x29FD9747 EQ PUSH2 0x173 JUMPI JUMPDEST PUSH1 0x0 DUP1 REVERT JUMPDEST PUSH2 0x144 PUSH2 0x13F CALLDATASIZE PUSH1 0x4 PUSH2 0x125A JUMP JUMPDEST PUSH2 0x313 JUMP JUMPDEST STOP JUMPDEST PUSH2 0x14F PUSH2 0x2710 DUP2 JUMP JUMPDEST PUSH1 0x40 MLOAD SWAP1 DUP2 MSTORE PUSH1 0x20 ADD JUMPDEST PUSH1 0x40 MLOAD DUP1 SWAP2 SUB SWAP1 RETURN JUMPDEST PUSH2 0x14F PUSH1 0xA DUP2 JUMP JUMPDEST PUSH2 0x14F PUSH2 0x271 DUP2 JUMP JUMPDEST PUSH2 0x14F PUSH2 0x181 CALLDATASIZE PUSH1 0x4 PUSH2 0x1293 JUMP JUMPDEST PUSH1 0x2 PUSH1 0x20 MSTORE PUSH1 0x0 SWAP1 DUP2 MSTORE PUSH1 0x40 SWAP1 KECCAK256 SLOAD DUP2 JUMP JUMPDEST PUSH2 0x144 PUSH2 0x1A1 CALLDATASIZE PUSH1 0x4 PUSH2 0x1293 JUMP JUMPDEST PUSH2 0x5C4 JUMP JUMPDEST PUSH2 0x14F PUSH2 0x844 JUMP JUMPDEST PUSH2 0x14F PUSH2 0x1F4 DUP2 JUMP JUMPDEST PUSH2 0x1F0 PUSH2 0x1C5 CALLDATASIZE PUSH1 0x4 PUSH2 0x1293 JUMP JUMPDEST PUSH1 0x1 PUSH1 0x20 DUP2 SWAP1 MSTORE PUSH1 0x0 SWAP2 DUP3 MSTORE PUSH1 0x40 SWAP1 SWAP2 KECCAK256 DUP1 SLOAD SWAP2 DUP2 ADD SLOAD PUSH1 0x2 DUP3 ADD SLOAD PUSH1 0x3 SWAP1 SWAP3 ADD SLOAD SWAP1 SWAP2 SWAP1 PUSH1 0xFF AND DUP5 JUMP JUMPDEST PUSH1 0x40 DUP1 MLOAD SWAP5 DUP6 MSTORE PUSH1 0x20 DUP6 ADD SWAP4 SWAP1 SWAP4 MSTORE SWAP2 DUP4 ADD MSTORE ISZERO ISZERO PUSH1 0x60 DUP3 ADD MSTORE PUSH1 0x80 ADD PUSH2 0x159 JUMP JUMPDEST PUSH2 0x144 PUSH2 0x220 CALLDATASIZE PUSH1 0x4 PUSH2 0x12C3 JUMP JUMPDEST PUSH2 0x853 JUMP JUMPDEST PUSH2 0x24C PUSH32 0x0 DUP2 JUMP JUMPDEST PUSH1 0x40 MLOAD PUSH1 0x1 PUSH1 0x1 PUSH1 0xA0 SHL SUB SWAP1 SWAP2 AND DUP2 MSTORE PUSH1 0x20 ADD PUSH2 0x159 JUMP JUMPDEST PUSH2 0x277 PUSH2 0x272 CALLDATASIZE PUSH1 0x4 PUSH2 0x1293 JUMP JUMPDEST PUSH2 0x9F2 JUMP JUMPDEST PUSH1 0x40 DUP1 MLOAD SWAP3 DUP4 MSTORE SWAP1 ISZERO ISZERO PUSH1 0x20 DUP4 ADD MSTORE ADD PUSH2 0x159 JUMP JUMPDEST PUSH2 0x14F PUSH1 0x64 DUP2 JUMP JUMPDEST PUSH2 0x14F PUSH8 0xDE0B6B3A7640000 DUP2 JUMP JUMPDEST PUSH2 0x14F PUSH2 0xA3E JUMP JUMPDEST PUSH2 0x144 PUSH2 0x2B9 CALLDATASIZE PUSH1 0x4 PUSH2 0x12C3 JUMP JUMPDEST PUSH2 0xA49 JUMP JUMPDEST PUSH2 0x24C PUSH32 0x0 DUP2 JUMP JUMPDEST PUSH2 0x144 PUSH2 0x2F3 CALLDATASIZE PUSH1 0x4 PUSH2 0x12C3 JUMP JUMPDEST PUSH2 0xB52 JUMP JUMPDEST PUSH2 0x144 PUSH2 0xCB4 JUMP JUMPDEST PUSH2 0x144 PUSH2 0x30E CALLDATASIZE PUSH1 0x4 PUSH2 0x12C3 JUMP JUMPDEST PUSH2 0xF19 JUMP JUMPDEST PUSH2 0x31B PUSH2 0x105E JUMP JUMPDEST CALLER PUSH1 0x0 SWAP1 DUP2 MSTORE PUSH1 0x1 PUSH1 0x20 MSTORE PUSH1 0x40 SWAP1 KECCAK256 SLOAD ISZERO PUSH2 0x349 JUMPI PUSH1 0x40 MLOAD PUSH4 0x384E583F PUSH1 0xE1 SHL DUP2 MSTORE PUSH1 0x4 ADD PUSH1 0x40 MLOAD DUP1 SWAP2 SUB SWAP1 REVERT JUMPDEST DUP3 PUSH1 0x0 SUB PUSH2 0x36A JUMPI PUSH1 0x40 MLOAD PUSH4 0x162908E3 PUSH1 0xE1 SHL DUP2 MSTORE PUSH1 0x4 ADD PUSH1 0x40 MLOAD DUP1 SWAP2 SUB SWAP1 REVERT JUMPDEST PUSH2 0x376 PUSH1 0x64 PUSH1 0x1 PUSH2 0x12F2 JUMP JUMPDEST DUP3 LT DUP1 PUSH2 0x38C JUMPI POP PUSH2 0x389 PUSH1 0x64 DUP1 PUSH2 0x12F2 JUMP JUMPDEST DUP3 GT JUMPDEST ISZERO PUSH2 0x3AA JUMPI PUSH1 0x40 MLOAD PUSH4 0x3FE89CB9 PUSH1 0xE1 SHL DUP2 MSTORE PUSH1 0x4 ADD PUSH1 0x40 MLOAD DUP1 SWAP2 SUB SWAP1 REVERT JUMPDEST CALLER PUSH1 0x0 SWAP1 DUP2 MSTORE PUSH1 0x2 PUSH1 0x20 MSTORE PUSH1 0x40 SWAP1 KECCAK256 SLOAD DUP4 GT ISZERO PUSH2 0x3DA JUMPI PUSH1 0x40 MLOAD PUSH4 0x19A30291 PUSH1 0xE0 SHL DUP2 MSTORE PUSH1 0x4 ADD PUSH1 0x40 MLOAD DUP1 SWAP2 SUB SWAP1 REVERT JUMPDEST CALLER PUSH1 0x0 SWAP1 DUP2 MSTORE PUSH1 0x2 PUSH1 0x20 MSTORE PUSH1 0x40 DUP2 KECCAK256 DUP1 SLOAD DUP6 SWAP3 SWAP1 PUSH2 0x3F9 SWAP1 DUP5 SWAP1 PUSH2 0x130F JUMP JUMPDEST SWAP1 SWAP2 SSTORE POP PUSH1 0x0 SWAP1 POP PUSH1 0x64 PUSH2 0x40D DUP5 DUP7 PUSH2 0x12F2 JUMP JUMPDEST PUSH2 0x417 SWAP2 SWAP1 PUSH2 0x1338 JUMP JUMPDEST SWAP1 POP PUSH1 0x0 PUSH2 0x2710 PUSH2 0x429 PUSH1 0xA DUP5 PUSH2 0x12F2 JUMP JUMPDEST PUSH2 0x433 SWAP2 SWAP1 PUSH2 0x1338 JUMP JUMPDEST SWAP1 POP DUP5 DUP2 LT PUSH2 0x455 JUMPI PUSH1 0x40 MLOAD PUSH4 0x19A30291 PUSH1 0xE0 SHL DUP2 MSTORE PUSH1 0x4 ADD PUSH1 0x40 MLOAD DUP1 SWAP2 SUB SWAP1 REVERT JUMPDEST PUSH1 0x0 PUSH2 0x461 DUP3 DUP8 PUSH2 0x130F JUMP JUMPDEST SWAP1 POP PUSH1 0x0 PUSH32 0x0 PUSH1 0x1 PUSH1 0x1 PUSH1 0xA0 SHL SUB AND PUSH4 0x98D5FDCA PUSH1 0x40 MLOAD DUP2 PUSH4 0xFFFFFFFF AND PUSH1 0xE0 SHL DUP2 MSTORE PUSH1 0x4 ADD PUSH1 0x20 PUSH1 0x40 MLOAD DUP1 DUP4 SUB DUP2 DUP7 GAS STATICCALL ISZERO DUP1 ISZERO PUSH2 0x4C3 JUMPI RETURNDATASIZE PUSH1 0x0 DUP1 RETURNDATACOPY RETURNDATASIZE PUSH1 0x0 REVERT JUMPDEST POP POP POP POP PUSH1 0x40 MLOAD RETURNDATASIZE PUSH1 0x1F NOT PUSH1 0x1F DUP3 ADD AND DUP3 ADD DUP1 PUSH1 0x40 MSTORE POP DUP2 ADD SWAP1 PUSH2 0x4E7 SWAP2 SWAP1 PUSH2 0x134C JUMP JUMPDEST SWAP1 POP PUSH1 0x0 DUP2 PUSH2 0x4FE PUSH8 0xDE0B6B3A7640000 DUP8 PUSH2 0x12F2 JUMP JUMPDEST PUSH2 0x508 SWAP2 SWAP1 PUSH2 0x1338 JUMP JUMPDEST PUSH1 0x40 DUP1 MLOAD PUSH1 0x80 DUP1 DUP3 ADD DUP4 MSTORE DUP4 DUP3 MSTORE PUSH1 0x20 DUP1 DUP4 ADD DUP9 DUP2 MSTORE DUP4 DUP6 ADD DUP9 DUP2 MSTORE DUP13 ISZERO ISZERO PUSH1 0x60 DUP1 DUP8 ADD DUP3 DUP2 MSTORE CALLER PUSH1 0x0 DUP2 DUP2 MSTORE PUSH1 0x1 DUP1 DUP10 MSTORE SWAP1 DUP12 SWAP1 KECCAK256 SWAP10 MLOAD DUP11 SSTORE SWAP6 MLOAD SWAP6 DUP10 ADD SWAP6 SWAP1 SWAP6 SSTORE SWAP3 MLOAD PUSH1 0x2 DUP9 ADD SSTORE SWAP2 MLOAD PUSH1 0x3 SWAP1 SWAP7 ADD DUP1 SLOAD PUSH1 0xFF NOT AND SWAP7 ISZERO ISZERO SWAP7 SWAP1 SWAP7 OR SWAP1 SWAP6 SSTORE DUP6 MLOAD DUP8 DUP2 MSTORE SWAP3 DUP4 ADD DUP11 SWAP1 MSTORE SWAP5 DUP3 ADD SWAP4 SWAP1 SWAP4 MSTORE SWAP3 DUP4 ADD DUP7 SWAP1 MSTORE SWAP3 SWAP4 POP SWAP2 PUSH32 0xCD994640F2C49B14FEB3FAFFEEB78367DD4BE7F01B02E885E5C905EF46A535AF SWAP2 ADD PUSH1 0x40 MLOAD DUP1 SWAP2 SUB SWAP1 LOG2 POP POP POP POP POP PUSH2 0x5BF PUSH1 0x1 PUSH1 0x0 SSTORE JUMP JUMPDEST POP POP POP JUMP JUMPDEST PUSH2 0x5CC PUSH2 0x105E JUMP JUMPDEST PUSH1 0x1 PUSH1 0x1 PUSH1 0xA0 SHL SUB DUP2 AND PUSH1 0x0 SWAP1 DUP2 MSTORE PUSH1 0x1 PUSH1 0x20 DUP2 DUP2 MSTORE PUSH1 0x40 DUP1 DUP5 KECCAK256 DUP2 MLOAD PUSH1 0x80 DUP2 ADD DUP4 MSTORE DUP2 SLOAD DUP1 DUP3 MSTORE SWAP5 DUP3 ADD SLOAD SWAP4 DUP2 ADD SWAP4 SWAP1 SWAP4 MSTORE PUSH1 0x2 DUP2 ADD SLOAD SWAP2 DUP4 ADD SWAP2 SWAP1 SWAP2 MSTORE PUSH1 0x3 ADD SLOAD PUSH1 0xFF AND ISZERO ISZERO PUSH1 0x60 DUP3 ADD MSTORE SWAP2 SUB PUSH2 0x638 JUMPI PUSH1 0x40 MLOAD PUSH4 0x6EC9BE11 PUSH1 0xE0 SHL DUP2 MSTORE PUSH1 0x4 ADD PUSH1 0x40 MLOAD DUP1 SWAP2 SUB SWAP1 REVERT JUMPDEST PUSH1 0x0 PUSH2 0x643 DUP4 PUSH2 0x108F JUMP JUMPDEST SWAP2 POP POP DUP1 ISZERO PUSH2 0x665 JUMPI PUSH1 0x40 MLOAD PUSH4 0x6415F959 PUSH1 0xE0 SHL DUP2 MSTORE PUSH1 0x4 ADD PUSH1 0x40 MLOAD DUP1 SWAP2 SUB SWAP1 REVERT JUMPDEST PUSH1 0x0 PUSH32 0x0 PUSH1 0x1 PUSH1 0x1 PUSH1 0xA0 SHL SUB AND PUSH4 0x98D5FDCA PUSH1 0x40 MLOAD DUP2 PUSH4 0xFFFFFFFF AND PUSH1 0xE0 SHL DUP2 MSTORE PUSH1 0x4 ADD PUSH1 0x20 PUSH1 0x40 MLOAD DUP1 DUP4 SUB DUP2 DUP7 GAS STATICCALL ISZERO DUP1 ISZERO PUSH2 0x6C5 JUMPI RETURNDATASIZE PUSH1 0x0 DUP1 RETURNDATACOPY RETURNDATASIZE PUSH1 0x0 REVERT JUMPDEST POP POP POP POP PUSH1 0x40 MLOAD RETURNDATASIZE PUSH1 0x1F NOT PUSH1 0x1F DUP3 ADD AND DUP3 ADD DUP1 PUSH1 0x40 MSTORE POP DUP2 ADD SWAP1 PUSH2 0x6E9 SWAP2 SWAP1 PUSH2 0x134C JUMP JUMPDEST SWAP1 POP PUSH1 0x0 PUSH8 0xDE0B6B3A7640000 DUP3 DUP6 PUSH1 0x0 ADD MLOAD PUSH2 0x706 SWAP2 SWAP1 PUSH2 0x12F2 JUMP JUMPDEST PUSH2 0x710 SWAP2 SWAP1 PUSH2 0x1338 JUMP JUMPDEST SWAP1 POP PUSH1 0x0 PUSH2 0x2710 PUSH2 0x723 PUSH2 0x1F4 DUP5 PUSH2 0x12F2 JUMP JUMPDEST PUSH2 0x72D SWAP2 SWAP1 PUSH2 0x1338 JUMP JUMPDEST SWAP1 POP DUP5 PUSH1 0x20 ADD MLOAD DUP2 GT ISZERO PUSH2 0x742 JUMPI POP PUSH1 0x20 DUP5 ADD MLOAD JUMPDEST PUSH1 0x40 MLOAD PUSH4 0x40C10F19 PUSH1 0xE0 SHL DUP2 MSTORE CALLER PUSH1 0x4 DUP3 ADD MSTORE PUSH1 0x24 DUP2 ADD DUP3 SWAP1 MSTORE PUSH32 0x0 PUSH1 0x1 PUSH1 0x1 PUSH1 0xA0 SHL SUB AND SWAP1 PUSH4 0x40C10F19 SWAP1 PUSH1 0x44 ADD PUSH1 0x0 PUSH1 0x40 MLOAD DUP1 DUP4 SUB DUP2 PUSH1 0x0 DUP8 DUP1 EXTCODESIZE ISZERO DUP1 ISZERO PUSH2 0x7AA JUMPI PUSH1 0x0 DUP1 REVERT JUMPDEST POP GAS CALL ISZERO DUP1 ISZERO PUSH2 0x7BE JUMPI RETURNDATASIZE PUSH1 0x0 DUP1 RETURNDATACOPY RETURNDATASIZE PUSH1 0x0 REVERT JUMPDEST POP POP PUSH1 0x40 MLOAD DUP4 DUP2 MSTORE CALLER SWAP3 POP PUSH1 0x1 PUSH1 0x1 PUSH1 0xA0 SHL SUB DUP10 AND SWAP2 POP PUSH32 0xF2F51441117AC1865376B3F32BE7C7B7F01C5A67FBCF4E44F3AE8BACC03B5A90 SWAP1 PUSH1 0x20 ADD PUSH1 0x40 MLOAD DUP1 SWAP2 SUB SWAP1 LOG3 POP POP POP POP PUSH1 0x1 PUSH1 0x1 PUSH1 0xA0 SHL SUB DUP3 AND PUSH1 0x0 SWAP1 DUP2 MSTORE PUSH1 0x1 PUSH1 0x20 DUP2 SWAP1 MSTORE PUSH1 0x40 DUP3 KECCAK256 DUP3 DUP2 SSTORE DUP1 DUP3 ADD DUP4 SWAP1 SSTORE PUSH1 0x2 DUP2 ADD DUP4 SWAP1 SSTORE PUSH1 0x3 ADD DUP1 SLOAD PUSH1 0xFF NOT AND SWAP1 SSTORE SWAP1 SSTORE POP POP JUMP JUMPDEST POP JUMP JUMPDEST PUSH2 0x850 PUSH1 0x64 PUSH1 0x1 PUSH2 0x12F2 JUMP JUMPDEST DUP2 JUMP JUMPDEST PUSH2 0x85B PUSH2 0x105E JUMP JUMPDEST DUP1 PUSH1 0x0 SUB PUSH2 0x87C JUMPI PUSH1 0x40 MLOAD PUSH4 0x162908E3 PUSH1 0xE1 SHL DUP2 MSTORE PUSH1 0x4 ADD PUSH1 0x40 MLOAD DUP1 SWAP2 SUB SWAP1 REVERT JUMPDEST CALLER PUSH1 0x0 SWAP1 DUP2 MSTORE PUSH1 0x2 PUSH1 0x20 MSTORE PUSH1 0x40 SWAP1 KECCAK256 SLOAD DUP2 GT ISZERO PUSH2 0x8AC JUMPI PUSH1 0x40 MLOAD PUSH4 0x19A30291 PUSH1 0xE0 SHL DUP2 MSTORE PUSH1 0x4 ADD PUSH1 0x40 MLOAD DUP1 SWAP2 SUB SWAP1 REVERT JUMPDEST CALLER PUSH1 0x0 SWAP1 DUP2 MSTORE PUSH1 0x2 PUSH1 0x20 MSTORE PUSH1 0x40 DUP2 KECCAK256 DUP1 SLOAD DUP4 SWAP3 SWAP1 PUSH2 0x8CB SWAP1 DUP5 SWAP1 PUSH2 0x130F JUMP JUMPDEST SWAP1 SWAP2 SSTORE POP POP PUSH1 0x40 MLOAD PUSH4 0xA9059CBB PUSH1 0xE0 SHL DUP2 MSTORE CALLER PUSH1 0x4 DUP3 ADD MSTORE PUSH1 0x24 DUP2 ADD DUP3 SWAP1 MSTORE PUSH32 0x0 PUSH1 0x1 PUSH1 0x1 PUSH1 0xA0 SHL SUB AND SWAP1 PUSH4 0xA9059CBB SWAP1 PUSH1 0x44 ADD PUSH1 0x20 PUSH1 0x40 MLOAD DUP1 DUP4 SUB DUP2 PUSH1 0x0 DUP8 GAS CALL ISZERO DUP1 ISZERO PUSH2 0x93D JUMPI RETURNDATASIZE PUSH1 0x0 DUP1 RETURNDATACOPY RETURNDATASIZE PUSH1 0x0 REVERT JUMPDEST POP POP POP POP PUSH1 0x40 MLOAD RETURNDATASIZE PUSH1 0x1F NOT PUSH1 0x1F DUP3 ADD AND DUP3 ADD DUP1 PUSH1 0x40 MSTORE POP DUP2 ADD SWAP1 PUSH2 0x961 SWAP2 SWAP1 PUSH2 0x1365 JUMP JUMPDEST PUSH2 0x9B2 JUMPI PUSH1 0x40 MLOAD PUSH3 0x461BCD PUSH1 0xE5 SHL DUP2 MSTORE PUSH1 0x20 PUSH1 0x4 DUP3 ADD MSTORE PUSH1 0x1A PUSH1 0x24 DUP3 ADD MSTORE PUSH32 0x436F6C6C61746572616C207472616E73666572206661696C6564000000000000 PUSH1 0x44 DUP3 ADD MSTORE PUSH1 0x64 ADD JUMPDEST PUSH1 0x40 MLOAD DUP1 SWAP2 SUB SWAP1 REVERT JUMPDEST PUSH1 0x40 MLOAD DUP2 DUP2 MSTORE CALLER SWAP1 PUSH32 0xC30FCFBCAAC9E0DEFFA719714EAA82396FF506A0D0D0EEBE170830177288715D SWAP1 PUSH1 0x20 ADD JUMPDEST PUSH1 0x40 MLOAD DUP1 SWAP2 SUB SWAP1 LOG2 PUSH2 0x841 PUSH1 0x1 PUSH1 0x0 SSTORE JUMP JUMPDEST PUSH1 0x1 PUSH1 0x1 PUSH1 0xA0 SHL SUB DUP2 AND PUSH1 0x0 SWAP1 DUP2 MSTORE PUSH1 0x1 PUSH1 0x20 MSTORE PUSH1 0x40 DUP2 KECCAK256 SLOAD DUP2 SWAP1 DUP2 SUB PUSH2 0xA2C JUMPI PUSH1 0x40 MLOAD PUSH4 0x6EC9BE11 PUSH1 0xE0 SHL DUP2 MSTORE PUSH1 0x4 ADD PUSH1 0x40 MLOAD DUP1 SWAP2 SUB SWAP1 REVERT JUMPDEST PUSH2 0xA35 DUP4 PUSH2 0x108F JUMP JUMPDEST SWAP2 POP SWAP2 POP SWAP2 POP SWAP2 JUMP JUMPDEST PUSH2 0x850 PUSH1 0x64 DUP1 PUSH2 0x12F2 JUMP JUMPDEST PUSH2 0xA51 PUSH2 0x105E JUMP JUMPDEST DUP1 PUSH1 0x0 SUB PUSH2 0xA72 JUMPI PUSH1 0x40 MLOAD PUSH4 0x162908E3 PUSH1 0xE1 SHL DUP2 MSTORE PUSH1 0x4 ADD PUSH1 0x40 MLOAD DUP1 SWAP2 SUB SWAP1 REVERT JUMPDEST CALLER PUSH1 0x0 SWAP1 DUP2 MSTORE PUSH1 0x1 PUSH1 0x20 MSTORE PUSH1 0x40 DUP2 KECCAK256 DUP1 SLOAD SWAP1 SWAP2 SUB PUSH2 0xAA3 JUMPI PUSH1 0x40 MLOAD PUSH4 0x6EC9BE11 PUSH1 0xE0 SHL DUP2 MSTORE PUSH1 0x4 ADD PUSH1 0x40 MLOAD DUP1 SWAP2 SUB SWAP1 REVERT JUMPDEST CALLER PUSH1 0x0 SWAP1 DUP2 MSTORE PUSH1 0x2 PUSH1 0x20 MSTORE PUSH1 0x40 SWAP1 KECCAK256 SLOAD DUP3 GT ISZERO PUSH2 0xAD3 JUMPI PUSH1 0x40 MLOAD PUSH4 0x19A30291 PUSH1 0xE0 SHL DUP2 MSTORE PUSH1 0x4 ADD PUSH1 0x40 MLOAD DUP1 SWAP2 SUB SWAP1 REVERT JUMPDEST CALLER PUSH1 0x0 SWAP1 DUP2 MSTORE PUSH1 0x2 PUSH1 0x20 MSTORE PUSH1 0x40 DUP2 KECCAK256 DUP1 SLOAD DUP5 SWAP3 SWAP1 PUSH2 0xAF2 SWAP1 DUP5 SWAP1 PUSH2 0x130F JUMP JUMPDEST SWAP3 POP POP DUP2 SWAP1 SSTORE POP DUP2 DUP2 PUSH1 0x1 ADD PUSH1 0x0 DUP3 DUP3 SLOAD PUSH2 0xB0D SWAP2 SWAP1 PUSH2 0x1382 JUMP JUMPDEST SWAP1 SWAP2 SSTORE POP POP PUSH1 0x40 MLOAD DUP3 DUP2 MSTORE CALLER SWAP1 PUSH32 0x2F511207CE5EBCDE9EE1624D6DFE240CA859263638FBD7A18417D9CDD56F9A09 SWAP1 PUSH1 0x20 ADD PUSH1 0x40 MLOAD DUP1 SWAP2 SUB SWAP1 LOG2 POP PUSH2 0x841 PUSH1 0x1 PUSH1 0x0 SSTORE JUMP JUMPDEST PUSH2 0xB5A PUSH2 0x105E JUMP JUMPDEST DUP1 PUSH1 0x0 SUB PUSH2 0xB7B JUMPI PUSH1 0x40 MLOAD PUSH4 0x162908E3 PUSH1 0xE1 SHL DUP2 MSTORE PUSH1 0x4 ADD PUSH1 0x40 MLOAD DUP1 SWAP2 SUB SWAP1 REVERT JUMPDEST CALLER PUSH1 0x0 SWAP1 DUP2 MSTORE PUSH1 0x2 PUSH1 0x20 MSTORE PUSH1 0x40 DUP2 KECCAK256 DUP1 SLOAD DUP4 SWAP3 SWAP1 PUSH2 0xB9A SWAP1 DUP5 SWAP1 PUSH2 0x1382 JUMP JUMPDEST SWAP1 SWAP2 SSTORE POP POP PUSH1 0x40 MLOAD PUSH4 0x23B872DD PUSH1 0xE0 SHL DUP2 MSTORE CALLER PUSH1 0x4 DUP3 ADD MSTORE ADDRESS PUSH1 0x24 DUP3 ADD MSTORE PUSH1 0x44 DUP2 ADD DUP3 SWAP1 MSTORE PUSH32 0x0 PUSH1 0x1 PUSH1 0x1 PUSH1 0xA0 SHL SUB AND SWAP1 PUSH4 0x23B872DD SWAP1 PUSH1 0x64 ADD PUSH1 0x20 PUSH1 0x40 MLOAD DUP1 DUP4 SUB DUP2 PUSH1 0x0 DUP8 GAS CALL ISZERO DUP1 ISZERO PUSH2 0xC12 JUMPI RETURNDATASIZE PUSH1 0x0 DUP1 RETURNDATACOPY RETURNDATASIZE PUSH1 0x0 REVERT JUMPDEST POP POP POP POP PUSH1 0x40 MLOAD RETURNDATASIZE PUSH1 0x1F NOT PUSH1 0x1F DUP3 ADD AND DUP3 ADD DUP1 PUSH1 0x40 MSTORE POP DUP2 ADD SWAP1 PUSH2 0xC36 SWAP2 SWAP1 PUSH2 0x1365 JUMP JUMPDEST PUSH2 0xC82 JUMPI PUSH1 0x40 MLOAD PUSH3 0x461BCD PUSH1 0xE5 SHL DUP2 MSTORE PUSH1 0x20 PUSH1 0x4 DUP3 ADD MSTORE PUSH1 0x1A PUSH1 0x24 DUP3 ADD MSTORE PUSH32 0x436F6C6C61746572616C207472616E73666572206661696C6564000000000000 PUSH1 0x44 DUP3 ADD MSTORE PUSH1 0x64 ADD PUSH2 0x9A9 JUMP JUMPDEST PUSH1 0x40 MLOAD DUP2 DUP2 MSTORE CALLER SWAP1 PUSH32 0xD7243F6F8212D5188FD054141CF6EA89CFC0D91FACB8C3AFE2F88A1358480142 SWAP1 PUSH1 0x20 ADD PUSH2 0x9E0 JUMP JUMPDEST PUSH2 0xCBC PUSH2 0x105E JUMP JUMPDEST CALLER PUSH1 0x0 SWAP1 DUP2 MSTORE PUSH1 0x1 PUSH1 0x20 MSTORE PUSH1 0x40 DUP2 KECCAK256 DUP1 SLOAD SWAP1 SWAP2 SUB PUSH2 0xCED JUMPI PUSH1 0x40 MLOAD PUSH4 0x6EC9BE11 PUSH1 0xE0 SHL DUP2 MSTORE PUSH1 0x4 ADD PUSH1 0x40 MLOAD DUP1 SWAP2 SUB SWAP1 REVERT JUMPDEST PUSH1 0x0 PUSH2 0xCF8 CALLER PUSH2 0x108F JUMP JUMPDEST POP SWAP1 POP PUSH1 0x0 PUSH32 0x0 PUSH1 0x1 PUSH1 0x1 PUSH1 0xA0 SHL SUB AND PUSH4 0x98D5FDCA PUSH1 0x40 MLOAD DUP2 PUSH4 0xFFFFFFFF AND PUSH1 0xE0 SHL DUP2 MSTORE PUSH1 0x4 ADD PUSH1 0x20 PUSH1 0x40 MLOAD DUP1 DUP4 SUB DUP2 DUP7 GAS STATICCALL ISZERO DUP1 ISZERO PUSH2 0xD5B JUMPI RETURNDATASIZE PUSH1 0x0 DUP1 RETURNDATACOPY RETURNDATASIZE PUSH1 0x0 REVERT JUMPDEST POP POP POP POP PUSH1 0x40 MLOAD RETURNDATASIZE PUSH1 0x1F NOT PUSH1 0x1F DUP3 ADD AND DUP3 ADD DUP1 PUSH1 0x40 MSTORE POP DUP2 ADD SWAP1 PUSH2 0xD7F SWAP2 SWAP1 PUSH2 0x134C JUMP JUMPDEST SWAP1 POP PUSH1 0x0 PUSH8 0xDE0B6B3A7640000 DUP3 DUP6 PUSH1 0x0 ADD SLOAD PUSH2 0xD9C SWAP2 SWAP1 PUSH2 0x12F2 JUMP JUMPDEST PUSH2 0xDA6 SWAP2 SWAP1 PUSH2 0x1338 JUMP JUMPDEST SWAP1 POP PUSH1 0x0 PUSH2 0x2710 PUSH2 0xDB8 PUSH1 0xA DUP5 PUSH2 0x12F2 JUMP JUMPDEST PUSH2 0xDC2 SWAP2 SWAP1 PUSH2 0x1338 JUMP JUMPDEST SWAP1 POP PUSH1 0x0 PUSH2 0xDD0 DUP3 DUP7 PUSH2 0x1395 JUMP JUMPDEST SWAP1 POP PUSH1 0x0 DUP2 DUP8 PUSH1 0x1 ADD SLOAD PUSH2 0xDE4 SWAP2 SWAP1 PUSH2 0x13BC JUMP JUMPDEST SWAP1 POP PUSH1 0x0 DUP3 SGT ISZERO PUSH2 0xE70 JUMPI PUSH1 0x40 MLOAD PUSH4 0x40C10F19 PUSH1 0xE0 SHL DUP2 MSTORE ADDRESS PUSH1 0x4 DUP3 ADD MSTORE PUSH1 0x24 DUP2 ADD DUP4 SWAP1 MSTORE PUSH32 0x0 PUSH1 0x1 PUSH1 0x1 PUSH1 0xA0 SHL SUB AND SWAP1 PUSH4 0x40C10F19 SWAP1 PUSH1 0x44 ADD PUSH1 0x0 PUSH1 0x40 MLOAD DUP1 DUP4 SUB DUP2 PUSH1 0x0 DUP8 DUP1 EXTCODESIZE ISZERO DUP1 ISZERO PUSH2 0xE57 JUMPI PUSH1 0x0 DUP1 REVERT JUMPDEST POP GAS CALL ISZERO DUP1 ISZERO PUSH2 0xE6B JUMPI RETURNDATASIZE PUSH1 0x0 DUP1 RETURNDATACOPY RETURNDATASIZE PUSH1 0x0 REVERT JUMPDEST POP POP POP POP JUMPDEST PUSH1 0x0 DUP2 SGT ISZERO PUSH2 0xE9E JUMPI CALLER PUSH1 0x0 SWAP1 DUP2 MSTORE PUSH1 0x2 PUSH1 0x20 MSTORE PUSH1 0x40 DUP2 KECCAK256 DUP1 SLOAD DUP4 SWAP3 SWAP1 PUSH2 0xE98 SWAP1 DUP5 SWAP1 PUSH2 0x1382 JUMP JUMPDEST SWAP1 SWAP2 SSTORE POP POP JUMPDEST PUSH1 0x40 DUP1 MLOAD DUP8 DUP2 MSTORE PUSH1 0x20 DUP2 ADD DUP6 SWAP1 MSTORE CALLER SWAP2 PUSH32 0xAC92DCEA6A7C5A91F4C12A9323E9BCA94D65AD5EF56B9450DF4393D8E5996ED9 SWAP2 ADD PUSH1 0x40 MLOAD DUP1 SWAP2 SUB SWAP1 LOG2 POP POP CALLER PUSH1 0x0 SWAP1 DUP2 MSTORE PUSH1 0x1 PUSH1 0x20 DUP2 SWAP1 MSTORE PUSH1 0x40 DUP3 KECCAK256 DUP3 DUP2 SSTORE SWAP1 DUP2 ADD DUP3 SWAP1 SSTORE PUSH1 0x2 DUP2 ADD SWAP2 SWAP1 SWAP2 SSTORE PUSH1 0x3 ADD DUP1 SLOAD PUSH1 0xFF NOT AND SWAP1 SSTORE POP PUSH2 0xF17 SWAP4 POP PUSH2 0x1088 SWAP3 POP POP POP JUMP JUMPDEST JUMP JUMPDEST PUSH2 0xF21 PUSH2 0x105E JUMP JUMPDEST DUP1 PUSH1 0x0 SUB PUSH2 0xF42 JUMPI PUSH1 0x40 MLOAD PUSH4 0x162908E3 PUSH1 0xE1 SHL DUP2 MSTORE PUSH1 0x4 ADD PUSH1 0x40 MLOAD DUP1 SWAP2 SUB SWAP1 REVERT JUMPDEST CALLER PUSH1 0x0 SWAP1 DUP2 MSTORE PUSH1 0x1 PUSH1 0x20 MSTORE PUSH1 0x40 DUP2 KECCAK256 DUP1 SLOAD SWAP1 SWAP2 SUB PUSH2 0xF73 JUMPI PUSH1 0x40 MLOAD PUSH4 0x6EC9BE11 PUSH1 0xE0 SHL DUP2 MSTORE PUSH1 0x4 ADD PUSH1 0x40 MLOAD DUP1 SWAP2 SUB SWAP1 REVERT JUMPDEST DUP1 PUSH1 0x1 ADD SLOAD DUP3 GT ISZERO PUSH2 0xF98 JUMPI PUSH1 0x40 MLOAD PUSH4 0x162908E3 PUSH1 0xE1 SHL DUP2 MSTORE PUSH1 0x4 ADD PUSH1 0x40 MLOAD DUP1 SWAP2 SUB SWAP1 REVERT JUMPDEST DUP2 DUP2 PUSH1 0x1 ADD PUSH1 0x0 DUP3 DUP3 SLOAD PUSH2 0xFAC SWAP2 SWAP1 PUSH2 0x130F JUMP JUMPDEST SWAP1 SWAP2 SSTORE POP PUSH1 0x0 SWAP1 POP PUSH2 0xFBD CALLER PUSH2 0x108F JUMP JUMPDEST SWAP2 POP POP DUP1 PUSH2 0xFF9 JUMPI DUP3 DUP3 PUSH1 0x1 ADD PUSH1 0x0 DUP3 DUP3 SLOAD PUSH2 0xFD9 SWAP2 SWAP1 PUSH2 0x1382 JUMP JUMPDEST SWAP3 POP POP DUP2 SWAP1 SSTORE POP PUSH1 0x40 MLOAD PUSH4 0x4C568085 PUSH1 0xE1 SHL DUP2 MSTORE PUSH1 0x4 ADD PUSH1 0x40 MLOAD DUP1 SWAP2 SUB SWAP1 REVERT JUMPDEST CALLER PUSH1 0x0 SWAP1 DUP2 MSTORE PUSH1 0x2 PUSH1 0x20 MSTORE PUSH1 0x40 DUP2 KECCAK256 DUP1 SLOAD DUP6 SWAP3 SWAP1 PUSH2 0x1018 SWAP1 DUP5 SWAP1 PUSH2 0x1382 JUMP JUMPDEST SWAP1 SWAP2 SSTORE POP POP PUSH1 0x40 MLOAD DUP4 DUP2 MSTORE CALLER SWAP1 PUSH32 0xA281FA1B5FAA81F054D92876A8BCAD5FC8225FF9B049511D9A05D4D5D625BB88 SWAP1 PUSH1 0x20 ADD PUSH1 0x40 MLOAD DUP1 SWAP2 SUB SWAP1 LOG2 POP POP PUSH2 0x841 PUSH1 0x1 PUSH1 0x0 SSTORE JUMP JUMPDEST PUSH1 0x2 PUSH1 0x0 SLOAD SUB PUSH2 0x1081 JUMPI PUSH1 0x40 MLOAD PUSH4 0x3EE5AEB5 PUSH1 0xE0 SHL DUP2 MSTORE PUSH1 0x4 ADD PUSH1 0x40 MLOAD DUP1 SWAP2 SUB SWAP1 REVERT JUMPDEST PUSH1 0x2 PUSH1 0x0 SSTORE JUMP JUMPDEST PUSH1 0x1 PUSH1 0x0 SSTORE JUMP JUMPDEST PUSH1 0x1 PUSH1 0x1 PUSH1 0xA0 SHL SUB DUP2 AND PUSH1 0x0 SWAP1 DUP2 MSTORE PUSH1 0x1 PUSH1 0x20 DUP2 DUP2 MSTORE PUSH1 0x40 DUP1 DUP5 KECCAK256 DUP2 MLOAD PUSH1 0x80 DUP2 ADD DUP4 MSTORE DUP2 SLOAD DUP1 DUP3 MSTORE SWAP5 DUP3 ADD SLOAD SWAP4 DUP2 ADD SWAP4 SWAP1 SWAP4 MSTORE PUSH1 0x2 DUP2 ADD SLOAD SWAP2 DUP4 ADD SWAP2 SWAP1 SWAP2 MSTORE PUSH1 0x3 ADD SLOAD PUSH1 0xFF AND ISZERO ISZERO PUSH1 0x60 DUP3 ADD MSTORE DUP3 SWAP2 DUP3 SUB PUSH2 0x10F1 JUMPI POP PUSH1 0x0 SWAP4 PUSH1 0x1 SWAP4 POP SWAP2 POP POP JUMP JUMPDEST PUSH1 0x0 PUSH32 0x0 PUSH1 0x1 PUSH1 0x1 PUSH1 0xA0 SHL SUB AND PUSH4 0x98D5FDCA PUSH1 0x40 MLOAD DUP2 PUSH4 0xFFFFFFFF AND PUSH1 0xE0 SHL DUP2 MSTORE PUSH1 0x4 ADD PUSH1 0x20 PUSH1 0x40 MLOAD DUP1 DUP4 SUB DUP2 DUP7 GAS STATICCALL ISZERO DUP1 ISZERO PUSH2 0x1151 JUMPI RETURNDATASIZE PUSH1 0x0 DUP1 RETURNDATACOPY RETURNDATASIZE PUSH1 0x0 REVERT JUMPDEST POP POP POP POP PUSH1 0x40 MLOAD RETURNDATASIZE PUSH1 0x1F NOT PUSH1 0x1F DUP3 ADD AND DUP3 ADD DUP1 PUSH1 0x40 MSTORE POP DUP2 ADD SWAP1 PUSH2 0x1175 SWAP2 SWAP1 PUSH2 0x134C JUMP JUMPDEST PUSH1 0x40 DUP4 ADD MLOAD PUSH1 0x60 DUP5 ADD MLOAD SWAP2 SWAP3 POP SWAP1 ISZERO PUSH2 0x11B9 JUMPI DUP3 MLOAD PUSH8 0xDE0B6B3A7640000 SWAP1 PUSH2 0x119E DUP4 DUP6 PUSH2 0x1395 JUMP JUMPDEST PUSH2 0x11A8 SWAP2 SWAP1 PUSH2 0x13E4 JUMP JUMPDEST PUSH2 0x11B2 SWAP2 SWAP1 PUSH2 0x1414 JUMP JUMPDEST SWAP5 POP PUSH2 0x11E6 JUMP JUMPDEST DUP3 MLOAD PUSH8 0xDE0B6B3A7640000 SWAP1 PUSH2 0x11CF DUP5 DUP5 PUSH2 0x1395 JUMP JUMPDEST PUSH2 0x11D9 SWAP2 SWAP1 PUSH2 0x13E4 JUMP JUMPDEST PUSH2 0x11E3 SWAP2 SWAP1 PUSH2 0x1414 JUMP JUMPDEST SWAP5 POP JUMPDEST PUSH1 0x0 DUP6 DUP5 PUSH1 0x20 ADD MLOAD PUSH2 0x11F8 SWAP2 SWAP1 PUSH2 0x13BC JUMP JUMPDEST SWAP1 POP PUSH1 0x0 PUSH8 0xDE0B6B3A7640000 DUP5 DUP7 PUSH1 0x0 ADD MLOAD PUSH2 0x1215 SWAP2 SWAP1 PUSH2 0x12F2 JUMP JUMPDEST PUSH2 0x121F SWAP2 SWAP1 PUSH2 0x1338 JUMP JUMPDEST SWAP1 POP PUSH1 0x0 PUSH2 0x2710 PUSH2 0x1232 PUSH2 0x271 DUP5 PUSH2 0x12F2 JUMP JUMPDEST PUSH2 0x123C SWAP2 SWAP1 PUSH2 0x1338 JUMP JUMPDEST SWAP8 SWAP10 SWAP8 SWAP1 SWAP3 SGT SWAP8 POP POP POP POP POP POP POP JUMP JUMPDEST DUP1 ISZERO ISZERO DUP2 EQ PUSH2 0x841 JUMPI PUSH1 0x0 DUP1 REVERT JUMPDEST PUSH1 0x0 DUP1 PUSH1 0x0 PUSH1 0x60 DUP5 DUP7 SUB SLT ISZERO PUSH2 0x126F JUMPI PUSH1 0x0 DUP1 REVERT JUMPDEST DUP4 CALLDATALOAD SWAP3 POP PUSH1 0x20 DUP5 ADD CALLDATALOAD SWAP2 POP PUSH1 0x40 DUP5 ADD CALLDATALOAD PUSH2 0x1288 DUP2 PUSH2 0x124C JUMP JUMPDEST DUP1 SWAP2 POP POP SWAP3 POP SWAP3 POP SWAP3 JUMP JUMPDEST PUSH1 0x0 PUSH1 0x20 DUP3 DUP5 SUB SLT ISZERO PUSH2 0x12A5 JUMPI PUSH1 0x0 DUP1 REVERT JUMPDEST DUP2 CALLDATALOAD PUSH1 0x1 PUSH1 0x1 PUSH1 0xA0 SHL SUB DUP2 AND DUP2 EQ PUSH2 0x12BC JUMPI PUSH1 0x0 DUP1 REVERT JUMPDEST SWAP4 SWAP3 POP POP POP JUMP JUMPDEST PUSH1 0x0 PUSH1 0x20 DUP3 DUP5 SUB SLT ISZERO PUSH2 0x12D5 JUMPI PUSH1 0x0 DUP1 REVERT JUMPDEST POP CALLDATALOAD SWAP2 SWAP1 POP JUMP JUMPDEST PUSH4 0x4E487B71 PUSH1 0xE0 SHL PUSH1 0x0 MSTORE PUSH1 0x11 PUSH1 0x4 MSTORE PUSH1 0x24 PUSH1 0x0 REVERT JUMPDEST DUP1 DUP3 MUL DUP2 ISZERO DUP3 DUP3 DIV DUP5 EQ OR PUSH2 0x1309 JUMPI PUSH2 0x1309 PUSH2 0x12DC JUMP JUMPDEST SWAP3 SWAP2 POP POP JUMP JUMPDEST DUP2 DUP2 SUB DUP2 DUP2 GT ISZERO PUSH2 0x1309 JUMPI PUSH2 0x1309 PUSH2 0x12DC JUMP JUMPDEST PUSH4 0x4E487B71 PUSH1 0xE0 SHL PUSH1 0x0 MSTORE PUSH1 0x12 PUSH1 0x4 MSTORE PUSH1 0x24 PUSH1 0x0 REVERT JUMPDEST PUSH1 0x0 DUP3 PUSH2 0x1347 JUMPI PUSH2 0x1347 PUSH2 0x1322 JUMP JUMPDEST POP DIV SWAP1 JUMP JUMPDEST PUSH1 0x0 PUSH1 0x20 DUP3 DUP5 SUB SLT ISZERO PUSH2 0x135E JUMPI PUSH1 0x0 DUP1 REVERT JUMPDEST POP MLOAD SWAP2 SWAP1 POP JUMP JUMPDEST PUSH1 0x0 PUSH1 0x20 DUP3 DUP5 SUB SLT ISZERO PUSH2 0x1377 JUMPI PUSH1 0x0 DUP1 REVERT JUMPDEST DUP2 MLOAD PUSH2 0x12BC DUP2 PUSH2 0x124C JUMP JUMPDEST DUP1 DUP3 ADD DUP1 DUP3 GT ISZERO PUSH2 0x1309 JUMPI PUSH2 0x1309 PUSH2 0x12DC JUMP JUMPDEST DUP2 DUP2 SUB PUSH1 0x0 DUP4 SLT DUP1 ISZERO DUP4 DUP4 SGT AND DUP4 DUP4 SLT DUP3 AND OR ISZERO PUSH2 0x13B5 JUMPI PUSH2 0x13B5 PUSH2 0x12DC JUMP JUMPDEST POP SWAP3 SWAP2 POP POP JUMP JUMPDEST DUP1 DUP3 ADD DUP3 DUP2 SLT PUSH1 0x0 DUP4 SLT DUP1 ISZERO DUP3 AND DUP3 ISZERO DUP3 AND OR ISZERO PUSH2 0x13DC JUMPI PUSH2 0x13DC PUSH2 0x12DC JUMP JUMPDEST POP POP SWAP3 SWAP2 POP POP JUMP JUMPDEST DUP1 DUP3 MUL PUSH1 0x0 DUP3 SLT PUSH1 0x1 PUSH1 0xFF SHL DUP5 EQ AND ISZERO PUSH2 0x1400 JUMPI PUSH2 0x1400 PUSH2 0x12DC JUMP JUMPDEST DUP2 DUP2 SDIV DUP4 EQ DUP3 ISZERO OR PUSH2 0x1309 JUMPI PUSH2 0x1309 PUSH2 0x12DC JUMP JUMPDEST PUSH1 0x0 DUP3 PUSH2 0x1423 JUMPI PUSH2 0x1423 PUSH2 0x1322 JUMP JUMPDEST PUSH1 0x1 PUSH1 0xFF SHL DUP3 EQ PUSH1 0x0 NOT DUP5 EQ AND ISZERO PUSH2 0x143D JUMPI PUSH2 0x143D PUSH2 0x12DC JUMP JUMPDEST POP SDIV SWAP1 JUMP INVALID LOG2 PUSH5 0x6970667358 0x22 SLT KECCAK256 0xD9 PUSH29 0xEF8BBCCB9BBCA96531B98DC9BDD58C93E1E7D7CE58A5403C33ABCD8DC0 LOG0 PUSH5 0x736F6C6343 STOP ADDMOD SHR STOP CALLER "
        },
        "gasEstimates": {
          "creation": {
            "codeDepositCost": "1048000",
            "executionCost": "infinite",
            "totalCost": "infinite"
          },
          "external": {
            "BPS_DIVISOR()": "230",
            "LEVERAGE_PRECISION()": "251",
            "LIQUIDATION_FEE_BPS()": "251",
            "MAINTENANCE_MARGIN_RATIO_BPS()": "274",
            "MAX_LEVERAGE()": "395",
            "MIN_LEVERAGE()": "329",
            "PRICE_PRECISION()": "273",
            "TAKER_FEE_BPS()": "252",
            "addMargin(uint256)": "infinite",
            "calculatePnl(address)": "infinite",
            "closePosition()": "infinite",
            "collateralToken()": "infinite",
            "depositCollateral(uint256)": "infinite",
            "freeCollateral(address)": "2585",
            "liquidate(address)": "infinite",
            "openPosition(uint256,uint256,bool)": "infinite",
            "oracle()": "infinite",
            "positions(address)": "8993",
            "removeMargin(uint256)": "infinite",
            "withdrawCollateral(uint256)": "infinite"
          },
          "internal": {
            "_calculatePnl(address)": "infinite"
          }
        },
        "methodIdentifiers": {
          "BPS_DIVISOR()": "191fe1ed",
          "LEVERAGE_PRECISION()": "8da793b2",
          "LIQUIDATION_FEE_BPS()": "518e8dfc",
          "MAINTENANCE_MARGIN_RATIO_BPS()": "24aee841",
          "MAX_LEVERAGE()": "9b45ec97",
          "MIN_LEVERAGE()": "34c1557d",
          "PRICE_PRECISION()": "95082d25",
          "TAKER_FEE_BPS()": "2057bfa0",
          "addMargin(uint256)": "a43be948",
          "calculatePnl(address)": "81d8b829",
          "closePosition()": "c393d0e3",
          "collateralToken()": "b2016bd4",
          "depositCollateral(uint256)": "bad4a01f",
          "freeCollateral(address)": "29fd9747",
          "liquidate(address)": "2f865568",
          "openPosition(uint256,uint256,bool)": "1558c966",
          "oracle()": "7dc0d1d0",
          "positions(address)": "55f57510",
          "removeMargin(uint256)": "f11f854f",
          "withdrawCollateral(uint256)": "6112fe2e"
        }
      },
      "storageLayout": {
        "storage": [
          {
            "astId": 1175,
            "contract": "contracts/perp-dex-minimal/ClearingHouse.sol:ClearingHouse",
            "label": "_status",
            "offset": 0,
            "slot": "0",
            "type": "t_uint256"
          },
          {
            "astId": 1430,
            "contract": "contracts/perp-dex-minimal/ClearingHouse.sol:ClearingHouse",
            "label": "positions",
            "offset": 0,
            "slot": "1",
            "type": "t_mapping(t_address,t_struct(Position)1419_storage)"
          },
          {
            "astId": 1434,
            "contract": "contracts/perp-dex-minimal/ClearingHouse.sol:ClearingHouse",
            "label": "freeCollateral",
            "offset": 0,
            "slot": "2",
            "type": "t_mapping(t_address,t_uint256)"
          }
        ],
        "types": {
          "t_address": {
            "encoding": "inplace",
            "label": "address",
            "numberOfBytes": "20"
          },
          "t_bool": {
            "encoding": "inplace",
            "label": "bool",
            "numberOfBytes": "1"
          },
          "t_mapping(t_address,t_struct(Position)1419_storage)": {
            "encoding": "mapping",
            "key": "t_address",
            "label": "mapping(address => struct ClearingHouse.Position)",
            "numberOfBytes": "32",
            "value": "t_struct(Position)1419_storage"
          },
          "t_mapping(t_address,t_uint256)": {
            "encoding": "mapping",
            "key": "t_address",
            "label": "mapping(address => uint256)",
            "numberOfBytes": "32",
            "value": "t_uint256"
          },
          "t_struct(Position)1419_storage": {
            "encoding": "inplace",
            "label": "struct ClearingHouse.Position",
            "members": [
              {
                "astId": 1412,
                "contract": "contracts/perp-dex-minimal/ClearingHouse.sol:ClearingHouse",
                "label": "size",
                "offset": 0,
                "slot": "0",
                "type": "t_uint256"
              },
              {
                "astId": 1414,
                "contract": "contracts/perp-dex-minimal/ClearingHouse.sol:ClearingHouse",
                "label": "margin",
                "offset": 0,
                "slot": "1",
                "type": "t_uint256"
              },
              {
                "astId": 1416,
                "contract": "contracts/perp-dex-minimal/ClearingHouse.sol:ClearingHouse",
                "label": "entryPrice",
                "offset": 0,
                "slot": "2",
                "type": "t_uint256"
              },
              {
                "astId": 1418,
                "contract": "contracts/perp-dex-minimal/ClearingHouse.sol:ClearingHouse",
                "label": "isLong",
                "offset": 0,
                "slot": "3",
                "type": "t_bool"
              }
            ],
            "numberOfBytes": "128"
          },
          "t_uint256": {
            "encoding": "inplace",
            "label": "uint256",
            "numberOfBytes": "32"
          }
        }
      },
      "userdoc": {
        "kind": "user",
        "methods": {},
        "notice": "Manages perpetual futures positions, collateral, and liquidations using an oracle-based price feed and a direct mint/settlement model.",
        "version": 1
      }
    }
  }
}