{
  "_format": "hh-sol-artifact-1",
  "contractName": "ClearingHouse",
  "sourceName": "contracts/perp-dex-minimal/ClearingHouse.sol",
  "abi": [
    {
      "inputs": [
        {
          "internalType": "address",
          "name": "_oracleAddress",
          "type": "address"
        },
        {
          "internalType": "address",
          "name": "_collateralTokenAddress",
          "type": "address"
        }
      ],
      "stateMutability": "nonpayable",
      "type": "constructor"
    },
    {
      "inputs": [],
      "name": "CallerNotOwnerOfPosition",
      "type": "error"
    },
    {
      "inputs": [],
      "name": "InsufficientFreeCollateral",
      "type": "error"
    },
    {
      "inputs": [],
      "name": "InvalidAmount",
      "type": "error"
    },
    {
      "inputs": [],
      "name": "InvalidLeverage",
      "type": "error"
    },
    {
      "inputs": [],
      "name": "PositionExists",
      "type": "error"
    },
    {
      "inputs": [],
      "name": "PositionNotFound",
      "type": "error"
    },
    {
      "inputs": [],
      "name": "PositionNotLiquidatable",
      "type": "error"
    },
    {
      "inputs": [],
      "name": "PositionUndercollateralized",
      "type": "error"
    },
    {
      "inputs": [],
      "name": "ReentrancyGuardReentrantCall",
      "type": "error"
    },
    {
      "inputs": [],
      "name": "ZeroAddress",
      "type": "error"
    },
    {
      "anonymous": false,
      "inputs": [
        {
          "indexed": true,
          "internalType": "address",
          "name": "user",
          "type": "address"
        },
        {
          "indexed": false,
          "internalType": "uint256",
          "name": "amount",
          "type": "uint256"
        }
      ],
      "name": "CollateralDeposited",
      "type": "event"
    },
    {
      "anonymous": false,
      "inputs": [
        {
          "indexed": true,
          "internalType": "address",
          "name": "user",
          "type": "address"
        },
        {
          "indexed": false,
          "internalType": "uint256",
          "name": "amount",
          "type": "uint256"
        }
      ],
      "name": "CollateralWithdrawn",
      "type": "event"
    },
    {
      "anonymous": false,
      "inputs": [
        {
          "indexed": true,
          "internalType": "address",
          "name": "user",
          "type": "address"
        },
        {
          "indexed": false,
          "internalType": "uint256",
          "name": "amount",
          "type": "uint256"
        }
      ],
      "name": "MarginAdded",
      "type": "event"
    },
    {
      "anonymous": false,
      "inputs": [
        {
          "indexed": true,
          "internalType": "address",
          "name": "user",
          "type": "address"
        },
        {
          "indexed": false,
          "internalType": "uint256",
          "name": "amount",
          "type": "uint256"
        }
      ],
      "name": "MarginRemoved",
      "type": "event"
    },
    {
      "anonymous": false,
      "inputs": [
        {
          "indexed": true,
          "internalType": "address",
          "name": "user",
          "type": "address"
        },
        {
          "indexed": false,
          "internalType": "int256",
          "name": "pnl",
          "type": "int256"
        },
        {
          "indexed": false,
          "internalType": "uint256",
          "name": "fee",
          "type": "uint256"
        }
      ],
      "name": "PositionClosed",
      "type": "event"
    },
    {
      "anonymous": false,
      "inputs": [
        {
          "indexed": true,
          "internalType": "address",
          "name": "user",
          "type": "address"
        },
        {
          "indexed": true,
          "internalType": "address",
          "name": "liquidator",
          "type": "address"
        },
        {
          "indexed": false,
          "internalType": "uint256",
          "name": "liquidationFee",
          "type": "uint256"
        }
      ],
      "name": "PositionLiquidated",
      "type": "event"
    },
    {
      "anonymous": false,
      "inputs": [
        {
          "indexed": true,
          "internalType": "address",
          "name": "user",
          "type": "address"
        },
        {
          "indexed": false,
          "internalType": "uint256",
          "name": "size",
          "type": "uint256"
        },
        {
          "indexed": false,
          "internalType": "uint256",
          "name": "margin",
          "type": "uint256"
        },
        {
          "indexed": false,
          "internalType": "bool",
          "name": "isLong",
          "type": "bool"
        },
        {
          "indexed": false,
          "internalType": "uint256",
          "name": "entryPrice",
          "type": "uint256"
        }
      ],
      "name": "PositionOpened",
      "type": "event"
    },
    {
      "inputs": [],
      "name": "BPS_DIVISOR",
      "outputs": [
        {
          "internalType": "uint256",
          "name": "",
          "type": "uint256"
        }
      ],
      "stateMutability": "view",
      "type": "function"
    },
    {
      "inputs": [],
      "name": "LEVERAGE_PRECISION",
      "outputs": [
        {
          "internalType": "uint256",
          "name": "",
          "type": "uint256"
        }
      ],
      "stateMutability": "view",
      "type": "function"
    },
    {
      "inputs": [],
      "name": "LIQUIDATION_FEE_BPS",
      "outputs": [
        {
          "internalType": "uint256",
          "name": "",
          "type": "uint256"
        }
      ],
      "stateMutability": "view",
      "type": "function"
    },
    {
      "inputs": [],
      "name": "MAINTENANCE_MARGIN_RATIO_BPS",
      "outputs": [
        {
          "internalType": "uint256",
          "name": "",
          "type": "uint256"
        }
      ],
      "stateMutability": "view",
      "type": "function"
    },
    {
      "inputs": [],
      "name": "MAX_LEVERAGE",
      "outputs": [
        {
          "internalType": "uint256",
          "name": "",
          "type": "uint256"
        }
      ],
      "stateMutability": "view",
      "type": "function"
    },
    {
      "inputs": [],
      "name": "MIN_LEVERAGE",
      "outputs": [
        {
          "internalType": "uint256",
          "name": "",
          "type": "uint256"
        }
      ],
      "stateMutability": "view",
      "type": "function"
    },
    {
      "inputs": [],
      "name": "PRICE_PRECISION",
      "outputs": [
        {
          "internalType": "uint256",
          "name": "",
          "type": "uint256"
        }
      ],
      "stateMutability": "view",
      "type": "function"
    },
    {
      "inputs": [],
      "name": "TAKER_FEE_BPS",
      "outputs": [
        {
          "internalType": "uint256",
          "name": "",
          "type": "uint256"
        }
      ],
      "stateMutability": "view",
      "type": "function"
    },
    {
      "inputs": [
        {
          "internalType": "uint256",
          "name": "_amount",
          "type": "uint256"
        }
      ],
      "name": "addMargin",
      "outputs": [],
      "stateMutability": "nonpayable",
      "type": "function"
    },
    {
      "inputs": [
        {
          "internalType": "address",
          "name": "_user",
          "type": "address"
        }
      ],
      "name": "calculatePnl",
      "outputs": [
        {
          "internalType": "int256",
          "name": "",
          "type": "int256"
        },
        {
          "internalType": "bool",
          "name": "",
          "type": "bool"
        }
      ],
      "stateMutability": "view",
      "type": "function"
    },
    {
      "inputs": [],
      "name": "closePosition",
      "outputs": [],
      "stateMutability": "nonpayable",
      "type": "function"
    },
    {
      "inputs": [],
      "name": "collateralToken",
      "outputs": [
        {
          "internalType": "contract MockERC20",
          "name": "",
          "type": "address"
        }
      ],
      "stateMutability": "view",
      "type": "function"
    },
    {
      "inputs": [
        {
          "internalType": "uint256",
          "name": "_amount",
          "type": "uint256"
        }
      ],
      "name": "depositCollateral",
      "outputs": [],
      "stateMutability": "nonpayable",
      "type": "function"
    },
    {
      "inputs": [
        {
          "internalType": "address",
          "name": "",
          "type": "address"
        }
      ],
      "name": "freeCollateral",
      "outputs": [
        {
          "internalType": "uint256",
          "name": "",
          "type": "uint256"
        }
      ],
      "stateMutability": "view",
      "type": "function"
    },
    {
      "inputs": [
        {
          "internalType": "address",
          "name": "_user",
          "type": "address"
        }
      ],
      "name": "liquidate",
      "outputs": [],
      "stateMutability": "nonpayable",
      "type": "function"
    },
    {
      "inputs": [
        {
          "internalType": "uint256",
          "name": "_margin",
          "type": "uint256"
        },
        {
          "internalType": "uint256",
          "name": "_leverage",
          "type": "uint256"
        },
        {
          "internalType": "bool",
          "name": "_isLong",
          "type": "bool"
        }
      ],
      "name": "openPosition",
      "outputs": [],
      "stateMutability": "nonpayable",
      "type": "function"
    },
    {
      "inputs": [],
      "name": "oracle",
      "outputs": [
        {
          "internalType": "contract Oracle",
          "name": "",
          "type": "address"
        }
      ],
      "stateMutability": "view",
      "type": "function"
    },
    {
      "inputs": [
        {
          "internalType": "address",
          "name": "",
          "type": "address"
        }
      ],
      "name": "positions",
      "outputs": [
        {
          "internalType": "uint256",
          "name": "size",
          "type": "uint256"
        },
        {
          "internalType": "uint256",
          "name": "margin",
          "type": "uint256"
        },
        {
          "internalType": "uint256",
          "name": "entryPrice",
          "type": "uint256"
        },
        {
          "internalType": "bool",
          "name": "isLong",
          "type": "bool"
        }
      ],
      "stateMutability": "view",
      "type": "function"
    },
    {
      "inputs": [
        {
          "internalType": "uint256",
          "name": "_amount",
          "type": "uint256"
        }
      ],
      "name": "removeMargin",
      "outputs": [],
      "stateMutability": "nonpayable",
      "type": "function"
    },
    {
      "inputs": [
        {
          "internalType": "uint256",
          "name": "_amount",
          "type": "uint256"
        }
      ],
      "name": "withdrawCollateral",
      "outputs": [],
      "stateMutability": "nonpayable",
      "type": "function"
    }
  ],
  "bytecode": "0x60c060405234801561001057600080fd5b506040516115aa3803806115aa83398101604081905261002f916100a2565b60016000556001600160a01b038216158061005157506001600160a01b038116155b1561006f5760405163d92e233d60e01b815260040160405180910390fd5b6001600160a01b039182166080521660a0526100d5565b80516001600160a01b038116811461009d57600080fd5b919050565b600080604083850312156100b557600080fd5b6100be83610086565b91506100cc60208401610086565b90509250929050565b60805160a051611478610132600039600081816102c30152818161075e015281816108ec01528181610bc10152610e0b01526000818161022a015281816104670152818161066901528181610cff01526110f501526114786000f3fe608060405234801561001057600080fd5b506004361061012c5760003560e01c80637dc0d1d0116100ad578063a43be94811610071578063a43be948146102ab578063b2016bd4146102be578063bad4a01f146102e5578063c393d0e3146102f8578063f11f854f1461030057600080fd5b80637dc0d1d01461022557806381d8b829146102645780638da793b21461028c57806395082d25146102945780639b45ec97146102a357600080fd5b80632f865568116100f45780632f8655681461019357806334c1557d146101a6578063518e8dfc146101ae57806355f57510146101b75780636112fe2e1461021257600080fd5b80631558c96614610131578063191fe1ed146101465780632057bfa01461016257806324aee8411461016a57806329fd974714610173575b600080fd5b61014461013f36600461125a565b610313565b005b61014f61271081565b6040519081526020015b60405180910390f35b61014f600a81565b61014f61027181565b61014f610181366004611293565b60026020526000908152604090205481565b6101446101a1366004611293565b6105c4565b61014f610844565b61014f6101f481565b6101f06101c5366004611293565b6001602081905260009182526040909120805491810154600282015460039092015490919060ff1684565b6040805194855260208501939093529183015215156060820152608001610159565b6101446102203660046112c3565b610853565b61024c7f000000000000000000000000000000000000000000000000000000000000000081565b6040516001600160a01b039091168152602001610159565b610277610272366004611293565b6109f2565b60408051928352901515602083015201610159565b61014f606481565b61014f670de0b6b3a764000081565b61014f610a3e565b6101446102b93660046112c3565b610a49565b61024c7f000000000000000000000000000000000000000000000000000000000000000081565b6101446102f33660046112c3565b610b52565b610144610cb4565b61014461030e3660046112c3565b610f19565b61031b61105e565b33600090815260016020526040902054156103495760405163384e583f60e11b815260040160405180910390fd5b8260000361036a5760405163162908e360e11b815260040160405180910390fd5b610376606460016112f2565b82108061038c57506103896064806112f2565b82115b156103aa57604051633fe89cb960e11b815260040160405180910390fd5b336000908152600260205260409020548311156103da576040516319a3029160e01b815260040160405180910390fd5b33600090815260026020526040812080548592906103f990849061130f565b9091555060009050606461040d84866112f2565b6104179190611338565b90506000612710610429600a846112f2565b6104339190611338565b9050848110610455576040516319a3029160e01b815260040160405180910390fd5b6000610461828761130f565b905060007f00000000000000000000000000000000000000000000000000000000000000006001600160a01b03166398d5fdca6040518163ffffffff1660e01b8152600401602060405180830381865afa1580156104c3573d6000803e3d6000fd5b505050506040513d601f19601f820116820180604052508101906104e7919061134c565b90506000816104fe670de0b6b3a7640000876112f2565b6105089190611338565b604080516080808201835283825260208083018881528385018881528c151560608087018281523360008181526001808952908b902099518a559551958901959095559251600288015591516003909601805460ff19169615159690961790955585518781529283018a905294820193909352928301869052929350917fcd994640f2c49b14feb3faffeeb78367dd4be7f01b02e885e5c905ef46a535af910160405180910390a250505050506105bf6001600055565b505050565b6105cc61105e565b6001600160a01b03811660009081526001602081815260408084208151608081018352815480825294820154938101939093526002810154918301919091526003015460ff1615156060820152910361063857604051636ec9be1160e01b815260040160405180910390fd5b60006106438361108f565b915050801561066557604051636415f95960e01b815260040160405180910390fd5b60007f00000000000000000000000000000000000000000000000000000000000000006001600160a01b03166398d5fdca6040518163ffffffff1660e01b8152600401602060405180830381865afa1580156106c5573d6000803e3d6000fd5b505050506040513d601f19601f820116820180604052508101906106e9919061134c565b90506000670de0b6b3a764000082856000015161070691906112f2565b6107109190611338565b905060006127106107236101f4846112f2565b61072d9190611338565b90508460200151811115610742575060208401515b6040516340c10f1960e01b8152336004820152602481018290527f00000000000000000000000000000000000000000000000000000000000000006001600160a01b0316906340c10f1990604401600060405180830381600087803b1580156107aa57600080fd5b505af11580156107be573d6000803e3d6000fd5b50506040518381523392506001600160a01b03891691507ff2f51441117ac1865376b3f32be7c7b7f01c5a67fbcf4e44f3ae8bacc03b5a909060200160405180910390a3505050506001600160a01b0382166000908152600160208190526040822082815580820183905560028101839055600301805460ff1916905590555050565b50565b610850606460016112f2565b81565b61085b61105e565b8060000361087c5760405163162908e360e11b815260040160405180910390fd5b336000908152600260205260409020548111156108ac576040516319a3029160e01b815260040160405180910390fd5b33600090815260026020526040812080548392906108cb90849061130f565b909155505060405163a9059cbb60e01b8152336004820152602481018290527f00000000000000000000000000000000000000000000000000000000000000006001600160a01b03169063a9059cbb906044016020604051808303816000875af115801561093d573d6000803e3d6000fd5b505050506040513d601f19601f820116820180604052508101906109619190611365565b6109b25760405162461bcd60e51b815260206004820152601a60248201527f436f6c6c61746572616c207472616e73666572206661696c656400000000000060448201526064015b60405180910390fd5b60405181815233907fc30fcfbcaac9e0deffa719714eaa82396ff506a0d0d0eebe170830177288715d906020015b60405180910390a26108416001600055565b6001600160a01b03811660009081526001602052604081205481908103610a2c57604051636ec9be1160e01b815260040160405180910390fd5b610a358361108f565b91509150915091565b6108506064806112f2565b610a5161105e565b80600003610a725760405163162908e360e11b815260040160405180910390fd5b3360009081526001602052604081208054909103610aa357604051636ec9be1160e01b815260040160405180910390fd5b33600090815260026020526040902054821115610ad3576040516319a3029160e01b815260040160405180910390fd5b3360009081526002602052604081208054849290610af290849061130f565b9250508190555081816001016000828254610b0d9190611382565b909155505060405182815233907f2f511207ce5ebcde9ee1624d6dfe240ca859263638fbd7a18417d9cdd56f9a099060200160405180910390a2506108416001600055565b610b5a61105e565b80600003610b7b5760405163162908e360e11b815260040160405180910390fd5b3360009081526002602052604081208054839290610b9a908490611382565b90915550506040516323b872dd60e01b8152336004820152306024820152604481018290527f00000000000000000000000000000000000000000000000000000000000000006001600160a01b0316906323b872dd906064016020604051808303816000875af1158015610c12573d6000803e3d6000fd5b505050506040513d601f19601f82011682018060405250810190610c369190611365565b610c825760405162461bcd60e51b815260206004820152601a60248201527f436f6c6c61746572616c207472616e73666572206661696c656400000000000060448201526064016109a9565b60405181815233907fd7243f6f8212d5188fd054141cf6ea89cfc0d91facb8c3afe2f88a1358480142906020016109e0565b610cbc61105e565b3360009081526001602052604081208054909103610ced57604051636ec9be1160e01b815260040160405180910390fd5b6000610cf83361108f565b50905060007f00000000000000000000000000000000000000000000000000000000000000006001600160a01b03166398d5fdca6040518163ffffffff1660e01b8152600401602060405180830381865afa158015610d5b573d6000803e3d6000fd5b505050506040513d601f19601f82011682018060405250810190610d7f919061134c565b90506000670de0b6b3a7640000828560000154610d9c91906112f2565b610da69190611338565b90506000612710610db8600a846112f2565b610dc29190611338565b90506000610dd08286611395565b90506000818760010154610de491906113bc565b90506000821315610e70576040516340c10f1960e01b8152306004820152602481018390527f00000000000000000000000000000000000000000000000000000000000000006001600160a01b0316906340c10f1990604401600060405180830381600087803b158015610e5757600080fd5b505af1158015610e6b573d6000803e3d6000fd5b505050505b6000811315610e9e573360009081526002602052604081208054839290610e98908490611382565b90915550505b604080518781526020810185905233917fac92dcea6a7c5a91f4c12a9323e9bca94d65ad5ef56b9450df4393d8e5996ed9910160405180910390a2505033600090815260016020819052604082208281559081018290556002810191909155600301805460ff1916905550610f17935061108892505050565b565b610f2161105e565b80600003610f425760405163162908e360e11b815260040160405180910390fd5b3360009081526001602052604081208054909103610f7357604051636ec9be1160e01b815260040160405180910390fd5b8060010154821115610f985760405163162908e360e11b815260040160405180910390fd5b81816001016000828254610fac919061130f565b9091555060009050610fbd3361108f565b91505080610ff95782826001016000828254610fd99190611382565b92505081905550604051634c56808560e11b815260040160405180910390fd5b3360009081526002602052604081208054859290611018908490611382565b909155505060405183815233907fa281fa1b5faa81f054d92876a8bcad5fc8225ff9b049511d9a05d4d5d625bb889060200160405180910390a250506108416001600055565b60026000540361108157604051633ee5aeb560e01b815260040160405180910390fd5b6002600055565b6001600055565b6001600160a01b03811660009081526001602081815260408084208151608081018352815480825294820154938101939093526002810154918301919091526003015460ff1615156060820152829182036110f1575060009360019350915050565b60007f00000000000000000000000000000000000000000000000000000000000000006001600160a01b03166398d5fdca6040518163ffffffff1660e01b8152600401602060405180830381865afa158015611151573d6000803e3d6000fd5b505050506040513d601f19601f82011682018060405250810190611175919061134c565b6040830151606084015191925090156111b9578251670de0b6b3a76400009061119e8385611395565b6111a891906113e4565b6111b29190611414565b94506111e6565b8251670de0b6b3a7640000906111cf8484611395565b6111d991906113e4565b6111e39190611414565b94505b60008584602001516111f891906113bc565b90506000670de0b6b3a764000084866000015161121591906112f2565b61121f9190611338565b90506000612710611232610271846112f2565b61123c9190611338565b9799979092139750505050505050565b801515811461084157600080fd5b60008060006060848603121561126f57600080fd5b833592506020840135915060408401356112888161124c565b809150509250925092565b6000602082840312156112a557600080fd5b81356001600160a01b03811681146112bc57600080fd5b9392505050565b6000602082840312156112d557600080fd5b5035919050565b634e487b7160e01b600052601160045260246000fd5b8082028115828204841417611309576113096112dc565b92915050565b81810381811115611309576113096112dc565b634e487b7160e01b600052601260045260246000fd5b60008261134757611347611322565b500490565b60006020828403121561135e57600080fd5b5051919050565b60006020828403121561137757600080fd5b81516112bc8161124c565b80820180821115611309576113096112dc565b81810360008312801583831316838312821617156113b5576113b56112dc565b5092915050565b80820182811260008312801582168215821617156113dc576113dc6112dc565b505092915050565b80820260008212600160ff1b84141615611400576114006112dc565b8181058314821517611309576113096112dc565b60008261142357611423611322565b600160ff1b82146000198414161561143d5761143d6112dc565b50059056fea2646970667358221220d97cef8bbccb9bbca96531b98dc9bdd58c93e1e7d7ce58a5403c33abcd8dc0a064736f6c634300081c0033",
  "linkReferences": {},
  "deployedLinkReferences": {}
}