{
  "_format": "hh-sol-artifact-1",
  "contractName": "PrivacyProxy",
  "sourceName": "contracts/darkpool/adaptors/PrivacyProxy.sol",
  "abi": [
    {
      "inputs": [
        {
          "internalType": "address",
          "name": "_clearingHouse",
          "type": "address"
        },
        {
          "internalType": "address",
          "name": "_tokenPool",
          "type": "address"
        }
      ],
      "stateMutability": "nonpayable",
      "type": "constructor"
    },
    {
      "inputs": [],
      "name": "ECDSAInvalidSignature",
      "type": "error"
    },
    {
      "inputs": [
        {
          "internalType": "uint256",
          "name": "length",
          "type": "uint256"
        }
      ],
      "name": "ECDSAInvalidSignatureLength",
      "type": "error"
    },
    {
      "inputs": [
        {
          "internalType": "bytes32",
          "name": "s",
          "type": "bytes32"
        }
      ],
      "name": "ECDSAInvalidSignatureS",
      "type": "error"
    },
    {
      "inputs": [],
      "name": "InsufficientProxyCollateral",
      "type": "error"
    },
    {
      "inputs": [],
      "name": "InvalidSignature",
      "type": "error"
    },
    {
      "inputs": [],
      "name": "NotPositionOwner",
      "type": "error"
    },
    {
      "inputs": [
        {
          "internalType": "address",
          "name": "token",
          "type": "address"
        }
      ],
      "name": "SafeERC20FailedOperation",
      "type": "error"
    },
    {
      "anonymous": false,
      "inputs": [
        {
          "indexed": true,
          "internalType": "bytes32",
          "name": "ownerPubKey",
          "type": "bytes32"
        },
        {
          "indexed": false,
          "internalType": "uint256",
          "name": "amount",
          "type": "uint256"
        },
        {
          "indexed": false,
          "internalType": "bool",
          "name": "fromDarkPool",
          "type": "bool"
        }
      ],
      "name": "CollateralDeposited",
      "type": "event"
    },
    {
      "anonymous": false,
      "inputs": [
        {
          "indexed": true,
          "internalType": "bytes32",
          "name": "ownerPubKey",
          "type": "bytes32"
        },
        {
          "indexed": false,
          "internalType": "bytes32",
          "name": "receiverHash",
          "type": "bytes32"
        },
        {
          "indexed": false,
          "internalType": "uint256",
          "name": "amount",
          "type": "uint256"
        }
      ],
      "name": "CollateralWithdrawn",
      "type": "event"
    },
    {
      "anonymous": false,
      "inputs": [
        {
          "indexed": true,
          "internalType": "bytes32",
          "name": "ownerPubKey",
          "type": "bytes32"
        },
        {
          "indexed": true,
          "internalType": "bytes32",
          "name": "positionId",
          "type": "bytes32"
        }
      ],
      "name": "PositionClosed",
      "type": "event"
    },
    {
      "anonymous": false,
      "inputs": [
        {
          "indexed": true,
          "internalType": "bytes32",
          "name": "ownerPubKey",
          "type": "bytes32"
        },
        {
          "indexed": true,
          "internalType": "bytes32",
          "name": "positionId",
          "type": "bytes32"
        },
        {
          "indexed": false,
          "internalType": "uint256",
          "name": "size",
          "type": "uint256"
        },
        {
          "indexed": false,
          "internalType": "uint256",
          "name": "margin",
          "type": "uint256"
        },
        {
          "indexed": false,
          "internalType": "bool",
          "name": "isLong",
          "type": "bool"
        },
        {
          "indexed": false,
          "internalType": "uint256",
          "name": "entryPrice",
          "type": "uint256"
        }
      ],
      "name": "PositionOpened",
      "type": "event"
    },
    {
      "inputs": [
        {
          "internalType": "bytes32",
          "name": "_positionId",
          "type": "bytes32"
        },
        {
          "internalType": "uint256",
          "name": "_amount",
          "type": "uint256"
        },
        {
          "internalType": "bytes",
          "name": "_signature",
          "type": "bytes"
        }
      ],
      "name": "addMargin",
      "outputs": [],
      "stateMutability": "nonpayable",
      "type": "function"
    },
    {
      "inputs": [],
      "name": "clearingHouse",
      "outputs": [
        {
          "internalType": "contract ClearingHouseV2",
          "name": "",
          "type": "address"
        }
      ],
      "stateMutability": "view",
      "type": "function"
    },
    {
      "inputs": [
        {
          "internalType": "bytes32",
          "name": "_positionId",
          "type": "bytes32"
        },
        {
          "internalType": "bytes",
          "name": "_signature",
          "type": "bytes"
        }
      ],
      "name": "closePosition",
      "outputs": [],
      "stateMutability": "nonpayable",
      "type": "function"
    },
    {
      "inputs": [],
      "name": "collateralToken",
      "outputs": [
        {
          "internalType": "contract IERC20",
          "name": "",
          "type": "address"
        }
      ],
      "stateMutability": "view",
      "type": "function"
    },
    {
      "inputs": [
        {
          "internalType": "bytes32",
          "name": "_ownerPubKey",
          "type": "bytes32"
        },
        {
          "components": [
            {
              "internalType": "bytes",
              "name": "honkProof",
              "type": "bytes"
            },
            {
              "internalType": "bytes32[]",
              "name": "publicInputs",
              "type": "bytes32[]"
            }
          ],
          "internalType": "struct ProofLib.WithdrawOrTransferParams",
          "name": "_params",
          "type": "tuple"
        }
      ],
      "name": "depositCollateralFromDarkPool",
      "outputs": [],
      "stateMutability": "nonpayable",
      "type": "function"
    },
    {
      "inputs": [
        {
          "internalType": "bytes32",
          "name": "_ownerPubKey",
          "type": "bytes32"
        },
        {
          "internalType": "uint256",
          "name": "_amount",
          "type": "uint256"
        }
      ],
      "name": "depositCollateralFromEOA",
      "outputs": [],
      "stateMutability": "nonpayable",
      "type": "function"
    },
    {
      "inputs": [
        {
          "internalType": "bytes32",
          "name": "_ownerPubKey",
          "type": "bytes32"
        },
        {
          "internalType": "bytes32",
          "name": "_positionId",
          "type": "bytes32"
        },
        {
          "internalType": "uint256",
          "name": "_margin",
          "type": "uint256"
        },
        {
          "internalType": "uint256",
          "name": "_leverage",
          "type": "uint256"
        },
        {
          "internalType": "bool",
          "name": "_isLong",
          "type": "bool"
        },
        {
          "internalType": "bytes",
          "name": "_signature",
          "type": "bytes"
        }
      ],
      "name": "openPosition",
      "outputs": [],
      "stateMutability": "nonpayable",
      "type": "function"
    },
    {
      "inputs": [
        {
          "internalType": "bytes32",
          "name": "",
          "type": "bytes32"
        }
      ],
      "name": "positionOwner",
      "outputs": [
        {
          "internalType": "bytes32",
          "name": "",
          "type": "bytes32"
        }
      ],
      "stateMutability": "view",
      "type": "function"
    },
    {
      "inputs": [
        {
          "internalType": "bytes32",
          "name": "_positionId",
          "type": "bytes32"
        },
        {
          "internalType": "uint256",
          "name": "_amount",
          "type": "uint256"
        },
        {
          "internalType": "bytes",
          "name": "_signature",
          "type": "bytes"
        }
      ],
      "name": "removeMargin",
      "outputs": [],
      "stateMutability": "nonpayable",
      "type": "function"
    },
    {
      "inputs": [],
      "name": "tokenPool",
      "outputs": [
        {
          "internalType": "contract TokenPool",
          "name": "",
          "type": "address"
        }
      ],
      "stateMutability": "view",
      "type": "function"
    },
    {
      "inputs": [
        {
          "internalType": "bytes32",
          "name": "",
          "type": "bytes32"
        }
      ],
      "name": "userFreeCollateral",
      "outputs": [
        {
          "internalType": "uint256",
          "name": "",
          "type": "uint256"
        }
      ],
      "stateMutability": "view",
      "type": "function"
    },
    {
      "inputs": [
        {
          "internalType": "bytes32",
          "name": "_ownerPubKey",
          "type": "bytes32"
        },
        {
          "internalType": "uint256",
          "name": "_amount",
          "type": "uint256"
        },
        {
          "internalType": "bytes32",
          "name": "_receiverHash",
          "type": "bytes32"
        },
        {
          "internalType": "bytes",
          "name": "_signature",
          "type": "bytes"
        }
      ],
      "name": "withdrawCollateralToDarkPool",
      "outputs": [],
      "stateMutability": "nonpayable",
      "type": "function"
    }
  ],
  "bytecode": "0x60e060405234801561001057600080fd5b5060405161196d38038061196d83398101604081905261002f91610140565b6001600160a01b03808316608081905290821660a05260408051632c805af560e21b8152905163b2016bd4916004808201926020929091908290030181865afa158015610080573d6000803e3d6000fd5b505050506040513d601f19601f820116820180604052508101906100a4919061017a565b6001600160a01b0390811660c081905260805160405163095ea7b360e01b81529216600483015260001960248301529063095ea7b3906044016020604051808303816000875af11580156100fc573d6000803e3d6000fd5b505050506040513d601f19601f82011682018060405250810190610120919061019e565b5050506101c0565b6001600160a01b038116811461013d57600080fd5b50565b6000806040838503121561015357600080fd5b825161015e81610128565b602084015190925061016f81610128565b809150509250929050565b60006020828403121561018c57600080fd5b815161019781610128565b9392505050565b6000602082840312156101b057600080fd5b8151801515811461019757600080fd5b60805160a05160c051611716610257600039600081816101c5015281816102ca0152818161061e0152610b0a01526000818161011701528181610237015281816102ec015281816105ef01526106ab01526000818160d301528181610328015281816104410152818161057601528181610869015281816108d401528181610a2301528181610b480152610cb301526117166000f3fe608060405234801561001057600080fd5b50600436106100b45760003560e01c80638a24982c116100715780638a24982c1461018d578063a1d722fa146101a0578063b2016bd4146101c0578063c1d0331e146101e7578063deca6b38146101fa578063f2f321b81461020d57600080fd5b80630777880d146100b95780630af96800146100ce578063104e9929146101125780631c9a8f0814610139578063403286641461014c5780635d8b8c361461017a575b600080fd5b6100cc6100c736600461120a565b610220565b005b6100f57f000000000000000000000000000000000000000000000000000000000000000081565b6040516001600160a01b0390911681526020015b60405180910390f35b6100f57f000000000000000000000000000000000000000000000000000000000000000081565b6100cc61014736600461132a565b6103f3565b61016c61015a36600461137a565b60016020526000908152604090205481565b604051908152602001610109565b6100cc610188366004611393565b6104db565b6100cc61019b3660046113fe565b610778565b61016c6101ae36600461137a565b60006020819052908152604090205481565b6100f57f000000000000000000000000000000000000000000000000000000000000000081565b6100cc6101f5366004611473565b6109cc565b6100cc6102083660046114ba565b610afd565b6100cc61021b36600461132a565b610c12565b6040516398828ec160e01b81526001600160a01b037f000000000000000000000000000000000000000000000000000000000000000016906398828ec19061026c908490600401611500565b6020604051808303816000875af115801561028b573d6000803e3d6000fd5b505050506040513d601f19601f820116820180604052508101906102af919061158f565b5060006102bb82610d1d565b90506103126001600160a01b037f0000000000000000000000000000000000000000000000000000000000000000167f00000000000000000000000000000000000000000000000000000000000000003084610d48565b60405163bad4a01f60e01b8152600481018290527f00000000000000000000000000000000000000000000000000000000000000006001600160a01b03169063bad4a01f90602401600060405180830381600087803b15801561037457600080fd5b505af1158015610388573d6000803e3d6000fd5b505050508060008085815260200190815260200160002060008282546103ae91906115d2565b9091555050604080518281526001602082015284917f36a4b21e2bb01a8221bce1e7b3155d4271f24e86851e93a67ba12dfaf893ccb6910160405180910390a2505050565b610423836040518060400160405280600d81526020016c2922a6a7ab22afa6a0a923a4a760991b81525083610da8565b506040516397709b5d60e01b815260048101849052602481018390527f00000000000000000000000000000000000000000000000000000000000000006001600160a01b0316906397709b5d90604401600060405180830381600087803b15801561048d57600080fd5b505af11580156104a1573d6000803e3d6000fd5b505050600084815260016020908152604080832054835290829052812080548593509091906104d19084906115d2565b9091555050505050565b6040517215d2551211149055d7d0d3d313105511549053606a1b60208201526033810184905260538101839052600090607301604051602081830303815290604052805190602001209050610531858284610e16565b6000858152602081905260409020548411156105605760405163a832a98d60e01b815260040160405180910390fd5b6040516330897f1760e11b8152600481018590527f00000000000000000000000000000000000000000000000000000000000000006001600160a01b031690636112fe2e90602401600060405180830381600087803b1580156105c257600080fd5b505af11580156105d6573d6000803e3d6000fd5b505060405163095ea7b360e01b81526001600160a01b037f000000000000000000000000000000000000000000000000000000000000000081166004830152602482018890527f000000000000000000000000000000000000000000000000000000000000000016925063095ea7b391506044016020604051808303816000875af1158015610669573d6000803e3d6000fd5b505050506040513d601f19601f8201168201806040525081019061068d91906115e5565b50604051631da1bbfb60e01b815260048101849052602481018590527f00000000000000000000000000000000000000000000000000000000000000006001600160a01b031690631da1bbfb90604401600060405180830381600087803b1580156106f757600080fd5b505af115801561070b573d6000803e3d6000fd5b505050508360008087815260200190815260200160002060008282546107319190611602565b9091555050604080518481526020810186905286917ff4eec9504d8478ceb6e166ee8d621c1285ef5f90ad6df7025878e40208492085910160405180910390a25050505050565b6040516c27a822a72fa827a9a4aa24a7a760991b6020820152602d8101869052604d8101859052606d810184905282151560f81b608d820152600090608e016040516020818303038152906040528051906020012090506107da878284610e16565b6000878152602081905260409020548511156108095760405163a832a98d60e01b815260040160405180910390fd5b60008781526020819052604081208054879290610827908490611602565b90915550506000868152600160205260409081902088905551632d34834160e21b815260048101879052602481018690526044810185905283151560648201527f00000000000000000000000000000000000000000000000000000000000000006001600160a01b03169063b4d20d0490608401600060405180830381600087803b1580156108b557600080fd5b505af11580156108c9573d6000803e3d6000fd5b5050505060008060007f00000000000000000000000000000000000000000000000000000000000000006001600160a01b031663514ea4bf8a6040518263ffffffff1660e01b815260040161092091815260200190565b60a060405180830381865afa15801561093d573d6000803e3d6000fd5b505050506040513d601f19601f820116820180604052508101906109619190611615565b5093509350935050888a7f527254aa2ce32806579adbc2cffab312ba9dc070bf80e47098bc354f0e6ff64f85858a866040516109b89493929190938452602084019290925215156040830152606082015260800190565b60405180910390a350505050505050505050565b60006109ff836040518060400160405280600e81526020016d21a627a9a2afa827a9a4aa24a7a760911b81525084610da8565b60405163e54a2ad560e01b8152600481018590529091506000906001600160a01b037f0000000000000000000000000000000000000000000000000000000000000000169063e54a2ad5906024016020604051808303816000875af1158015610a6c573d6000803e3d6000fd5b505050506040513d601f19601f82011682018060405250810190610a909190611679565b90508015610abc5760008281526020819052604081208054839290610ab69084906115d2565b90915550505b60008481526001602052604080822082905551859184917f897860407b0ce2ff510f959c48ab2105aa52a4831eb3d965cfff7d028dfe773d9190a350505050565b610b326001600160a01b037f000000000000000000000000000000000000000000000000000000000000000016333084610d48565b60405163bad4a01f60e01b8152600481018290527f00000000000000000000000000000000000000000000000000000000000000006001600160a01b03169063bad4a01f90602401600060405180830381600087803b158015610b9457600080fd5b505af1158015610ba8573d6000803e3d6000fd5b50505050806000808481526020019081526020016000206000828254610bce91906115d2565b9091555050604080518281526000602082015283917f36a4b21e2bb01a8221bce1e7b3155d4271f24e86851e93a67ba12dfaf893ccb6910160405180910390a25050565b6000610c41846040518060400160405280600a81526020016920a2222fa6a0a923a4a760b11b81525084610da8565b600081815260208190526040902054909150831115610c735760405163a832a98d60e01b815260040160405180910390fd5b60008181526020819052604081208054859290610c91908490611602565b90915550506040516313c14e6f60e31b815260048101859052602481018490527f00000000000000000000000000000000000000000000000000000000000000006001600160a01b031690639e0a737890604401600060405180830381600087803b158015610cff57600080fd5b505af1158015610d13573d6000803e3d6000fd5b5050505050505050565b60008160200151600081518110610d3657610d36611692565b602002602001015160001c9050919050565b604080516001600160a01b0385811660248301528416604482015260648082018490528251808303909101815260849091019091526020810180516001600160e01b03166323b872dd60e01b179052610da2908590610eaf565b50505050565b60008381526001602052604081205480610dd5576040516370d645e360e01b815260040160405180910390fd5b60008486604051602001610dea9291906116a8565b604051602081830303815290604052805190602001209050610e0d828286610e16565b50949350505050565b7f19457468657265756d205369676e6564204d6573736167653a0a3332000000006000908152601c839052603c812090610e508284610f25565b6040516bffffffffffffffffffffffff19606083901b16602082015290915085906034016040516020818303038152906040528051906020012014610ea857604051638baa579f60e01b815260040160405180910390fd5b5050505050565b600080602060008451602086016000885af180610ed2576040513d6000823e3d81fd5b50506000513d91508115610eea578060011415610ef7565b6001600160a01b0384163b155b15610da257604051635274afe760e01b81526001600160a01b03851660048201526024015b60405180910390fd5b600080600080610f358686610f51565b925092509250610f458282610f9e565b50909150505b92915050565b60008060008351604103610f8b5760208401516040850151606086015160001a610f7d8882858561105b565b955095509550505050610f97565b50508151600091506002905b9250925092565b6000826003811115610fb257610fb26116ca565b03610fbb575050565b6001826003811115610fcf57610fcf6116ca565b03610fed5760405163f645eedf60e01b815260040160405180910390fd5b6002826003811115611001576110016116ca565b036110225760405163fce698f760e01b815260048101829052602401610f1c565b6003826003811115611036576110366116ca565b03611057576040516335e2f38360e21b815260048101829052602401610f1c565b5050565b600080807f7fffffffffffffffffffffffffffffff5d576e7357a4501ddfe92f46681b20a08411156110965750600091506003905082611120565b604080516000808252602082018084528a905260ff891692820192909252606081018790526080810186905260019060a0016020604051602081039080840390855afa1580156110ea573d6000803e3d6000fd5b5050604051601f1901519150506001600160a01b03811661111657506000925060019150829050611120565b9250600091508190505b9450945094915050565b634e487b7160e01b600052604160045260246000fd5b6040805190810167ffffffffffffffff811182821017156111635761116361112a565b60405290565b604051601f8201601f1916810167ffffffffffffffff811182821017156111925761119261112a565b604052919050565b600082601f8301126111ab57600080fd5b813567ffffffffffffffff8111156111c5576111c561112a565b6111d8601f8201601f1916602001611169565b8181528460208386010111156111ed57600080fd5b816020850160208301376000918101602001919091529392505050565b6000806040838503121561121d57600080fd5b82359150602083013567ffffffffffffffff81111561123b57600080fd5b83016040818603121561124d57600080fd5b611255611140565b813567ffffffffffffffff81111561126c57600080fd5b6112788782850161119a565b825250602082013567ffffffffffffffff81111561129557600080fd5b80830192505085601f8301126112aa57600080fd5b813567ffffffffffffffff8111156112c4576112c461112a565b8060051b6112d460208201611169565b918252602081850181019290810190898411156112f057600080fd5b6020860195505b83861015611316578535808352602096870196909350909101906112f7565b602085015250949791965090945050505050565b60008060006060848603121561133f57600080fd5b8335925060208401359150604084013567ffffffffffffffff81111561136457600080fd5b6113708682870161119a565b9150509250925092565b60006020828403121561138c57600080fd5b5035919050565b600080600080608085870312156113a957600080fd5b843593506020850135925060408501359150606085013567ffffffffffffffff8111156113d557600080fd5b6113e18782880161119a565b91505092959194509250565b80151581146113fb57600080fd5b50565b60008060008060008060c0878903121561141757600080fd5b86359550602087013594506040870135935060608701359250608087013561143e816113ed565b915060a087013567ffffffffffffffff81111561145a57600080fd5b61146689828a0161119a565b9150509295509295509295565b6000806040838503121561148657600080fd5b82359150602083013567ffffffffffffffff8111156114a457600080fd5b6114b08582860161119a565b9150509250929050565b600080604083850312156114cd57600080fd5b50508035926020909101359150565b60005b838110156114f75781810151838201526020016114df565b50506000910152565b60208152600082516040602084015280518060608501526115288160808601602085016114dc565b602085810151601f19601f93909301929092168501858103606001604087015282516080820181905291830193506000929160a0909101905b808410156115845784518252602082019150602085019450600184019350611561565b509695505050505050565b6000602082840312156115a157600080fd5b815163ffffffff811681146115b557600080fd5b9392505050565b634e487b7160e01b600052601160045260246000fd5b80820180821115610f4b57610f4b6115bc565b6000602082840312156115f757600080fd5b81516115b5816113ed565b81810381811115610f4b57610f4b6115bc565b600080600080600060a0868803121561162d57600080fd5b85516001600160a01b038116811461164457600080fd5b60208701516040880151606089015160808a01519398509196509450925061166b816113ed565b809150509295509295909350565b60006020828403121561168b57600080fd5b5051919050565b634e487b7160e01b600052603260045260246000fd5b600083516116ba8184602088016114dc565b9190910191825250602001919050565b634e487b7160e01b600052602160045260246000fdfea264697066735822122048e012c965dd6747a3e4f35b1f80ecdfb7b52e76194761edb45c7b73a4c2f3d064736f6c634300081c0033",
  "linkReferences": {},
  "deployedLinkReferences": {}
}