{
  "_format": "hh-sol-artifact-1",
  "contractName": "TokenPool",
  "sourceName": "contracts/darkpool/core/TokenPool.sol",
  "abi": [
    {
      "inputs": [
        {
          "internalType": "address",
          "name": "_entryPoint",
          "type": "address"
        },
        {
          "internalType": "address",
          "name": "_asset",
          "type": "address"
        },
        {
          "internalType": "address",
          "name": "_withdraw_transfer_verifier",
          "type": "address"
        },
        {
          "internalType": "address",
          "name": "_claim_verifier",
          "type": "address"
        },
        {
          "internalType": "uint32",
          "name": "_treeDepth",
          "type": "uint32"
        }
      ],
      "stateMutability": "nonpayable",
      "type": "constructor"
    },
    {
      "inputs": [
        {
          "internalType": "address",
          "name": "token",
          "type": "address"
        }
      ],
      "name": "SafeERC20FailedOperation",
      "type": "error"
    },
    {
      "anonymous": false,
      "inputs": [
        {
          "indexed": true,
          "internalType": "bytes32",
          "name": "leaf",
          "type": "bytes32"
        },
        {
          "indexed": true,
          "internalType": "uint32",
          "name": "leafIndex",
          "type": "uint32"
        },
        {
          "indexed": false,
          "internalType": "bytes32",
          "name": "newRoot",
          "type": "bytes32"
        }
      ],
      "name": "CommitmentInserted",
      "type": "event"
    },
    {
      "anonymous": false,
      "inputs": [
        {
          "indexed": true,
          "internalType": "bytes32",
          "name": "noteID",
          "type": "bytes32"
        },
        {
          "indexed": false,
          "internalType": "uint256",
          "name": "amount",
          "type": "uint256"
        }
      ],
      "name": "NoteClaimed",
      "type": "event"
    },
    {
      "anonymous": false,
      "inputs": [
        {
          "indexed": true,
          "internalType": "bytes32",
          "name": "receiverHash",
          "type": "bytes32"
        },
        {
          "indexed": false,
          "internalType": "uint256",
          "name": "amount",
          "type": "uint256"
        },
        {
          "indexed": false,
          "internalType": "uint256",
          "name": "noteNonce",
          "type": "uint256"
        }
      ],
      "name": "NoteCreated",
      "type": "event"
    },
    {
      "anonymous": false,
      "inputs": [
        {
          "indexed": true,
          "internalType": "address",
          "name": "spender",
          "type": "address"
        },
        {
          "indexed": false,
          "internalType": "uint256",
          "name": "amount",
          "type": "uint256"
        }
      ],
      "name": "WithdrawalApproved",
      "type": "event"
    },
    {
      "inputs": [],
      "name": "TREE_DEPTH",
      "outputs": [
        {
          "internalType": "uint32",
          "name": "",
          "type": "uint32"
        }
      ],
      "stateMutability": "view",
      "type": "function"
    },
    {
      "inputs": [
        {
          "components": [
            {
              "internalType": "bytes",
              "name": "honkProof",
              "type": "bytes"
            },
            {
              "internalType": "bytes32[]",
              "name": "publicInputs",
              "type": "bytes32[]"
            }
          ],
          "internalType": "struct ProofLib.WithdrawOrTransferParams",
          "name": "params",
          "type": "tuple"
        }
      ],
      "name": "approveWithdrawal",
      "outputs": [
        {
          "internalType": "uint32",
          "name": "leafIndex",
          "type": "uint32"
        }
      ],
      "stateMutability": "nonpayable",
      "type": "function"
    },
    {
      "inputs": [],
      "name": "asset",
      "outputs": [
        {
          "internalType": "contract IERC20",
          "name": "",
          "type": "address"
        }
      ],
      "stateMutability": "view",
      "type": "function"
    },
    {
      "inputs": [
        {
          "components": [
            {
              "internalType": "bytes",
              "name": "honkProof",
              "type": "bytes"
            },
            {
              "internalType": "bytes32[]",
              "name": "publicInputs",
              "type": "bytes32[]"
            }
          ],
          "internalType": "struct ProofLib.ClaimParams",
          "name": "params",
          "type": "tuple"
        }
      ],
      "name": "claim",
      "outputs": [
        {
          "internalType": "uint32",
          "name": "leafIndex",
          "type": "uint32"
        }
      ],
      "stateMutability": "nonpayable",
      "type": "function"
    },
    {
      "inputs": [],
      "name": "claimVerifier",
      "outputs": [
        {
          "internalType": "contract IVerifier",
          "name": "",
          "type": "address"
        }
      ],
      "stateMutability": "view",
      "type": "function"
    },
    {
      "inputs": [],
      "name": "claim_verifier",
      "outputs": [
        {
          "internalType": "address",
          "name": "",
          "type": "address"
        }
      ],
      "stateMutability": "view",
      "type": "function"
    },
    {
      "inputs": [],
      "name": "currentRoot",
      "outputs": [
        {
          "internalType": "bytes32",
          "name": "",
          "type": "bytes32"
        }
      ],
      "stateMutability": "view",
      "type": "function"
    },
    {
      "inputs": [],
      "name": "currentRootIndex",
      "outputs": [
        {
          "internalType": "uint32",
          "name": "",
          "type": "uint32"
        }
      ],
      "stateMutability": "view",
      "type": "function"
    },
    {
      "inputs": [
        {
          "internalType": "uint256",
          "name": "amount",
          "type": "uint256"
        },
        {
          "internalType": "bytes32",
          "name": "precommitment",
          "type": "bytes32"
        }
      ],
      "name": "deposit",
      "outputs": [
        {
          "internalType": "uint32",
          "name": "leafIndex",
          "type": "uint32"
        }
      ],
      "stateMutability": "payable",
      "type": "function"
    },
    {
      "inputs": [
        {
          "internalType": "bytes32",
          "name": "receiverHash",
          "type": "bytes32"
        },
        {
          "internalType": "uint256",
          "name": "amount",
          "type": "uint256"
        }
      ],
      "name": "depositFor",
      "outputs": [],
      "stateMutability": "nonpayable",
      "type": "function"
    },
    {
      "inputs": [],
      "name": "entryPoint",
      "outputs": [
        {
          "internalType": "address",
          "name": "",
          "type": "address"
        }
      ],
      "stateMutability": "view",
      "type": "function"
    },
    {
      "inputs": [
        {
          "internalType": "uint32",
          "name": "leafIndex",
          "type": "uint32"
        }
      ],
      "name": "getLeaf",
      "outputs": [
        {
          "internalType": "bytes32",
          "name": "",
          "type": "bytes32"
        }
      ],
      "stateMutability": "view",
      "type": "function"
    },
    {
      "inputs": [
        {
          "internalType": "uint32",
          "name": "leafIndex",
          "type": "uint32"
        }
      ],
      "name": "getPath",
      "outputs": [
        {
          "internalType": "bytes32[]",
          "name": "siblings",
          "type": "bytes32[]"
        }
      ],
      "stateMutability": "view",
      "type": "function"
    },
    {
      "inputs": [
        {
          "internalType": "bytes32",
          "name": "",
          "type": "bytes32"
        }
      ],
      "name": "isNullifierSpent",
      "outputs": [
        {
          "internalType": "bool",
          "name": "",
          "type": "bool"
        }
      ],
      "stateMutability": "view",
      "type": "function"
    },
    {
      "inputs": [],
      "name": "nextLeafIndex",
      "outputs": [
        {
          "internalType": "uint32",
          "name": "",
          "type": "uint32"
        }
      ],
      "stateMutability": "view",
      "type": "function"
    },
    {
      "inputs": [],
      "name": "noteNonce",
      "outputs": [
        {
          "internalType": "uint256",
          "name": "",
          "type": "uint256"
        }
      ],
      "stateMutability": "view",
      "type": "function"
    },
    {
      "inputs": [
        {
          "internalType": "bytes32",
          "name": "_noteID",
          "type": "bytes32"
        }
      ],
      "name": "notes",
      "outputs": [
        {
          "internalType": "uint256",
          "name": "value",
          "type": "uint256"
        },
        {
          "internalType": "bytes32",
          "name": "receiverHash",
          "type": "bytes32"
        },
        {
          "internalType": "uint256",
          "name": "claimedBlockNumber",
          "type": "uint256"
        }
      ],
      "stateMutability": "view",
      "type": "function"
    },
    {
      "inputs": [
        {
          "internalType": "uint256",
          "name": "_index",
          "type": "uint256"
        }
      ],
      "name": "roots",
      "outputs": [
        {
          "internalType": "bytes32",
          "name": "_root",
          "type": "bytes32"
        }
      ],
      "stateMutability": "view",
      "type": "function"
    },
    {
      "inputs": [
        {
          "internalType": "address",
          "name": "newVerifier",
          "type": "address"
        }
      ],
      "name": "setClaimVerifier",
      "outputs": [],
      "stateMutability": "nonpayable",
      "type": "function"
    },
    {
      "inputs": [
        {
          "internalType": "address",
          "name": "newVerifier",
          "type": "address"
        }
      ],
      "name": "setWithdrawTransferVerifier",
      "outputs": [],
      "stateMutability": "nonpayable",
      "type": "function"
    },
    {
      "inputs": [
        {
          "components": [
            {
              "internalType": "bytes",
              "name": "honkProof",
              "type": "bytes"
            },
            {
              "internalType": "bytes32[]",
              "name": "publicInputs",
              "type": "bytes32[]"
            }
          ],
          "internalType": "struct ProofLib.WithdrawOrTransferParams",
          "name": "params",
          "type": "tuple"
        },
        {
          "internalType": "bytes32",
          "name": "receiverHash",
          "type": "bytes32"
        }
      ],
      "name": "transfer",
      "outputs": [
        {
          "internalType": "uint32",
          "name": "leafIndex",
          "type": "uint32"
        }
      ],
      "stateMutability": "nonpayable",
      "type": "function"
    },
    {
      "inputs": [
        {
          "internalType": "address",
          "name": "receiver",
          "type": "address"
        },
        {
          "components": [
            {
              "internalType": "bytes",
              "name": "honkProof",
              "type": "bytes"
            },
            {
              "internalType": "bytes32[]",
              "name": "publicInputs",
              "type": "bytes32[]"
            }
          ],
          "internalType": "struct ProofLib.WithdrawOrTransferParams",
          "name": "params",
          "type": "tuple"
        }
      ],
      "name": "withdraw",
      "outputs": [
        {
          "internalType": "uint32",
          "name": "leafIndex",
          "type": "uint32"
        }
      ],
      "stateMutability": "nonpayable",
      "type": "function"
    },
    {
      "inputs": [],
      "name": "withdrawVerifier",
      "outputs": [
        {
          "internalType": "contract IVerifier",
          "name": "",
          "type": "address"
        }
      ],
      "stateMutability": "view",
      "type": "function"
    },
    {
      "inputs": [],
      "name": "withdraw_transfer_verifier",
      "outputs": [
        {
          "internalType": "address",
          "name": "",
          "type": "address"
        }
      ],
      "stateMutability": "view",
      "type": "function"
    }
  ],
  "bytecode": "0x60c060405234801561001057600080fd5b506040516126cd3803806126cd83398101604081905261002f9161028e565b6001600160a01b0385811660805284811660a052600280546001600160a01b0319908116858416179091556003805490911691851691909117905561007560048261007f565b5050505050610346565b60008163ffffffff16116100ea5760405162461bcd60e51b815260206004820152602860248201527f4d65726b6c65547265653a206465707468206d75737420626520677265617465604482015267072207468616e20360c41b606482015260840160405180910390fd5b60028201805463ffffffff191663ffffffff831617905561010c816001610300565b63ffffffff166001600160401b0381111561012957610129610330565b60405190808252806020026020018201604052801561015c57816020015b60608152602001906001900390816101475790505b50805161017391600185019160209091019061017b565b505060009055565b8280548282559060005260206000209081019282156101c8579160200282015b828111156101c857825180516101b89184916020909101906101d8565b509160200191906001019061019b565b506101d492915061021f565b5090565b828054828255906000526020600020908101928215610213579160200282015b828111156102135782518255916020019190600101906101f8565b506101d492915061023c565b808211156101d45760006102338282610251565b5060010161021f565b5b808211156101d4576000815560010161023d565b508054600082559060005260206000209081019061026f919061023c565b50565b80516001600160a01b038116811461028957600080fd5b919050565b600080600080600060a086880312156102a657600080fd5b6102af86610272565b94506102bd60208701610272565b93506102cb60408701610272565b92506102d960608701610272565b9150608086015163ffffffff811681146102f257600080fd5b809150509295509295909350565b63ffffffff818116838216019081111561032a57634e487b7160e01b600052601160045260246000fd5b92915050565b634e487b7160e01b600052604160045260246000fd5b60805160a05161231c6103b1600039600081816101b30152818161057a015281816105a6015281816108f801528181610b1301528181610df5015281816110480152818161111b015261119e0152600081816104200152818161068d01526106f7015261231c6000f3fe60806040526004361061014b5760003560e01c80639258e9d0116100b6578063b0d691fe1161006f578063b0d691fe1461040e578063c2b40ae414610442578063c9630cb01461046f578063d5a4e32514610482578063f1650536146104c2578063fdab463d146104dd57600080fd5b80639258e9d01461034d57806398828ec1146103635780639e94c2f514610383578063a5b55751146103b0578063a93539d0146103ce578063ac823ae9146103ee57600080fd5b80635d597fe1116101085780635d597fe11461025b5780637a225e101461027b5780637d225d3c1461029b57806385de26b7146102b9578063864eb1641461031057806390eeb02b1461033057600080fd5b80630be4f422146101505780631da1bbfb1461017f57806338d52e0f146101a157806338eb8425146101ed5780633c4fb1501461020d578063517af08b1461022d575b600080fd5b34801561015c57600080fd5b506101656104f2565b60405163ffffffff90911681526020015b60405180910390f35b34801561018b57600080fd5b5061019f61019a366004611cf4565b61051c565b005b3480156101ad57600080fd5b506101d57f000000000000000000000000000000000000000000000000000000000000000081565b6040516001600160a01b039091168152602001610176565b3480156101f957600080fd5b5061019f610208366004611d2d565b610682565b34801561021957600080fd5b5061019f610228366004611d2d565b6106ec565b34801561023957600080fd5b5061024d610248366004611d48565b610756565b604051908152602001610176565b34801561026757600080fd5b50610165610276366004611f32565b6107a2565b34801561028757600080fd5b50610165610296366004611f77565b6109f3565b3480156102a757600080fd5b506003546001600160a01b03166101d5565b3480156102c557600080fd5b506102f56102d4366004611fac565b60096020526000908152604090208054600182015460029092015490919083565b60408051938452602084019290925290820152606001610176565b34801561031c57600080fd5b506003546101d5906001600160a01b031681565b34801561033c57600080fd5b506000546101659063ffffffff1681565b34801561035957600080fd5b5061024d60015481565b34801561036f57600080fd5b5061016561037e366004611f77565b610cb3565b34801561038f57600080fd5b506103a361039e366004611d48565b610ede565b6040516101769190612001565b3480156103bc57600080fd5b506002546001600160a01b03166101d5565b3480156103da57600080fd5b506002546101d5906001600160a01b031681565b3480156103fa57600080fd5b50610165610409366004612014565b610ef1565b34801561041a57600080fd5b506101d57f000000000000000000000000000000000000000000000000000000000000000081565b34801561044e57600080fd5b5061024d61045d366004611fac565b60086020526000908152604090205481565b61016561047d366004611cf4565b611079565b34801561048e57600080fd5b506104b261049d366004611fac565b60076020526000908152604090205460ff1681565b6040519015158152602001610176565b3480156104ce57600080fd5b5060065463ffffffff16610165565b3480156104e957600080fd5b5060045461024d565b6000600460010160008154811061050b5761050b612062565b600091825260209091200154919050565b6000811161056d5760405162461bcd60e51b8152602060048201526019602482015278105cdcd95d141bdbdb0e88125b9d985b1a5908185b5bdd5b9d603a1b60448201526064015b60405180910390fd5b6105a26001600160a01b037f0000000000000000000000000000000000000000000000000000000000000000163330846111c2565b60007f00000000000000000000000000000000000000000000000000000000000000006001546040516020016105d9929190612078565b60408051808303601f190181528282528051602091820120606084018352858452818401878152600085850181815283825260098552908590209551865590516001808701919091559051600290950194909455925482518681529182015291925084917f10c23c4dc3181e123ce7ac6200b999abe0d02995a4e22d437b94a2c3f3814d30910160405180910390a260018054906000610678836120b0565b9190505550505050565b336001600160a01b037f000000000000000000000000000000000000000000000000000000000000000016146106ca5760405162461bcd60e51b8152600401610564906120c9565b600280546001600160a01b0319166001600160a01b0392909216919091179055565b336001600160a01b037f000000000000000000000000000000000000000000000000000000000000000016146107345760405162461bcd60e51b8152600401610564906120c9565b600380546001600160a01b0319166001600160a01b0392909216919091179055565b6000600460010160008154811061076f5761076f612062565b906000526020600020018263ffffffff168154811061079057610790612062565b90600052602060002001549050919050565b6000828060200151516004146107ca5760405162461bcd60e51b815260040161056490612110565b60035481516020830151604051633a94343960e21b81526001600160a01b039093169263ea50d0e492610801929091600401612151565b602060405180830381865afa15801561081e573d6000803e3d6000fd5b505050506040513d601f19601f8201168201806040525081019061084291906121b6565b61085e5760405162461bcd60e51b815260040161056490612110565b61086f61086a8561122f565b611257565b61088b5760405162461bcd60e51b8152600401610564906121d8565b61089c610897856112d3565b6112ec565b6108b06108a885611371565b60049061138a565b91506108c060046000015461179d565b8163ffffffff166108d085611371565b6004546040519081526000805160206122c78339815191529060200160405180910390a360007f000000000000000000000000000000000000000000000000000000000000000060015460405160200161092b929190612078565b6040516020818303038152906040528051906020012090506040518060600160405280610957876117e7565b81526020808201879052600060409283018190528481526009825282902083518155908301516001820155910151600290910155837f10c23c4dc3181e123ce7ac6200b999abe0d02995a4e22d437b94a2c3f3814d306109b6876117e7565b6001546040805192835260208301919091520160405180910390a2600180549060006109e1836120b0565b919050555060009250505b5092915050565b600081806020015151600614610a4b5760405162461bcd60e51b815260206004820152601e60248201527f4173736574506f6f6c3a20496e76616c696420636c61696d2070726f6f6600006044820152606401610564565b60025481516020830151604051633a94343960e21b81526001600160a01b039093169263ea50d0e492610a82929091600401612151565b602060405180830381865afa158015610a9f573d6000803e3d6000fd5b505050506040513d601f19601f82011682018060405250810190610ac391906121b6565b610b0f5760405162461bcd60e51b815260206004820152601e60248201527f4173736574506f6f6c3a20496e76616c696420636c61696d2070726f6f6600006044820152606401610564565b60007f0000000000000000000000000000000000000000000000000000000000000000610b3b85611812565b604051602001610b4c929190612078565b60408051601f1981840301815291815281516020928301206000818152600990935291206002015490915015610bc45760405162461bcd60e51b815260206004820152601f60248201527f4173736574506f6f6c3a204e6f746520616c726561647920636c61696d6564006044820152606401610564565b610bcd8461182b565b15610c5b57610bde61086a85611371565b610bfa5760405162461bcd60e51b8152600401610564906121d8565b610c0661089785611859565b610c126108a885611872565b9250610c2260046000015461179d565b8263ffffffff16610c3285611872565b6004546040519081526000805160206122c78339815191529060200160405180910390a3610cac565b610c676108a885611872565b9250610c7760046000015461179d565b8263ffffffff16610c8785611872565b6004546040519081526000805160206122c78339815191529060200160405180910390a35b5050919050565b600081806020015151600414610cdb5760405162461bcd60e51b815260040161056490612110565b60035481516020830151604051633a94343960e21b81526001600160a01b039093169263ea50d0e492610d12929091600401612151565b602060405180830381865afa158015610d2f573d6000803e3d6000fd5b505050506040513d601f19601f82011682018060405250810190610d5391906121b6565b610d6f5760405162461bcd60e51b815260040161056490612110565b610d7b61086a8461122f565b610d975760405162461bcd60e51b8152600401610564906121d8565b610da3610897846112d3565b610daf6108a884611371565b9150610dbf60046000015461179d565b8163ffffffff16610dcf84611371565b6004546040519081526000805160206122c78339815191529060200160405180910390a37f00000000000000000000000000000000000000000000000000000000000000006001600160a01b031663095ea7b333610e2c866117e7565b6040516001600160e01b031960e085901b1681526001600160a01b03909216600483015260248201526044016020604051808303816000875af1158015610e77573d6000803e3d6000fd5b505050506040513d601f19601f82011682018060405250810190610e9b91906121b6565b50337f8ffbcb5e5bcb810975de2605ca8e4dbdbf14faffdacf75c660a9ac7b276f0842610ec7856117e7565b60405190815260200160405180910390a250919050565b6060610eeb60048361188b565b92915050565b600081806020015151600414610f195760405162461bcd60e51b815260040161056490612110565b60035481516020830151604051633a94343960e21b81526001600160a01b039093169263ea50d0e492610f50929091600401612151565b602060405180830381865afa158015610f6d573d6000803e3d6000fd5b505050506040513d601f19601f82011682018060405250810190610f9191906121b6565b610fad5760405162461bcd60e51b815260040161056490612110565b610fb961086a8461122f565b610fd55760405162461bcd60e51b8152600401610564906121d8565b610fe1610897846112d3565b610fed6108a884611371565b9150610ffd60046000015461179d565b8163ffffffff1661100d84611371565b6004546040519081526000805160206122c78339815191529060200160405180910390a361106f8461103e856117e7565b6001600160a01b037f0000000000000000000000000000000000000000000000000000000000000000169190611a85565b5060009392505050565b60008083116110c65760405162461bcd60e51b8152602060048201526019602482015278105cdcd95d141bdbdb0e88125b9d985b1a5908185b5bdd5b9d603a1b6044820152606401610564565b816111135760405162461bcd60e51b815260206004820181905260248201527f4173736574506f6f6c3a20496e76616c696420707265636f6d6d69746d656e746044820152606401610564565b6000611140847f000000000000000000000000000000000000000000000000000000000000000085611abb565b905061114d60048261138a565b915061115d60046000015461179d565b8163ffffffff16816000805160206122c783398151915260046000015460405161118991815260200190565b60405180910390a36109ec6001600160a01b037f0000000000000000000000000000000000000000000000000000000000000000163330875b6040516001600160a01b0384811660248301528381166044830152606482018390526112299186918216906323b872dd906084015b604051602081830303815290604052915060e01b6020820180516001600160e01b038381831617835250505050611b68565b50505050565b6000816020015160018151811061124857611248612062565b60200260200101519050919050565b60008161126657506000919050565b6000805463ffffffff16905b606463ffffffff8216101561106f5763ffffffff821660009081526008602052604090205484036112a7575060019392505050565b606460016112b5828561220f565b6112bf919061222b565b6112c9919061225d565b9150600101611272565b6000816020015160028151811061124857611248612062565b60008181526007602052604090205460ff16156113565760405162461bcd60e51b815260206004820152602260248201527f4173736574506f6f6c3a204e756c6c696669657220616c7265616479207370656044820152611b9d60f21b6064820152608401610564565b6000908152600760205260409020805460ff19166001179055565b6000816020015160038151811061124857611248612062565b600282015460009063ffffffff166113f05760405162461bcd60e51b815260206004820152602360248201527f4d65726b6c65547265653a2074726565206973206e6f7420696e697469616c696044820152621e995960ea1b6064820152608401610564565b8260010160008154811061140657611406612062565b6000918252602090912001546002840154909150600163ffffffff9182161b908216106114755760405162461bcd60e51b815260206004820152601860248201527f4d65726b6c65547265653a20747265652069732066756c6c00000000000000006044820152606401610564565b8260010160008154811061148b5761148b612062565b60009182526020808320909101805460018101825590835290822001839055829082905b600286015463ffffffff90811690821610156116c95760006114d260028461225d565b63ffffffff16151590506000816114f3576114ee84600161220f565b6114fe565b6114fe60018561222b565b90506000886001018463ffffffff168154811061151d5761151d612062565b60009182526020909120015463ffffffff8316101561158457886001018463ffffffff168154811061155157611551612062565b906000526020600020018263ffffffff168154811061157257611572612062565b90600052602060002001549050611588565b5060005b6000816115965750856115c7565b6000846115a357876115a5565b825b90506000856115b457836115b6565b885b90506115c28282611bd9565b925050505b60006115d4600288612285565b90508a6001018660016115e7919061220f565b63ffffffff16815481106115fd576115fd612062565b60009182526020909120015463ffffffff82161061165f578a600101866001611626919061220f565b63ffffffff168154811061163c5761163c612062565b6000918252602080832090910180546001810182559083529120018290556116b5565b818b600101876001611671919061220f565b63ffffffff168154811061168757611687612062565b906000526020600020018263ffffffff16815481106116a8576116a8612062565b6000918252602090912001555b909650945050600190920191506114af9050565b50818555600285015460018601805460009263ffffffff169081106116f0576116f0612062565b60009182526020909120015411156117535784546002860154600187018054909163ffffffff1690811061172657611726612062565b9060005260206000200160008154811061174257611742612062565b600091825260209091200155611795565b6002850154600186018054909163ffffffff1690811061177557611775612062565b600091825260208083208854920180546001810182559084529220909101555b505092915050565b600080546064906117b59063ffffffff16600161220f565b6117bf919061225d565b63ffffffff16600081815260086020526040812093909355825463ffffffff19161790915550565b6000816020015160008151811061180057611800612062565b602002602001015160001c9050919050565b6000816020015160018151811061180057611800612062565b60008060001b826020015160048151811061184857611848612062565b602002602001015114159050919050565b6000816020015160048151811061124857611248612062565b6000816020015160058151811061124857611248612062565b6060826001016000815481106118a3576118a3612062565b60009182526020909120015463ffffffff83161080156118c1575060015b6119195760405162461bcd60e51b815260206004820152602360248201527f4d65726b6c65547265653a206c656166496e646578206f7574206f6620626f756044820152626e647360e81b6064820152608401610564565b600283015463ffffffff1667ffffffffffffffff81111561193c5761193c611d6e565b604051908082528060200260200182016040528015611965578160200160208202803683370190505b5090508160005b600285015463ffffffff908116908216101561179557600061198f60028461225d565b63ffffffff16151590506000816119b0576119ab84600161220f565b6119bb565b6119bb60018561222b565b90506000876001018463ffffffff16815481106119da576119da612062565b60009182526020909120015463ffffffff83161015611a4157876001018463ffffffff1681548110611a0e57611a0e612062565b906000526020600020018263ffffffff1681548110611a2f57611a2f612062565b90600052602060002001549050611a45565b5060005b80868563ffffffff1681518110611a5e57611a5e612062565b6020908102919091010152611a74600286612285565b9450506001909201915061196c9050565b6040516001600160a01b03838116602483015260448201839052611ab691859182169063a9059cbb906064016111f7565b505050565b600073__$ee2cedc55bc524f21318fcb2e882e10c7c$__63e16f6200611ae086611c73565b6001600160a01b038616611af386611c73565b6040516001600160e01b031960e086901b168152600481019390935260248301919091526044820152606401602060405180830381865af4158015611b3c573d6000803e3d6000fd5b505050506040513d601f19601f82011682018060405250810190611b6091906122ad565b949350505050565b600080602060008451602086016000885af180611b8b576040513d6000823e3d81fd5b50506000513d91508115611ba3578060011415611bb0565b6001600160a01b0384163b155b1561122957604051635274afe760e01b81526001600160a01b0385166004820152602401610564565b600073__$ee2cedc55bc524f21318fcb2e882e10c7c$__63055d8d54611bfe85611c73565b611c0785611c73565b6040516001600160e01b031960e085901b16815260048101929092526024820152604401602060405180830381865af4158015611c48573d6000803e3d6000fd5b505050506040513d601f19601f82011682018060405250810190611c6c91906122ad565b9392505050565b80611c7d81611c82565b919050565b7f30644e72e131a029b85045b68181585d2833e84879b9709143e1f593f00000018110611cf15760405162461bcd60e51b815260206004820152601960248201527f4669656c643a20696e70757420697320746f6f206c61726765000000000000006044820152606401610564565b50565b60008060408385031215611d0757600080fd5b50508035926020909101359150565b80356001600160a01b0381168114611c7d57600080fd5b600060208284031215611d3f57600080fd5b611c6c82611d16565b600060208284031215611d5a57600080fd5b813563ffffffff81168114611c6c57600080fd5b634e487b7160e01b600052604160045260246000fd5b6040805190810167ffffffffffffffff81118282101715611da757611da7611d6e565b60405290565b604051601f8201601f1916810167ffffffffffffffff81118282101715611dd657611dd6611d6e565b604052919050565b600082601f830112611def57600080fd5b813567ffffffffffffffff811115611e0957611e09611d6e565b8060051b611e1960208201611dad565b91825260208185018101929081019086841115611e3557600080fd5b6020860192505b83831015611e57578235825260209283019290910190611e3c565b9695505050505050565b600060408284031215611e7357600080fd5b611e7b611d84565b9050813567ffffffffffffffff811115611e9457600080fd5b8201601f81018413611ea557600080fd5b803567ffffffffffffffff811115611ebf57611ebf611d6e565b611ed2601f8201601f1916602001611dad565b818152856020838501011115611ee757600080fd5b81602084016020830137600060208383010152808452505050602082013567ffffffffffffffff811115611f1a57600080fd5b611f2684828501611dde565b60208301525092915050565b60008060408385031215611f4557600080fd5b823567ffffffffffffffff811115611f5c57600080fd5b611f6885828601611e61565b95602094909401359450505050565b600060208284031215611f8957600080fd5b813567ffffffffffffffff811115611fa057600080fd5b611b6084828501611e61565b600060208284031215611fbe57600080fd5b5035919050565b600081518084526020840193506020830160005b82811015611ff7578151865260209586019590910190600101611fd9565b5093949350505050565b602081526000611c6c6020830184611fc5565b6000806040838503121561202757600080fd5b61203083611d16565b9150602083013567ffffffffffffffff81111561204c57600080fd5b61205885828601611e61565b9150509250929050565b634e487b7160e01b600052603260045260246000fd5b60609290921b6bffffffffffffffffffffffff19168252601482015260340190565b634e487b7160e01b600052601160045260246000fd5b6000600182016120c2576120c261209a565b5060010190565b60208082526027908201527f4173736574506f6f6c3a2043616c6c6572206973206e6f742074686520456e746040820152661c9e541bda5b9d60ca1b606082015260800190565b60208082526021908201527f4173736574506f6f6c3a20496e76616c69642077697468647261772070726f6f6040820152603360f91b606082015260800190565b604081526000835180604084015260005b8181101561217f5760208187018101516060868401015201612162565b50600060608285010152601f19601f8201168301905060608382030160208401526121ad6060820185611fc5565b95945050505050565b6000602082840312156121c857600080fd5b81518015158114611c6c57600080fd5b6020808252601e908201527f4173736574506f6f6c3a20496e76616c6964206d65726b6c6520726f6f740000604082015260600190565b63ffffffff8181168382160190811115610eeb57610eeb61209a565b63ffffffff8281168282160390811115610eeb57610eeb61209a565b634e487b7160e01b600052601260045260246000fd5b600063ffffffff83168061227357612273612247565b8063ffffffff84160691505092915050565b600063ffffffff83168061229b5761229b612247565b8063ffffffff84160491505092915050565b6000602082840312156122bf57600080fd5b505191905056fec156f42017957acfca3b7f6906dff8ed1d1a889f2c552e34074c3ad51becaeb9a2646970667358221220cb0d4e34c0f2a12481be1685cc7412a9e89ba319eb64f2ef90410dc8fa6a169f64736f6c634300081c0033",
  "linkReferences": {
    "contracts/darkpool/libraries/Poseidon/Poseidon2.sol": {
      "Poseidon2": [
        {
          "length": 20,
          "start": 7792
        },
        {
          "length": 20,
          "start": 8078
        }
      ]
    }
  },
  "deployedLinkReferences": {
    "contracts/darkpool/libraries/Poseidon/Poseidon2.sol": {
      "Poseidon2": [
        {
          "length": 20,
          "start": 6847
        },
        {
          "length": 20,
          "start": 7133
        }
      ]
    }
  }
}